{
  "_format": "hh-sol-artifact-1",
  "contractName": "DividendDistributor",
  "sourceName": "solidity/DividendDistributor.sol",
  "abi": [
    {
      "inputs": [],
      "stateMutability": "nonpayable",
      "type": "constructor"
    },
    {
      "anonymous": false,
      "inputs": [
        {
          "indexed": true,
          "internalType": "bytes32",
          "name": "distributionId",
          "type": "bytes32"
        },
        {
          "indexed": false,
          "internalType": "uint256",
          "name": "recipientCount",
          "type": "uint256"
        },
        {
          "indexed": false,
          "internalType": "uint256",
          "name": "totalAmount",
          "type": "uint256"
        }
      ],
      "name": "BatchDistributed",
      "type": "event"
    },
    {
      "anonymous": false,
      "inputs": [
        {
          "indexed": true,
          "internalType": "bytes32",
          "name": "distributionId",
          "type": "bytes32"
        },
        {
          "indexed": false,
          "internalType": "uint256",
          "name": "totalAmount",
          "type": "uint256"
        },
        {
          "indexed": false,
          "internalType": "uint256",
          "name": "perTokenAmount",
          "type": "uint256"
        },
        {
          "indexed": false,
          "internalType": "uint256",
          "name": "snapshotBlock",
          "type": "uint256"
        }
      ],
      "name": "DistributionCreated",
      "type": "event"
    },
    {
      "anonymous": false,
      "inputs": [
        {
          "indexed": true,
          "internalType": "bytes32",
          "name": "distributionId",
          "type": "bytes32"
        },
        {
          "indexed": false,
          "internalType": "uint256",
          "name": "unclaimedAmount",
          "type": "uint256"
        }
      ],
      "name": "DistributionExpired",
      "type": "event"
    },
    {
      "anonymous": false,
      "inputs": [
        {
          "indexed": true,
          "internalType": "bytes32",
          "name": "distributionId",
          "type": "bytes32"
        },
        {
          "indexed": true,
          "internalType": "address",
          "name": "recipient",
          "type": "address"
        },
        {
          "indexed": false,
          "internalType": "uint256",
          "name": "amount",
          "type": "uint256"
        }
      ],
      "name": "DividendClaimed",
      "type": "event"
    },
    {
      "inputs": [
        {
          "internalType": "address",
          "name": "caller",
          "type": "address"
        }
      ],
      "name": "addAuthorizedCaller",
      "outputs": [],
      "stateMutability": "nonpayable",
      "type": "function"
    },
    {
      "inputs": [
        {
          "internalType": "address",
          "name": "",
          "type": "address"
        }
      ],
      "name": "authorizedCallers",
      "outputs": [
        {
          "internalType": "bool",
          "name": "",
          "type": "bool"
        }
      ],
      "stateMutability": "view",
      "type": "function"
    },
    {
      "inputs": [
        {
          "internalType": "bytes32",
          "name": "distributionId",
          "type": "bytes32"
        },
        {
          "internalType": "address[]",
          "name": "recipients",
          "type": "address[]"
        },
        {
          "internalType": "uint256[]",
          "name": "amounts",
          "type": "uint256[]"
        }
      ],
      "name": "batchDistribute",
      "outputs": [],
      "stateMutability": "nonpayable",
      "type": "function"
    },
    {
      "inputs": [
        {
          "internalType": "bytes32",
          "name": "distributionId",
          "type": "bytes32"
        },
        {
          "internalType": "address[]",
          "name": "holders",
          "type": "address[]"
        },
        {
          "internalType": "uint256[]",
          "name": "amounts",
          "type": "uint256[]"
        }
      ],
      "name": "batchSetClaimableAmounts",
      "outputs": [],
      "stateMutability": "nonpayable",
      "type": "function"
    },
    {
      "inputs": [
        {
          "internalType": "bytes32",
          "name": "distributionId",
          "type": "bytes32"
        }
      ],
      "name": "claimDividend",
      "outputs": [],
      "stateMutability": "nonpayable",
      "type": "function"
    },
    {
      "inputs": [
        {
          "internalType": "bytes32",
          "name": "",
          "type": "bytes32"
        },
        {
          "internalType": "address",
          "name": "",
          "type": "address"
        }
      ],
      "name": "claimableAmounts",
      "outputs": [
        {
          "internalType": "uint256",
          "name": "",
          "type": "uint256"
        }
      ],
      "stateMutability": "view",
      "type": "function"
    },
    {
      "inputs": [
        {
          "internalType": "bytes32",
          "name": "distributionId",
          "type": "bytes32"
        },
        {
          "internalType": "address",
          "name": "tokenContract",
          "type": "address"
        },
        {
          "internalType": "uint256",
          "name": "totalAmount",
          "type": "uint256"
        },
        {
          "internalType": "uint256",
          "name": "perTokenAmount",
          "type": "uint256"
        },
        {
          "internalType": "uint256",
          "name": "snapshotBlock",
          "type": "uint256"
        },
        {
          "internalType": "uint256",
          "name": "expiryDays",
          "type": "uint256"
        }
      ],
      "name": "createDistribution",
      "outputs": [],
      "stateMutability": "payable",
      "type": "function"
    },
    {
      "inputs": [
        {
          "internalType": "bytes32",
          "name": "",
          "type": "bytes32"
        }
      ],
      "name": "distributions",
      "outputs": [
        {
          "internalType": "bytes32",
          "name": "distributionId",
          "type": "bytes32"
        },
        {
          "internalType": "address",
          "name": "tokenContract",
          "type": "address"
        },
        {
          "internalType": "uint256",
          "name": "totalAmount",
          "type": "uint256"
        },
        {
          "internalType": "uint256",
          "name": "perTokenAmount",
          "type": "uint256"
        },
        {
          "internalType": "uint256",
          "name": "snapshotBlock",
          "type": "uint256"
        },
        {
          "internalType": "uint256",
          "name": "totalClaimed",
          "type": "uint256"
        },
        {
          "internalType": "uint256",
          "name": "expiryDate",
          "type": "uint256"
        },
        {
          "internalType": "bool",
          "name": "active",
          "type": "bool"
        }
      ],
      "stateMutability": "view",
      "type": "function"
    },
    {
      "inputs": [
        {
          "internalType": "bytes32",
          "name": "distributionId",
          "type": "bytes32"
        },
        {
          "internalType": "address",
          "name": "holder",
          "type": "address"
        }
      ],
      "name": "getClaimableAmount",
      "outputs": [
        {
          "internalType": "uint256",
          "name": "",
          "type": "uint256"
        }
      ],
      "stateMutability": "view",
      "type": "function"
    },
    {
      "inputs": [
        {
          "internalType": "bytes32",
          "name": "distributionId",
          "type": "bytes32"
        }
      ],
      "name": "getDistribution",
      "outputs": [
        {
          "components": [
            {
              "internalType": "bytes32",
              "name": "distributionId",
              "type": "bytes32"
            },
            {
              "internalType": "address",
              "name": "tokenContract",
              "type": "address"
            },
            {
              "internalType": "uint256",
              "name": "totalAmount",
              "type": "uint256"
            },
            {
              "internalType": "uint256",
              "name": "perTokenAmount",
              "type": "uint256"
            },
            {
              "internalType": "uint256",
              "name": "snapshotBlock",
              "type": "uint256"
            },
            {
              "internalType": "uint256",
              "name": "totalClaimed",
              "type": "uint256"
            },
            {
              "internalType": "uint256",
              "name": "expiryDate",
              "type": "uint256"
            },
            {
              "internalType": "bool",
              "name": "active",
              "type": "bool"
            }
          ],
          "internalType": "struct DividendDistributor.Distribution",
          "name": "",
          "type": "tuple"
        }
      ],
      "stateMutability": "view",
      "type": "function"
    },
    {
      "inputs": [
        {
          "internalType": "bytes32",
          "name": "",
          "type": "bytes32"
        },
        {
          "internalType": "address",
          "name": "",
          "type": "address"
        }
      ],
      "name": "hasClaimed",
      "outputs": [
        {
          "internalType": "bool",
          "name": "",
          "type": "bool"
        }
      ],
      "stateMutability": "view",
      "type": "function"
    },
    {
      "inputs": [
        {
          "internalType": "bytes32",
          "name": "distributionId",
          "type": "bytes32"
        },
        {
          "internalType": "address",
          "name": "holder",
          "type": "address"
        }
      ],
      "name": "hasClaimedDividend",
      "outputs": [
        {
          "internalType": "bool",
          "name": "",
          "type": "bool"
        }
      ],
      "stateMutability": "view",
      "type": "function"
    },
    {
      "inputs": [],
      "name": "owner",
      "outputs": [
        {
          "internalType": "address",
          "name": "",
          "type": "address"
        }
      ],
      "stateMutability": "view",
      "type": "function"
    },
    {
      "inputs": [
        {
          "internalType": "address",
          "name": "caller",
          "type": "address"
        }
      ],
      "name": "removeAuthorizedCaller",
      "outputs": [],
      "stateMutability": "nonpayable",
      "type": "function"
    },
    {
      "inputs": [
        {
          "internalType": "bytes32",
          "name": "distributionId",
          "type": "bytes32"
        },
        {
          "internalType": "address",
          "name": "holder",
          "type": "address"
        },
        {
          "internalType": "uint256",
          "name": "amount",
          "type": "uint256"
        }
      ],
      "name": "setClaimableAmount",
      "outputs": [],
      "stateMutability": "nonpayable",
      "type": "function"
    },
    {
      "inputs": [
        {
          "internalType": "bytes32",
          "name": "distributionId",
          "type": "bytes32"
        }
      ],
      "name": "withdrawUnclaimed",
      "outputs": [],
      "stateMutability": "nonpayable",
      "type": "function"
    },
    {
      "stateMutability": "payable",
      "type": "receive"
    }
  ],
  "bytecode": "0x608060405234801561001057600080fd5b50600480546001600160a01b031916339081179091556000908152600360205260409020805460ff191660011790556115d08061004e6000396000f3fe6080604052600436106100f75760003560e01c80638da5cb5b1161008a578063d54aa55811610059578063d54aa5581461035d578063dd0e62151461037d578063e2aa56df1461042d578063e9cffb761461044d57600080fd5b80638da5cb5b146102aa57806392a42d1d146102e2578063b2b417841461031d578063b7aa02311461033d57600080fd5b80631b9776d1116100c65780631b9776d11461018d578063536fff6c146101bb57806367dd0e0b146101eb578063719f57251461027257600080fd5b80630e45897e146101035780630f64a20f1461012557806313a155ea1461013857806315d94f551461015857600080fd5b366100fe57005b600080fd5b34801561010f57600080fd5b5061012361011e366004611310565b61046d565b005b6101236101333660046113a6565b61061a565b34801561014457600080fd5b506101236101533660046113f4565b610894565b34801561016457600080fd5b50610178610173366004611416565b6108fe565b60405190151581526020015b60405180910390f35b34801561019957600080fd5b506101ad6101a8366004611416565b61092b565b604051908152602001610184565b3480156101c757600080fd5b506101786101d63660046113f4565b60036020526000908152604090205460ff1681565b3480156101f757600080fd5b5061020b610206366004611442565b610987565b6040516101849190815181526020808301516001600160a01b03169082015260408083015190820152606080830151908201526080808301519082015260a0808301519082015260c0808301519082015260e0918201511515918101919091526101000190565b34801561027e57600080fd5b506101ad61028d366004611416565b600260209081526000928352604080842090915290825290205481565b3480156102b657600080fd5b506004546102ca906001600160a01b031681565b6040516001600160a01b039091168152602001610184565b3480156102ee57600080fd5b506101786102fd366004611416565b600160209081526000928352604080842090915290825290205460ff1681565b34801561032957600080fd5b50610123610338366004611442565b610a57565b34801561034957600080fd5b506101236103583660046113f4565b610c6e565b34801561036957600080fd5b50610123610378366004611310565b610cd5565b34801561038957600080fd5b506103e8610398366004611442565b6000602081905290815260409020805460018201546002830154600384015460048501546005860154600687015460079097015495966001600160a01b0390951695939492939192909160ff1688565b604080519889526001600160a01b039097166020890152958701949094526060860192909252608085015260a084015260c0830152151560e082015261010001610184565b34801561043957600080fd5b50610123610448366004611442565b611028565b34801561045957600080fd5b5061012361046836600461145b565b6111c2565b3360009081526003602052604090205460ff168061049557506004546001600160a01b031633145b6104ba5760405162461bcd60e51b81526004016104b190611490565b60405180910390fd5b8281146104fb5760405162461bcd60e51b815260206004820152600f60248201526e098cadccee8d040dad2e6dac2e8c6d608b1b60448201526064016104b1565b6000858152602081905260409020600781015460ff1661052d5760405162461bcd60e51b81526004016104b1906114b8565b60005b8481101561061157600087815260016020526040812090878784818110610559576105596114ef565b905060200201602081019061056e91906113f4565b6001600160a01b0316815260208101919091526040016000205460ff166105ff578383828181106105a1576105a16114ef565b905060200201356002600089815260200190815260200160002060008888858181106105cf576105cf6114ef565b90506020020160208101906105e491906113f4565b6001600160a01b031681526020810191909152604001600020555b806106098161151b565b915050610530565b50505050505050565b3360009081526003602052604090205460ff168061064257506004546001600160a01b031633145b61065e5760405162461bcd60e51b81526004016104b190611490565b600086815260208190526040902054156106b05760405162461bcd60e51b8152602060048201526013602482015272446973747269627574696f6e2065786973747360681b60448201526064016104b1565b833410156106f55760405162461bcd60e51b8152602060048201526012602482015271496e73756666696369656e742066756e647360701b60448201526064016104b1565b4382111561073e5760405162461bcd60e51b8152602060048201526016602482015275496e76616c696420736e617073686f7420626c6f636b60501b60448201526064016104b1565b600061074d8262015180611534565b610757904261154b565b9050604051806101000160405280888152602001876001600160a01b0316815260200186815260200185815260200184815260200160008152602001828152602001600115158152506000808981526020019081526020016000206000820151816000015560208201518160010160006101000a8154816001600160a01b0302191690836001600160a01b0316021790555060408201518160020155606082015181600301556080820151816004015560a0820151816005015560c0820151816006015560e08201518160070160006101000a81548160ff021916908315150217905550905050867f1c8e60e2a24757fbed2b4f16988618edee1b74513172345f9846021a06339d47868686604051610883939291909283526020830191909152604082015260600190565b60405180910390a250505050505050565b6004546001600160a01b031633146108da5760405162461bcd60e51b81526020600482015260096024820152682737ba1037bbb732b960b91b60448201526064016104b1565b6001600160a01b03166000908152600360205260409020805460ff19166001179055565b60008281526001602090815260408083206001600160a01b038516845290915290205460ff165b92915050565b60008281526001602090815260408083206001600160a01b038516845290915281205460ff161561095e57506000610925565b5060009182526002602090815260408084206001600160a01b0393909316845291905290205490565b6109dd6040518061010001604052806000801916815260200160006001600160a01b0316815260200160008152602001600081526020016000815260200160008152602001600081526020016000151581525090565b50600090815260208181526040918290208251610100810184528154815260018201546001600160a01b0316928101929092526002810154928201929092526003820154606082015260048201546080820152600582015460a0820152600682015460c082015260079091015460ff16151560e082015290565b6000818152602081905260409020600781015460ff16610a895760405162461bcd60e51b81526004016104b1906114b8565b80600601544210610ad35760405162461bcd60e51b8152602060048201526014602482015273111a5cdd1c9a589d5d1a5bdb88195e1c1a5c995960621b60448201526064016104b1565b600082815260016020908152604080832033845290915290205460ff1615610b2f5760405162461bcd60e51b815260206004820152600f60248201526e105b1c9958591e4818db185a5b5959608a1b60448201526064016104b1565b600082815260026020908152604080832033845290915290205480610b8c5760405162461bcd60e51b8152602060048201526013602482015272139bc818db185a5b58589b1948185b5bdd5b9d606a1b60448201526064016104b1565b60008381526001602081815260408084203385529091528220805460ff19169091179055600583018054839290610bc490849061154b565b9091555050604051600090339083908381818185875af1925050503d8060008114610c0b576040519150601f19603f3d011682016040523d82523d6000602084013e610c10565b606091505b5050905080610c315760405162461bcd60e51b81526004016104b19061155e565b604051828152339085907fc5ba40a41ecf4493493ede34c7da39ce48d14d97dc404c5a3afc1df99401fbbb9060200160405180910390a350505050565b6004546001600160a01b03163314610cb45760405162461bcd60e51b81526020600482015260096024820152682737ba1037bbb732b960b91b60448201526064016104b1565b6001600160a01b03166000908152600360205260409020805460ff19169055565b3360009081526003602052604090205460ff1680610cfd57506004546001600160a01b031633145b610d195760405162461bcd60e51b81526004016104b190611490565b828114610d5a5760405162461bcd60e51b815260206004820152600f60248201526e098cadccee8d040dad2e6dac2e8c6d608b1b60448201526064016104b1565b6000858152602081905260409020600781015460ff16610d8c5760405162461bcd60e51b81526004016104b1906114b8565b6000805b85811015610fef57600088815260016020526040812090888884818110610db957610db96114ef565b9050602002016020810190610dce91906113f4565b6001600160a01b0316815260208101919091526040016000205460ff16610fdd57600088815260016020819052604082209091898985818110610e1357610e136114ef565b9050602002016020810190610e2891906113f4565b6001600160a01b031681526020810191909152604001600020805460ff1916911515919091179055848482818110610e6257610e626114ef565b90506020020135836005016000828254610e7c919061154b565b909155508590508482818110610e9457610e946114ef565b9050602002013582610ea6919061154b565b91506000878783818110610ebc57610ebc6114ef565b9050602002016020810190610ed191906113f4565b6001600160a01b0316868684818110610eec57610eec6114ef565b9050602002013560405160006040518083038185875af1925050503d8060008114610f33576040519150601f19603f3d011682016040523d82523d6000602084013e610f38565b606091505b5050905080610f595760405162461bcd60e51b81526004016104b19061155e565b878783818110610f6b57610f6b6114ef565b9050602002016020810190610f8091906113f4565b6001600160a01b0316897fc5ba40a41ecf4493493ede34c7da39ce48d14d97dc404c5a3afc1df99401fbbb888886818110610fbd57610fbd6114ef565b90506020020135604051610fd391815260200190565b60405180910390a3505b80610fe78161151b565b915050610d90565b50604080518681526020810183905288917f87996bbeafe5b1837f02e1f08f37fe62a71bbf8f90e512f26367715798655d3b9101610883565b3360009081526003602052604090205460ff168061105057506004546001600160a01b031633145b61106c5760405162461bcd60e51b81526004016104b190611490565b6000818152602081905260409020600781015460ff1661109e5760405162461bcd60e51b81526004016104b1906114b8565b80600601544210156110e45760405162461bcd60e51b815260206004820152600f60248201526e139bdd08195e1c1a5c9959081e595d608a1b60448201526064016104b1565b6000816005015482600201546110fa9190611587565b60078301805460ff1916905590508015611183576004546040516000916001600160a01b03169083908381818185875af1925050503d806000811461115b576040519150601f19603f3d011682016040523d82523d6000602084013e611160565b606091505b50509050806111815760405162461bcd60e51b81526004016104b19061155e565b505b827fc5824cc19e55d9ab4190995c1d6c149944aa116f80f6367863980efb4832f25b826040516111b591815260200190565b60405180910390a2505050565b3360009081526003602052604090205460ff16806111ea57506004546001600160a01b031633145b6112065760405162461bcd60e51b81526004016104b190611490565b6000838152602081905260409020600781015460ff166112385760405162461bcd60e51b81526004016104b1906114b8565b60008481526001602090815260408083206001600160a01b038716845290915290205460ff161561129d5760405162461bcd60e51b815260206004820152600f60248201526e105b1c9958591e4818db185a5b5959608a1b60448201526064016104b1565b5060009283526002602090815260408085206001600160a01b039094168552929052912055565b60008083601f8401126112d657600080fd5b50813567ffffffffffffffff8111156112ee57600080fd5b6020830191508360208260051b850101111561130957600080fd5b9250929050565b60008060008060006060868803121561132857600080fd5b85359450602086013567ffffffffffffffff8082111561134757600080fd5b61135389838a016112c4565b9096509450604088013591508082111561136c57600080fd5b50611379888289016112c4565b969995985093965092949392505050565b80356001600160a01b03811681146113a157600080fd5b919050565b60008060008060008060c087890312156113bf57600080fd5b863595506113cf6020880161138a565b95989597505050506040840135936060810135936080820135935060a0909101359150565b60006020828403121561140657600080fd5b61140f8261138a565b9392505050565b6000806040838503121561142957600080fd5b823591506114396020840161138a565b90509250929050565b60006020828403121561145457600080fd5b5035919050565b60008060006060848603121561147057600080fd5b833592506114806020850161138a565b9150604084013590509250925092565b6020808252600e908201526d139bdd08185d5d1a1bdc9a5e995960921b604082015260600190565b60208082526017908201527f446973747269627574696f6e206e6f7420616374697665000000000000000000604082015260600190565b634e487b7160e01b600052603260045260246000fd5b634e487b7160e01b600052601160045260246000fd5b60006001820161152d5761152d611505565b5060010190565b808202811582820484141761092557610925611505565b8082018082111561092557610925611505565b6020808252600f908201526e151c985b9cd9995c8819985a5b1959608a1b604082015260600190565b818103818111156109255761092561150556fea26469706673582212202785527e6246f905214889eb0170f5725bcafefabdff17b5bf862658b5abcc2964736f6c63430008140033",
  "linkReferences": {},
  "deployedLinkReferences": {}
}