{"solidity/GovernanceExecutor.sol":{"GovernanceExecutor":{"abi":[{"inputs":[],"stateMutability":"nonpayable","type":"constructor"},{"anonymous":false,"inputs":[{"indexed":true,"internalType":"bytes32","name":"proposalId","type":"bytes32"},{"indexed":false,"internalType":"uint256","name":"amount","type":"uint256"}],"name":"FundsLocked","type":"event"},{"anonymous":false,"inputs":[{"indexed":true,"internalType":"bytes32","name":"proposalId","type":"bytes32"},{"indexed":false,"internalType":"address","name":"recipient","type":"address"},{"indexed":false,"internalType":"uint256","name":"amount","type":"uint256"}],"name":"FundsReleased","type":"event"},{"anonymous":false,"inputs":[{"indexed":true,"internalType":"bytes32","name":"proposalId","type":"bytes32"},{"indexed":false,"internalType":"uint256","name":"amountRefunded","type":"uint256"}],"name":"ProposalCancelled","type":"event"},{"anonymous":false,"inputs":[{"indexed":true,"internalType":"bytes32","name":"proposalId","type":"bytes32"},{"indexed":false,"internalType":"uint256","name":"amountReleased","type":"uint256"}],"name":"ProposalExecuted","type":"event"},{"anonymous":false,"inputs":[{"indexed":true,"internalType":"bytes32","name":"proposalId","type":"bytes32"},{"indexed":false,"internalType":"address","name":"propertyTreasury","type":"address"},{"indexed":false,"internalType":"uint256","name":"budget","type":"uint256"},{"indexed":false,"internalType":"enum GovernanceExecutor.ProposalType","name":"proposalType","type":"uint8"}],"name":"ProposalRegistered","type":"event"},{"inputs":[{"internalType":"address","name":"caller","type":"address"}],"name":"addAuthorizedCaller","outputs":[],"stateMutability":"nonpayable","type":"function"},{"inputs":[{"internalType":"address","name":"","type":"address"}],"name":"authorizedCallers","outputs":[{"internalType":"bool","name":"","type":"bool"}],"stateMutability":"view","type":"function"},{"inputs":[{"internalType":"bytes32","name":"proposalId","type":"bytes32"}],"name":"cancelProposal","outputs":[],"stateMutability":"nonpayable","type":"function"},{"inputs":[{"internalType":"bytes32","name":"proposalId","type":"bytes32"}],"name":"executeProposal","outputs":[],"stateMutability":"payable","type":"function"},{"inputs":[{"internalType":"bytes32","name":"proposalId","type":"bytes32"}],"name":"getProposal","outputs":[{"components":[{"internalType":"bytes32","name":"proposalId","type":"bytes32"},{"internalType":"address","name":"propertyTreasury","type":"address"},{"internalType":"uint256","name":"budget","type":"uint256"},{"internalType":"enum GovernanceExecutor.ProposalType","name":"proposalType","type":"uint8"},{"internalType":"uint256","name":"votingEndTime","type":"uint256"},{"internalType":"enum GovernanceExecutor.ProposalStatus","name":"status","type":"uint8"},{"internalType":"uint256","name":"lockedAmount","type":"uint256"},{"internalType":"address","name":"recipient","type":"address"},{"internalType":"uint256","name":"executedAt","type":"uint256"}],"internalType":"struct GovernanceExecutor.Proposal","name":"","type":"tuple"}],"stateMutability":"view","type":"function"},{"inputs":[{"internalType":"bytes32","name":"proposalId","type":"bytes32"}],"name":"lockFundsForProposal","outputs":[],"stateMutability":"payable","type":"function"},{"inputs":[],"name":"owner","outputs":[{"internalType":"address","name":"","type":"address"}],"stateMutability":"view","type":"function"},{"inputs":[{"internalType":"bytes32","name":"","type":"bytes32"}],"name":"proposals","outputs":[{"internalType":"bytes32","name":"proposalId","type":"bytes32"},{"internalType":"address","name":"propertyTreasury","type":"address"},{"internalType":"uint256","name":"budget","type":"uint256"},{"internalType":"enum GovernanceExecutor.ProposalType","name":"proposalType","type":"uint8"},{"internalType":"uint256","name":"votingEndTime","type":"uint256"},{"internalType":"enum GovernanceExecutor.ProposalStatus","name":"status","type":"uint8"},{"internalType":"uint256","name":"lockedAmount","type":"uint256"},{"internalType":"address","name":"recipient","type":"address"},{"internalType":"uint256","name":"executedAt","type":"uint256"}],"stateMutability":"view","type":"function"},{"inputs":[{"internalType":"bytes32","name":"proposalId","type":"bytes32"},{"internalType":"address","name":"propertyTreasury","type":"address"},{"internalType":"uint256","name":"budget","type":"uint256"},{"internalType":"enum GovernanceExecutor.ProposalType","name":"proposalType","type":"uint8"},{"internalType":"uint256","name":"votingEndTime","type":"uint256"}],"name":"registerProposal","outputs":[],"stateMutability":"nonpayable","type":"function"},{"inputs":[{"internalType":"bytes32","name":"proposalId","type":"bytes32"},{"internalType":"address payable","name":"recipient","type":"address"}],"name":"releaseFunds","outputs":[],"stateMutability":"nonpayable","type":"function"},{"inputs":[{"internalType":"address","name":"caller","type":"address"}],"name":"removeAuthorizedCaller","outputs":[],"stateMutability":"nonpayable","type":"function"},{"stateMutability":"payable","type":"receive"}],"evm":{"bytecode":{"linkReferences":{},"object":"608060405234801561001057600080fd5b50600280546001600160a01b031916339081179091556000908152600160208190526040909120805460ff1916909117905561108f806100516000396000f3fe6080604052600436106100a05760003560e01c8063635e334711610064578063635e3347146101f05780637d25e89d146102035780638da5cb5b14610223578063980ff6c61461025b578063b7aa02311461026e578063de52c07d1461028e57600080fd5b806313a155ea146100ac57806332ed5b12146100ce57806337376ca814610163578063430694cf14610183578063536fff6c146101b057600080fd5b366100a757005b600080fd5b3480156100b857600080fd5b506100cc6100c7366004610e0a565b6102ae565b005b3480156100da57600080fd5b506101456100e9366004610e2e565b60006020819052908152604090208054600182015460028301546003840154600485015460058601546006870154600788015460089098015496976001600160a01b0396871697959660ff958616969495909316939192169089565b60405161015a99989796959493929190610e88565b60405180910390f35b34801561016f57600080fd5b506100cc61017e366004610e2e565b610320565b34801561018f57600080fd5b506101a361019e366004610e2e565b6104c3565b60405161015a9190610ef0565b3480156101bc57600080fd5b506101e06101cb366004610e0a565b60016020526000908152604090205460ff1681565b604051901515815260200161015a565b6100cc6101fe366004610e2e565b6105e3565b34801561020f57600080fd5b506100cc61021e366004610f7d565b6107b1565b34801561022f57600080fd5b50600254610243906001600160a01b031681565b6040516001600160a01b03909116815260200161015a565b6100cc610269366004610e2e565b6109f7565b34801561027a57600080fd5b506100cc610289366004610e0a565b610b2c565b34801561029a57600080fd5b506100cc6102a9366004610fad565b610b93565b6002546001600160a01b031633146102f95760405162461bcd60e51b81526020600482015260096024820152682737ba1037bbb732b960b91b60448201526064015b60405180910390fd5b6001600160a01b03166000908152600160208190526040909120805460ff19169091179055565b3360009081526001602052604090205460ff168061034857506002546001600160a01b031633145b6103645760405162461bcd60e51b81526004016102f090611003565b60008181526020819052604090206002600582015460ff16600381111561038d5761038d610e47565b036103cd5760405162461bcd60e51b815260206004820152601060248201526f105b1c9958591e48195e1958dd5d195960821b60448201526064016102f0565b600681018054600090915560058201805460ff1916600317905580156104845760018201546040516000916001600160a01b03169083908381818185875af1925050503d806000811461043c576040519150601f19603f3d011682016040523d82523d6000602084013e610441565b606091505b50509050806104825760405162461bcd60e51b815260206004820152600d60248201526c1499599d5b990819985a5b1959609a1b60448201526064016102f0565b505b827ff233010736b479389e8407578c649b70dcb06774c4d29149e88ed7016c8adb0f826040516104b691815260200190565b60405180910390a2505050565b6040805161012080820183526000808352602080840182905283850182905260608085018390526080850183905260a0850183905260c0850183905260e08501839052610100850183905286835282825291859020855193840186528054845260018101546001600160a01b031691840191909152600281015494830194909452600380850154939492939184019160ff169081111561056557610565610e47565b600381111561057657610576610e47565b815260048201546020820152600582015460409091019060ff1660038111156105a1576105a1610e47565b60038111156105b2576105b2610e47565b81526006820154602082015260078201546001600160a01b0316604082015260089091015460609091015292915050565b3360009081526001602052604090205460ff168061060b57506002546001600160a01b031633145b6106275760405162461bcd60e51b81526004016102f090611003565b600081815260208190526040902080546106785760405162461bcd60e51b8152602060048201526012602482015271141c9bdc1bdcd85b081b9bdd08199bdd5b9960721b60448201526064016102f0565b6000600582015460ff16600381111561069357610693610e47565b146106d15760405162461bcd60e51b815260206004820152600e60248201526d496e76616c69642073746174757360901b60448201526064016102f0565b80600401544210156107185760405162461bcd60e51b815260206004820152601060248201526f159bdd1a5b99c81b9bdd08195b99195960821b60448201526064016102f0565b80600201543410156107615760405162461bcd60e51b8152602060048201526012602482015271496e73756666696369656e742066756e647360701b60448201526064016102f0565b346006820181905560058201805460ff1916600117905560405190815282907fe4ca6b67c60d054a7534ea716370d00f3e074e33fb008a92d45ebdb89caefcf09060200160405180910390a25050565b3360009081526001602052604090205460ff16806107d957506002546001600160a01b031633145b6107f55760405162461bcd60e51b81526004016102f090611003565b60008281526020819052604090206001600582015460ff16600381111561081e5761081e610e47565b1461085e5760405162461bcd60e51b815260206004820152601060248201526f119d5b991cc81b9bdd081b1bd8dad95960821b60448201526064016102f0565b60008160060154116108a85760405162461bcd60e51b81526020600482015260136024820152724e6f2066756e647320746f2072656c6561736560681b60448201526064016102f0565b6006810180546000918290556007830180546001600160a01b0386166001600160a01b0319909116811790915560058401805460ff1916600217905542600885015560405191929183908381818185875af1925050503d806000811461092a576040519150601f19603f3d011682016040523d82523d6000602084013e61092f565b606091505b50509050806109725760405162461bcd60e51b815260206004820152600f60248201526e151c985b9cd9995c8819985a5b1959608a1b60448201526064016102f0565b604080516001600160a01b03861681526020810184905286917f75d86e5bfa1175e2dc677f3abe3aebba3069f2db6ae492f1734d4b4bc65f61c1910160405180910390a2847f120985525cfb78f6c03f96986f9687f49caf81e29350d21fa052e8c0df211ebb836040516109e891815260200190565b60405180910390a25050505050565b3360009081526001602052604090205460ff1680610a1f57506002546001600160a01b031633145b610a3b5760405162461bcd60e51b81526004016102f090611003565b60008181526020819052604090208054610a8c5760405162461bcd60e51b8152602060048201526012602482015271141c9bdc1bdcd85b081b9bdd08199bdd5b9960721b60448201526064016102f0565b6000600582015460ff166003811115610aa757610aa7610e47565b14610ae55760405162461bcd60e51b815260206004820152600e60248201526d496e76616c69642073746174757360901b60448201526064016102f0565b80600401544210156107615760405162461bcd60e51b815260206004820152601060248201526f159bdd1a5b99c81b9bdd08195b99195960821b60448201526064016102f0565b6002546001600160a01b03163314610b725760405162461bcd60e51b81526020600482015260096024820152682737ba1037bbb732b960b91b60448201526064016102f0565b6001600160a01b03166000908152600160205260409020805460ff19169055565b3360009081526001602052604090205460ff1680610bbb57506002546001600160a01b031633145b610bd75760405162461bcd60e51b81526004016102f090611003565b60008581526020819052604090205415610c335760405162461bcd60e51b815260206004820152601760248201527f50726f706f73616c20616c72656164792065786973747300000000000000000060448201526064016102f0565b428111610c825760405162461bcd60e51b815260206004820152601760248201527f496e76616c696420766f74696e6720656e642074696d6500000000000000000060448201526064016102f0565b604051806101200160405280868152602001856001600160a01b03168152602001848152602001836003811115610cbb57610cbb610e47565b815260208101839052604001600081526000602080830182905260408084018390526060938401839052898352828252918290208451815590840151600180830180546001600160a01b0319166001600160a01b039093169290921790915591840151600282015591830151600380840180549293909260ff1916918490811115610d4857610d48610e47565b02179055506080820151600482015560a082015160058201805460ff19166001836003811115610d7a57610d7a610e47565b021790555060c0820151600682015560e08201516007820180546001600160a01b0319166001600160a01b039092169190911790556101009091015160089091015560405185907ff718d0f627d42e73babc06de985462cb63fb0b368db0e486f1bc26f7241ffafa906109e89087908790879061102b565b6001600160a01b0381168114610e0757600080fd5b50565b600060208284031215610e1c57600080fd5b8135610e2781610df2565b9392505050565b600060208284031215610e4057600080fd5b5035919050565b634e487b7160e01b600052602160045260246000fd5b60048110610e0757634e487b7160e01b600052602160045260246000fd5b610e8481610e5d565b9052565b8981526001600160a01b03898116602083015260408201899052610120820190610eb189610e5d565b886060840152876080840152610ec687610e5d565b8660a08401528560c084015280851660e084015250826101008301529a9950505050505050505050565b815181526020808301516001600160a01b031690820152604080830151908201526060820151610120820190610f2581610e5d565b806060840152506080830151608083015260a0830151610f4860a0840182610e7b565b5060c083015160c083015260e0830151610f6d60e08401826001600160a01b03169052565b5061010092830151919092015290565b60008060408385031215610f9057600080fd5b823591506020830135610fa281610df2565b809150509250929050565b600080600080600060a08688031215610fc557600080fd5b853594506020860135610fd781610df2565b935060408601359250606086013560048110610ff257600080fd5b949793965091946080013592915050565b6020808252600e908201526d139bdd08185d5d1a1bdc9a5e995960921b604082015260600190565b6001600160a01b0384168152602081018390526060810161104b83610e5d565b82604083015294935050505056fea26469706673582212203273e4642fc3b1115bdf05323a330bff6d83e8ced66f745338f03004cfb6eda764736f6c63430008140033","opcodes":"PUSH1 0x80 PUSH1 0x40 MSTORE CALLVALUE DUP1 ISZERO PUSH2 0x10 JUMPI PUSH1 0x0 DUP1 REVERT JUMPDEST POP PUSH1 0x2 DUP1 SLOAD PUSH1 0x1 PUSH1 0x1 PUSH1 0xA0 SHL SUB NOT AND CALLER SWAP1 DUP2 OR SWAP1 SWAP2 SSTORE PUSH1 0x0 SWAP1 DUP2 MSTORE PUSH1 0x1 PUSH1 0x20 DUP2 SWAP1 MSTORE PUSH1 0x40 SWAP1 SWAP2 KECCAK256 DUP1 SLOAD PUSH1 0xFF NOT AND SWAP1 SWAP2 OR SWAP1 SSTORE PUSH2 0x108F DUP1 PUSH2 0x51 PUSH1 0x0 CODECOPY PUSH1 0x0 RETURN INVALID PUSH1 0x80 PUSH1 0x40 MSTORE PUSH1 0x4 CALLDATASIZE LT PUSH2 0xA0 JUMPI PUSH1 0x0 CALLDATALOAD PUSH1 0xE0 SHR DUP1 PUSH4 0x635E3347 GT PUSH2 0x64 JUMPI DUP1 PUSH4 0x635E3347 EQ PUSH2 0x1F0 JUMPI DUP1 PUSH4 0x7D25E89D EQ PUSH2 0x203 JUMPI DUP1 PUSH4 0x8DA5CB5B EQ PUSH2 0x223 JUMPI DUP1 PUSH4 0x980FF6C6 EQ PUSH2 0x25B JUMPI DUP1 PUSH4 0xB7AA0231 EQ PUSH2 0x26E JUMPI DUP1 PUSH4 0xDE52C07D EQ PUSH2 0x28E JUMPI PUSH1 0x0 DUP1 REVERT JUMPDEST DUP1 PUSH4 0x13A155EA EQ PUSH2 0xAC JUMPI DUP1 PUSH4 0x32ED5B12 EQ PUSH2 0xCE JUMPI DUP1 PUSH4 0x37376CA8 EQ PUSH2 0x163 JUMPI DUP1 PUSH4 0x430694CF EQ PUSH2 0x183 JUMPI DUP1 PUSH4 0x536FFF6C EQ PUSH2 0x1B0 JUMPI PUSH1 0x0 DUP1 REVERT JUMPDEST CALLDATASIZE PUSH2 0xA7 JUMPI STOP JUMPDEST PUSH1 0x0 DUP1 REVERT JUMPDEST CALLVALUE DUP1 ISZERO PUSH2 0xB8 JUMPI PUSH1 0x0 DUP1 REVERT JUMPDEST POP PUSH2 0xCC PUSH2 0xC7 CALLDATASIZE PUSH1 0x4 PUSH2 0xE0A JUMP JUMPDEST PUSH2 0x2AE JUMP JUMPDEST STOP JUMPDEST CALLVALUE DUP1 ISZERO PUSH2 0xDA JUMPI PUSH1 0x0 DUP1 REVERT JUMPDEST POP PUSH2 0x145 PUSH2 0xE9 CALLDATASIZE PUSH1 0x4 PUSH2 0xE2E JUMP JUMPDEST PUSH1 0x0 PUSH1 0x20 DUP2 SWAP1 MSTORE SWAP1 DUP2 MSTORE PUSH1 0x40 SWAP1 KECCAK256 DUP1 SLOAD PUSH1 0x1 DUP3 ADD SLOAD PUSH1 0x2 DUP4 ADD SLOAD PUSH1 0x3 DUP5 ADD SLOAD PUSH1 0x4 DUP6 ADD SLOAD PUSH1 0x5 DUP7 ADD SLOAD PUSH1 0x6 DUP8 ADD SLOAD PUSH1 0x7 DUP9 ADD SLOAD PUSH1 0x8 SWAP1 SWAP9 ADD SLOAD SWAP7 SWAP8 PUSH1 0x1 PUSH1 0x1 PUSH1 0xA0 SHL SUB SWAP7 DUP8 AND SWAP8 SWAP6 SWAP7 PUSH1 0xFF SWAP6 DUP7 AND SWAP7 SWAP5 SWAP6 SWAP1 SWAP4 AND SWAP4 SWAP2 SWAP3 AND SWAP1 DUP10 JUMP JUMPDEST PUSH1 0x40 MLOAD PUSH2 0x15A SWAP10 SWAP9 SWAP8 SWAP7 SWAP6 SWAP5 SWAP4 SWAP3 SWAP2 SWAP1 PUSH2 0xE88 JUMP JUMPDEST PUSH1 0x40 MLOAD DUP1 SWAP2 SUB SWAP1 RETURN JUMPDEST CALLVALUE DUP1 ISZERO PUSH2 0x16F JUMPI PUSH1 0x0 DUP1 REVERT JUMPDEST POP PUSH2 0xCC PUSH2 0x17E CALLDATASIZE PUSH1 0x4 PUSH2 0xE2E JUMP JUMPDEST PUSH2 0x320 JUMP JUMPDEST CALLVALUE DUP1 ISZERO PUSH2 0x18F JUMPI PUSH1 0x0 DUP1 REVERT JUMPDEST POP PUSH2 0x1A3 PUSH2 0x19E CALLDATASIZE PUSH1 0x4 PUSH2 0xE2E JUMP JUMPDEST PUSH2 0x4C3 JUMP JUMPDEST PUSH1 0x40 MLOAD PUSH2 0x15A SWAP2 SWAP1 PUSH2 0xEF0 JUMP JUMPDEST CALLVALUE DUP1 ISZERO PUSH2 0x1BC JUMPI PUSH1 0x0 DUP1 REVERT JUMPDEST POP PUSH2 0x1E0 PUSH2 0x1CB CALLDATASIZE PUSH1 0x4 PUSH2 0xE0A JUMP JUMPDEST PUSH1 0x1 PUSH1 0x20 MSTORE PUSH1 0x0 SWAP1 DUP2 MSTORE PUSH1 0x40 SWAP1 KECCAK256 SLOAD PUSH1 0xFF AND DUP2 JUMP JUMPDEST PUSH1 0x40 MLOAD SWAP1 ISZERO ISZERO DUP2 MSTORE PUSH1 0x20 ADD PUSH2 0x15A JUMP JUMPDEST PUSH2 0xCC PUSH2 0x1FE CALLDATASIZE PUSH1 0x4 PUSH2 0xE2E JUMP JUMPDEST PUSH2 0x5E3 JUMP JUMPDEST CALLVALUE DUP1 ISZERO PUSH2 0x20F JUMPI PUSH1 0x0 DUP1 REVERT JUMPDEST POP PUSH2 0xCC PUSH2 0x21E CALLDATASIZE PUSH1 0x4 PUSH2 0xF7D JUMP JUMPDEST PUSH2 0x7B1 JUMP JUMPDEST CALLVALUE DUP1 ISZERO PUSH2 0x22F JUMPI PUSH1 0x0 DUP1 REVERT JUMPDEST POP PUSH1 0x2 SLOAD PUSH2 0x243 SWAP1 PUSH1 0x1 PUSH1 0x1 PUSH1 0xA0 SHL SUB AND DUP2 JUMP JUMPDEST PUSH1 0x40 MLOAD PUSH1 0x1 PUSH1 0x1 PUSH1 0xA0 SHL SUB SWAP1 SWAP2 AND DUP2 MSTORE PUSH1 0x20 ADD PUSH2 0x15A JUMP JUMPDEST PUSH2 0xCC PUSH2 0x269 CALLDATASIZE PUSH1 0x4 PUSH2 0xE2E JUMP JUMPDEST PUSH2 0x9F7 JUMP JUMPDEST CALLVALUE DUP1 ISZERO PUSH2 0x27A JUMPI PUSH1 0x0 DUP1 REVERT JUMPDEST POP PUSH2 0xCC PUSH2 0x289 CALLDATASIZE PUSH1 0x4 PUSH2 0xE0A JUMP JUMPDEST PUSH2 0xB2C JUMP JUMPDEST CALLVALUE DUP1 ISZERO PUSH2 0x29A JUMPI PUSH1 0x0 DUP1 REVERT JUMPDEST POP PUSH2 0xCC PUSH2 0x2A9 CALLDATASIZE PUSH1 0x4 PUSH2 0xFAD JUMP JUMPDEST PUSH2 0xB93 JUMP JUMPDEST PUSH1 0x2 SLOAD PUSH1 0x1 PUSH1 0x1 PUSH1 0xA0 SHL SUB AND CALLER EQ PUSH2 0x2F9 JUMPI PUSH1 0x40 MLOAD PUSH3 0x461BCD PUSH1 0xE5 SHL DUP2 MSTORE PUSH1 0x20 PUSH1 0x4 DUP3 ADD MSTORE PUSH1 0x9 PUSH1 0x24 DUP3 ADD MSTORE PUSH9 0x2737BA1037BBB732B9 PUSH1 0xB9 SHL PUSH1 0x44 DUP3 ADD MSTORE PUSH1 0x64 ADD JUMPDEST PUSH1 0x40 MLOAD DUP1 SWAP2 SUB SWAP1 REVERT JUMPDEST PUSH1 0x1 PUSH1 0x1 PUSH1 0xA0 SHL SUB AND PUSH1 0x0 SWAP1 DUP2 MSTORE PUSH1 0x1 PUSH1 0x20 DUP2 SWAP1 MSTORE PUSH1 0x40 SWAP1 SWAP2 KECCAK256 DUP1 SLOAD PUSH1 0xFF NOT AND SWAP1 SWAP2 OR SWAP1 SSTORE JUMP JUMPDEST CALLER PUSH1 0x0 SWAP1 DUP2 MSTORE PUSH1 0x1 PUSH1 0x20 MSTORE PUSH1 0x40 SWAP1 KECCAK256 SLOAD PUSH1 0xFF AND DUP1 PUSH2 0x348 JUMPI POP PUSH1 0x2 SLOAD PUSH1 0x1 PUSH1 0x1 PUSH1 0xA0 SHL SUB AND CALLER EQ JUMPDEST PUSH2 0x364 JUMPI PUSH1 0x40 MLOAD PUSH3 0x461BCD PUSH1 0xE5 SHL DUP2 MSTORE PUSH1 0x4 ADD PUSH2 0x2F0 SWAP1 PUSH2 0x1003 JUMP JUMPDEST PUSH1 0x0 DUP2 DUP2 MSTORE PUSH1 0x20 DUP2 SWAP1 MSTORE PUSH1 0x40 SWAP1 KECCAK256 PUSH1 0x2 PUSH1 0x5 DUP3 ADD SLOAD PUSH1 0xFF AND PUSH1 0x3 DUP2 GT ISZERO PUSH2 0x38D JUMPI PUSH2 0x38D PUSH2 0xE47 JUMP JUMPDEST SUB PUSH2 0x3CD JUMPI PUSH1 0x40 MLOAD PUSH3 0x461BCD PUSH1 0xE5 SHL DUP2 MSTORE PUSH1 0x20 PUSH1 0x4 DUP3 ADD MSTORE PUSH1 0x10 PUSH1 0x24 DUP3 ADD MSTORE PUSH16 0x105B1C9958591E48195E1958DD5D1959 PUSH1 0x82 SHL PUSH1 0x44 DUP3 ADD MSTORE PUSH1 0x64 ADD PUSH2 0x2F0 JUMP JUMPDEST PUSH1 0x6 DUP2 ADD DUP1 SLOAD PUSH1 0x0 SWAP1 SWAP2 SSTORE PUSH1 0x5 DUP3 ADD DUP1 SLOAD PUSH1 0xFF NOT AND PUSH1 0x3 OR SWAP1 SSTORE DUP1 ISZERO PUSH2 0x484 JUMPI PUSH1 0x1 DUP3 ADD SLOAD PUSH1 0x40 MLOAD PUSH1 0x0 SWAP2 PUSH1 0x1 PUSH1 0x1 PUSH1 0xA0 SHL SUB AND SWAP1 DUP4 SWAP1 DUP4 DUP2 DUP2 DUP2 DUP6 DUP8 GAS CALL SWAP3 POP POP POP RETURNDATASIZE DUP1 PUSH1 0x0 DUP2 EQ PUSH2 0x43C JUMPI PUSH1 0x40 MLOAD SWAP2 POP PUSH1 0x1F NOT PUSH1 0x3F RETURNDATASIZE ADD AND DUP3 ADD PUSH1 0x40 MSTORE RETURNDATASIZE DUP3 MSTORE RETURNDATASIZE PUSH1 0x0 PUSH1 0x20 DUP5 ADD RETURNDATACOPY PUSH2 0x441 JUMP JUMPDEST PUSH1 0x60 SWAP2 POP JUMPDEST POP POP SWAP1 POP DUP1 PUSH2 0x482 JUMPI PUSH1 0x40 MLOAD PUSH3 0x461BCD PUSH1 0xE5 SHL DUP2 MSTORE PUSH1 0x20 PUSH1 0x4 DUP3 ADD MSTORE PUSH1 0xD PUSH1 0x24 DUP3 ADD MSTORE PUSH13 0x1499599D5B990819985A5B1959 PUSH1 0x9A SHL PUSH1 0x44 DUP3 ADD MSTORE PUSH1 0x64 ADD PUSH2 0x2F0 JUMP JUMPDEST POP JUMPDEST DUP3 PUSH32 0xF233010736B479389E8407578C649B70DCB06774C4D29149E88ED7016C8ADB0F DUP3 PUSH1 0x40 MLOAD PUSH2 0x4B6 SWAP2 DUP2 MSTORE PUSH1 0x20 ADD SWAP1 JUMP JUMPDEST PUSH1 0x40 MLOAD DUP1 SWAP2 SUB SWAP1 LOG2 POP POP POP JUMP JUMPDEST PUSH1 0x40 DUP1 MLOAD PUSH2 0x120 DUP1 DUP3 ADD DUP4 MSTORE PUSH1 0x0 DUP1 DUP4 MSTORE PUSH1 0x20 DUP1 DUP5 ADD DUP3 SWAP1 MSTORE DUP4 DUP6 ADD DUP3 SWAP1 MSTORE PUSH1 0x60 DUP1 DUP6 ADD DUP4 SWAP1 MSTORE PUSH1 0x80 DUP6 ADD DUP4 SWAP1 MSTORE PUSH1 0xA0 DUP6 ADD DUP4 SWAP1 MSTORE PUSH1 0xC0 DUP6 ADD DUP4 SWAP1 MSTORE PUSH1 0xE0 DUP6 ADD DUP4 SWAP1 MSTORE PUSH2 0x100 DUP6 ADD DUP4 SWAP1 MSTORE DUP7 DUP4 MSTORE DUP3 DUP3 MSTORE SWAP2 DUP6 SWAP1 KECCAK256 DUP6 MLOAD SWAP4 DUP5 ADD DUP7 MSTORE DUP1 SLOAD DUP5 MSTORE PUSH1 0x1 DUP2 ADD SLOAD PUSH1 0x1 PUSH1 0x1 PUSH1 0xA0 SHL SUB AND SWAP2 DUP5 ADD SWAP2 SWAP1 SWAP2 MSTORE PUSH1 0x2 DUP2 ADD SLOAD SWAP5 DUP4 ADD SWAP5 SWAP1 SWAP5 MSTORE PUSH1 0x3 DUP1 DUP6 ADD SLOAD SWAP4 SWAP5 SWAP3 SWAP4 SWAP2 DUP5 ADD SWAP2 PUSH1 0xFF AND SWAP1 DUP2 GT ISZERO PUSH2 0x565 JUMPI PUSH2 0x565 PUSH2 0xE47 JUMP JUMPDEST PUSH1 0x3 DUP2 GT ISZERO PUSH2 0x576 JUMPI PUSH2 0x576 PUSH2 0xE47 JUMP JUMPDEST DUP2 MSTORE PUSH1 0x4 DUP3 ADD SLOAD PUSH1 0x20 DUP3 ADD MSTORE PUSH1 0x5 DUP3 ADD SLOAD PUSH1 0x40 SWAP1 SWAP2 ADD SWAP1 PUSH1 0xFF AND PUSH1 0x3 DUP2 GT ISZERO PUSH2 0x5A1 JUMPI PUSH2 0x5A1 PUSH2 0xE47 JUMP JUMPDEST PUSH1 0x3 DUP2 GT ISZERO PUSH2 0x5B2 JUMPI PUSH2 0x5B2 PUSH2 0xE47 JUMP JUMPDEST DUP2 MSTORE PUSH1 0x6 DUP3 ADD SLOAD PUSH1 0x20 DUP3 ADD MSTORE PUSH1 0x7 DUP3 ADD SLOAD PUSH1 0x1 PUSH1 0x1 PUSH1 0xA0 SHL SUB AND PUSH1 0x40 DUP3 ADD MSTORE PUSH1 0x8 SWAP1 SWAP2 ADD SLOAD PUSH1 0x60 SWAP1 SWAP2 ADD MSTORE SWAP3 SWAP2 POP POP JUMP JUMPDEST CALLER PUSH1 0x0 SWAP1 DUP2 MSTORE PUSH1 0x1 PUSH1 0x20 MSTORE PUSH1 0x40 SWAP1 KECCAK256 SLOAD PUSH1 0xFF AND DUP1 PUSH2 0x60B JUMPI POP PUSH1 0x2 SLOAD PUSH1 0x1 PUSH1 0x1 PUSH1 0xA0 SHL SUB AND CALLER EQ JUMPDEST PUSH2 0x627 JUMPI PUSH1 0x40 MLOAD PUSH3 0x461BCD PUSH1 0xE5 SHL DUP2 MSTORE PUSH1 0x4 ADD PUSH2 0x2F0 SWAP1 PUSH2 0x1003 JUMP JUMPDEST PUSH1 0x0 DUP2 DUP2 MSTORE PUSH1 0x20 DUP2 SWAP1 MSTORE PUSH1 0x40 SWAP1 KECCAK256 DUP1 SLOAD PUSH2 0x678 JUMPI PUSH1 0x40 MLOAD PUSH3 0x461BCD PUSH1 0xE5 SHL DUP2 MSTORE PUSH1 0x20 PUSH1 0x4 DUP3 ADD MSTORE PUSH1 0x12 PUSH1 0x24 DUP3 ADD MSTORE PUSH18 0x141C9BDC1BDCD85B081B9BDD08199BDD5B99 PUSH1 0x72 SHL PUSH1 0x44 DUP3 ADD MSTORE PUSH1 0x64 ADD PUSH2 0x2F0 JUMP JUMPDEST PUSH1 0x0 PUSH1 0x5 DUP3 ADD SLOAD PUSH1 0xFF AND PUSH1 0x3 DUP2 GT ISZERO PUSH2 0x693 JUMPI PUSH2 0x693 PUSH2 0xE47 JUMP JUMPDEST EQ PUSH2 0x6D1 JUMPI PUSH1 0x40 MLOAD PUSH3 0x461BCD PUSH1 0xE5 SHL DUP2 MSTORE PUSH1 0x20 PUSH1 0x4 DUP3 ADD MSTORE PUSH1 0xE PUSH1 0x24 DUP3 ADD MSTORE PUSH14 0x496E76616C696420737461747573 PUSH1 0x90 SHL PUSH1 0x44 DUP3 ADD MSTORE PUSH1 0x64 ADD PUSH2 0x2F0 JUMP JUMPDEST DUP1 PUSH1 0x4 ADD SLOAD TIMESTAMP LT ISZERO PUSH2 0x718 JUMPI PUSH1 0x40 MLOAD PUSH3 0x461BCD PUSH1 0xE5 SHL DUP2 MSTORE PUSH1 0x20 PUSH1 0x4 DUP3 ADD MSTORE PUSH1 0x10 PUSH1 0x24 DUP3 ADD MSTORE PUSH16 0x159BDD1A5B99C81B9BDD08195B991959 PUSH1 0x82 SHL PUSH1 0x44 DUP3 ADD MSTORE PUSH1 0x64 ADD PUSH2 0x2F0 JUMP JUMPDEST DUP1 PUSH1 0x2 ADD SLOAD CALLVALUE LT ISZERO PUSH2 0x761 JUMPI PUSH1 0x40 MLOAD PUSH3 0x461BCD PUSH1 0xE5 SHL DUP2 MSTORE PUSH1 0x20 PUSH1 0x4 DUP3 ADD MSTORE PUSH1 0x12 PUSH1 0x24 DUP3 ADD MSTORE PUSH18 0x496E73756666696369656E742066756E6473 PUSH1 0x70 SHL PUSH1 0x44 DUP3 ADD MSTORE PUSH1 0x64 ADD PUSH2 0x2F0 JUMP JUMPDEST CALLVALUE PUSH1 0x6 DUP3 ADD DUP2 SWAP1 SSTORE PUSH1 0x5 DUP3 ADD DUP1 SLOAD PUSH1 0xFF NOT AND PUSH1 0x1 OR SWAP1 SSTORE PUSH1 0x40 MLOAD SWAP1 DUP2 MSTORE DUP3 SWAP1 PUSH32 0xE4CA6B67C60D054A7534EA716370D00F3E074E33FB008A92D45EBDB89CAEFCF0 SWAP1 PUSH1 0x20 ADD PUSH1 0x40 MLOAD DUP1 SWAP2 SUB SWAP1 LOG2 POP POP JUMP JUMPDEST CALLER PUSH1 0x0 SWAP1 DUP2 MSTORE PUSH1 0x1 PUSH1 0x20 MSTORE PUSH1 0x40 SWAP1 KECCAK256 SLOAD PUSH1 0xFF AND DUP1 PUSH2 0x7D9 JUMPI POP PUSH1 0x2 SLOAD PUSH1 0x1 PUSH1 0x1 PUSH1 0xA0 SHL SUB AND CALLER EQ JUMPDEST PUSH2 0x7F5 JUMPI PUSH1 0x40 MLOAD PUSH3 0x461BCD PUSH1 0xE5 SHL DUP2 MSTORE PUSH1 0x4 ADD PUSH2 0x2F0 SWAP1 PUSH2 0x1003 JUMP JUMPDEST PUSH1 0x0 DUP3 DUP2 MSTORE PUSH1 0x20 DUP2 SWAP1 MSTORE PUSH1 0x40 SWAP1 KECCAK256 PUSH1 0x1 PUSH1 0x5 DUP3 ADD SLOAD PUSH1 0xFF AND PUSH1 0x3 DUP2 GT ISZERO PUSH2 0x81E JUMPI PUSH2 0x81E PUSH2 0xE47 JUMP JUMPDEST EQ PUSH2 0x85E JUMPI PUSH1 0x40 MLOAD PUSH3 0x461BCD PUSH1 0xE5 SHL DUP2 MSTORE PUSH1 0x20 PUSH1 0x4 DUP3 ADD MSTORE PUSH1 0x10 PUSH1 0x24 DUP3 ADD MSTORE PUSH16 0x119D5B991CC81B9BDD081B1BD8DAD959 PUSH1 0x82 SHL PUSH1 0x44 DUP3 ADD MSTORE PUSH1 0x64 ADD PUSH2 0x2F0 JUMP JUMPDEST PUSH1 0x0 DUP2 PUSH1 0x6 ADD SLOAD GT PUSH2 0x8A8 JUMPI PUSH1 0x40 MLOAD PUSH3 0x461BCD PUSH1 0xE5 SHL DUP2 MSTORE PUSH1 0x20 PUSH1 0x4 DUP3 ADD MSTORE PUSH1 0x13 PUSH1 0x24 DUP3 ADD MSTORE PUSH19 0x4E6F2066756E647320746F2072656C65617365 PUSH1 0x68 SHL PUSH1 0x44 DUP3 ADD MSTORE PUSH1 0x64 ADD PUSH2 0x2F0 JUMP JUMPDEST PUSH1 0x6 DUP2 ADD DUP1 SLOAD PUSH1 0x0 SWAP2 DUP3 SWAP1 SSTORE PUSH1 0x7 DUP4 ADD DUP1 SLOAD PUSH1 0x1 PUSH1 0x1 PUSH1 0xA0 SHL SUB DUP7 AND PUSH1 0x1 PUSH1 0x1 PUSH1 0xA0 SHL SUB NOT SWAP1 SWAP2 AND DUP2 OR SWAP1 SWAP2 SSTORE PUSH1 0x5 DUP5 ADD DUP1 SLOAD PUSH1 0xFF NOT AND PUSH1 0x2 OR SWAP1 SSTORE TIMESTAMP PUSH1 0x8 DUP6 ADD SSTORE PUSH1 0x40 MLOAD SWAP2 SWAP3 SWAP2 DUP4 SWAP1 DUP4 DUP2 DUP2 DUP2 DUP6 DUP8 GAS CALL SWAP3 POP POP POP RETURNDATASIZE DUP1 PUSH1 0x0 DUP2 EQ PUSH2 0x92A JUMPI PUSH1 0x40 MLOAD SWAP2 POP PUSH1 0x1F NOT PUSH1 0x3F RETURNDATASIZE ADD AND DUP3 ADD PUSH1 0x40 MSTORE RETURNDATASIZE DUP3 MSTORE RETURNDATASIZE PUSH1 0x0 PUSH1 0x20 DUP5 ADD RETURNDATACOPY PUSH2 0x92F JUMP JUMPDEST PUSH1 0x60 SWAP2 POP JUMPDEST POP POP SWAP1 POP DUP1 PUSH2 0x972 JUMPI PUSH1 0x40 MLOAD PUSH3 0x461BCD PUSH1 0xE5 SHL DUP2 MSTORE PUSH1 0x20 PUSH1 0x4 DUP3 ADD MSTORE PUSH1 0xF PUSH1 0x24 DUP3 ADD MSTORE PUSH15 0x151C985B9CD9995C8819985A5B1959 PUSH1 0x8A SHL PUSH1 0x44 DUP3 ADD MSTORE PUSH1 0x64 ADD PUSH2 0x2F0 JUMP JUMPDEST PUSH1 0x40 DUP1 MLOAD PUSH1 0x1 PUSH1 0x1 PUSH1 0xA0 SHL SUB DUP7 AND DUP2 MSTORE PUSH1 0x20 DUP2 ADD DUP5 SWAP1 MSTORE DUP7 SWAP2 PUSH32 0x75D86E5BFA1175E2DC677F3ABE3AEBBA3069F2DB6AE492F1734D4B4BC65F61C1 SWAP2 ADD PUSH1 0x40 MLOAD DUP1 SWAP2 SUB SWAP1 LOG2 DUP5 PUSH32 0x120985525CFB78F6C03F96986F9687F49CAF81E29350D21FA052E8C0DF211EBB DUP4 PUSH1 0x40 MLOAD PUSH2 0x9E8 SWAP2 DUP2 MSTORE PUSH1 0x20 ADD SWAP1 JUMP JUMPDEST PUSH1 0x40 MLOAD DUP1 SWAP2 SUB SWAP1 LOG2 POP POP POP POP POP JUMP JUMPDEST CALLER PUSH1 0x0 SWAP1 DUP2 MSTORE PUSH1 0x1 PUSH1 0x20 MSTORE PUSH1 0x40 SWAP1 KECCAK256 SLOAD PUSH1 0xFF AND DUP1 PUSH2 0xA1F JUMPI POP PUSH1 0x2 SLOAD PUSH1 0x1 PUSH1 0x1 PUSH1 0xA0 SHL SUB AND CALLER EQ JUMPDEST PUSH2 0xA3B JUMPI PUSH1 0x40 MLOAD PUSH3 0x461BCD PUSH1 0xE5 SHL DUP2 MSTORE PUSH1 0x4 ADD PUSH2 0x2F0 SWAP1 PUSH2 0x1003 JUMP JUMPDEST PUSH1 0x0 DUP2 DUP2 MSTORE PUSH1 0x20 DUP2 SWAP1 MSTORE PUSH1 0x40 SWAP1 KECCAK256 DUP1 SLOAD PUSH2 0xA8C JUMPI PUSH1 0x40 MLOAD PUSH3 0x461BCD PUSH1 0xE5 SHL DUP2 MSTORE PUSH1 0x20 PUSH1 0x4 DUP3 ADD MSTORE PUSH1 0x12 PUSH1 0x24 DUP3 ADD MSTORE PUSH18 0x141C9BDC1BDCD85B081B9BDD08199BDD5B99 PUSH1 0x72 SHL PUSH1 0x44 DUP3 ADD MSTORE PUSH1 0x64 ADD PUSH2 0x2F0 JUMP JUMPDEST PUSH1 0x0 PUSH1 0x5 DUP3 ADD SLOAD PUSH1 0xFF AND PUSH1 0x3 DUP2 GT ISZERO PUSH2 0xAA7 JUMPI PUSH2 0xAA7 PUSH2 0xE47 JUMP JUMPDEST EQ PUSH2 0xAE5 JUMPI PUSH1 0x40 MLOAD PUSH3 0x461BCD PUSH1 0xE5 SHL DUP2 MSTORE PUSH1 0x20 PUSH1 0x4 DUP3 ADD MSTORE PUSH1 0xE PUSH1 0x24 DUP3 ADD MSTORE PUSH14 0x496E76616C696420737461747573 PUSH1 0x90 SHL PUSH1 0x44 DUP3 ADD MSTORE PUSH1 0x64 ADD PUSH2 0x2F0 JUMP JUMPDEST DUP1 PUSH1 0x4 ADD SLOAD TIMESTAMP LT ISZERO PUSH2 0x761 JUMPI PUSH1 0x40 MLOAD PUSH3 0x461BCD PUSH1 0xE5 SHL DUP2 MSTORE PUSH1 0x20 PUSH1 0x4 DUP3 ADD MSTORE PUSH1 0x10 PUSH1 0x24 DUP3 ADD MSTORE PUSH16 0x159BDD1A5B99C81B9BDD08195B991959 PUSH1 0x82 SHL PUSH1 0x44 DUP3 ADD MSTORE PUSH1 0x64 ADD PUSH2 0x2F0 JUMP JUMPDEST PUSH1 0x2 SLOAD PUSH1 0x1 PUSH1 0x1 PUSH1 0xA0 SHL SUB AND CALLER EQ PUSH2 0xB72 JUMPI PUSH1 0x40 MLOAD PUSH3 0x461BCD PUSH1 0xE5 SHL DUP2 MSTORE PUSH1 0x20 PUSH1 0x4 DUP3 ADD MSTORE PUSH1 0x9 PUSH1 0x24 DUP3 ADD MSTORE PUSH9 0x2737BA1037BBB732B9 PUSH1 0xB9 SHL PUSH1 0x44 DUP3 ADD MSTORE PUSH1 0x64 ADD PUSH2 0x2F0 JUMP JUMPDEST PUSH1 0x1 PUSH1 0x1 PUSH1 0xA0 SHL SUB AND PUSH1 0x0 SWAP1 DUP2 MSTORE PUSH1 0x1 PUSH1 0x20 MSTORE PUSH1 0x40 SWAP1 KECCAK256 DUP1 SLOAD PUSH1 0xFF NOT AND SWAP1 SSTORE JUMP JUMPDEST CALLER PUSH1 0x0 SWAP1 DUP2 MSTORE PUSH1 0x1 PUSH1 0x20 MSTORE PUSH1 0x40 SWAP1 KECCAK256 SLOAD PUSH1 0xFF AND DUP1 PUSH2 0xBBB JUMPI POP PUSH1 0x2 SLOAD PUSH1 0x1 PUSH1 0x1 PUSH1 0xA0 SHL SUB AND CALLER EQ JUMPDEST PUSH2 0xBD7 JUMPI PUSH1 0x40 MLOAD PUSH3 0x461BCD PUSH1 0xE5 SHL DUP2 MSTORE PUSH1 0x4 ADD PUSH2 0x2F0 SWAP1 PUSH2 0x1003 JUMP JUMPDEST PUSH1 0x0 DUP6 DUP2 MSTORE PUSH1 0x20 DUP2 SWAP1 MSTORE PUSH1 0x40 SWAP1 KECCAK256 SLOAD ISZERO PUSH2 0xC33 JUMPI PUSH1 0x40 MLOAD PUSH3 0x461BCD PUSH1 0xE5 SHL DUP2 MSTORE PUSH1 0x20 PUSH1 0x4 DUP3 ADD MSTORE PUSH1 0x17 PUSH1 0x24 DUP3 ADD MSTORE PUSH32 0x50726F706F73616C20616C726561647920657869737473000000000000000000 PUSH1 0x44 DUP3 ADD MSTORE PUSH1 0x64 ADD PUSH2 0x2F0 JUMP JUMPDEST TIMESTAMP DUP2 GT PUSH2 0xC82 JUMPI PUSH1 0x40 MLOAD PUSH3 0x461BCD PUSH1 0xE5 SHL DUP2 MSTORE PUSH1 0x20 PUSH1 0x4 DUP3 ADD MSTORE PUSH1 0x17 PUSH1 0x24 DUP3 ADD MSTORE PUSH32 0x496E76616C696420766F74696E6720656E642074696D65000000000000000000 PUSH1 0x44 DUP3 ADD MSTORE PUSH1 0x64 ADD PUSH2 0x2F0 JUMP JUMPDEST PUSH1 0x40 MLOAD DUP1 PUSH2 0x120 ADD PUSH1 0x40 MSTORE DUP1 DUP7 DUP2 MSTORE PUSH1 0x20 ADD DUP6 PUSH1 0x1 PUSH1 0x1 PUSH1 0xA0 SHL SUB AND DUP2 MSTORE PUSH1 0x20 ADD DUP5 DUP2 MSTORE PUSH1 0x20 ADD DUP4 PUSH1 0x3 DUP2 GT ISZERO PUSH2 0xCBB JUMPI PUSH2 0xCBB PUSH2 0xE47 JUMP JUMPDEST DUP2 MSTORE PUSH1 0x20 DUP2 ADD DUP4 SWAP1 MSTORE PUSH1 0x40 ADD PUSH1 0x0 DUP2 MSTORE PUSH1 0x0 PUSH1 0x20 DUP1 DUP4 ADD DUP3 SWAP1 MSTORE PUSH1 0x40 DUP1 DUP5 ADD DUP4 SWAP1 MSTORE PUSH1 0x60 SWAP4 DUP5 ADD DUP4 SWAP1 MSTORE DUP10 DUP4 MSTORE DUP3 DUP3 MSTORE SWAP2 DUP3 SWAP1 KECCAK256 DUP5 MLOAD DUP2 SSTORE SWAP1 DUP5 ADD MLOAD PUSH1 0x1 DUP1 DUP4 ADD DUP1 SLOAD PUSH1 0x1 PUSH1 0x1 PUSH1 0xA0 SHL SUB NOT AND PUSH1 0x1 PUSH1 0x1 PUSH1 0xA0 SHL SUB SWAP1 SWAP4 AND SWAP3 SWAP1 SWAP3 OR SWAP1 SWAP2 SSTORE SWAP2 DUP5 ADD MLOAD PUSH1 0x2 DUP3 ADD SSTORE SWAP2 DUP4 ADD MLOAD PUSH1 0x3 DUP1 DUP5 ADD DUP1 SLOAD SWAP3 SWAP4 SWAP1 SWAP3 PUSH1 0xFF NOT AND SWAP2 DUP5 SWAP1 DUP2 GT ISZERO PUSH2 0xD48 JUMPI PUSH2 0xD48 PUSH2 0xE47 JUMP JUMPDEST MUL OR SWAP1 SSTORE POP PUSH1 0x80 DUP3 ADD MLOAD PUSH1 0x4 DUP3 ADD SSTORE PUSH1 0xA0 DUP3 ADD MLOAD PUSH1 0x5 DUP3 ADD DUP1 SLOAD PUSH1 0xFF NOT AND PUSH1 0x1 DUP4 PUSH1 0x3 DUP2 GT ISZERO PUSH2 0xD7A JUMPI PUSH2 0xD7A PUSH2 0xE47 JUMP JUMPDEST MUL OR SWAP1 SSTORE POP PUSH1 0xC0 DUP3 ADD MLOAD PUSH1 0x6 DUP3 ADD SSTORE PUSH1 0xE0 DUP3 ADD MLOAD PUSH1 0x7 DUP3 ADD DUP1 SLOAD PUSH1 0x1 PUSH1 0x1 PUSH1 0xA0 SHL SUB NOT AND PUSH1 0x1 PUSH1 0x1 PUSH1 0xA0 SHL SUB SWAP1 SWAP3 AND SWAP2 SWAP1 SWAP2 OR SWAP1 SSTORE PUSH2 0x100 SWAP1 SWAP2 ADD MLOAD PUSH1 0x8 SWAP1 SWAP2 ADD SSTORE PUSH1 0x40 MLOAD DUP6 SWAP1 PUSH32 0xF718D0F627D42E73BABC06DE985462CB63FB0B368DB0E486F1BC26F7241FFAFA SWAP1 PUSH2 0x9E8 SWAP1 DUP8 SWAP1 DUP8 SWAP1 DUP8 SWAP1 PUSH2 0x102B JUMP JUMPDEST PUSH1 0x1 PUSH1 0x1 PUSH1 0xA0 SHL SUB DUP2 AND DUP2 EQ PUSH2 0xE07 JUMPI PUSH1 0x0 DUP1 REVERT JUMPDEST POP JUMP JUMPDEST PUSH1 0x0 PUSH1 0x20 DUP3 DUP5 SUB SLT ISZERO PUSH2 0xE1C JUMPI PUSH1 0x0 DUP1 REVERT JUMPDEST DUP2 CALLDATALOAD PUSH2 0xE27 DUP2 PUSH2 0xDF2 JUMP JUMPDEST SWAP4 SWAP3 POP POP POP JUMP JUMPDEST PUSH1 0x0 PUSH1 0x20 DUP3 DUP5 SUB SLT ISZERO PUSH2 0xE40 JUMPI PUSH1 0x0 DUP1 REVERT JUMPDEST POP CALLDATALOAD SWAP2 SWAP1 POP JUMP JUMPDEST PUSH4 0x4E487B71 PUSH1 0xE0 SHL PUSH1 0x0 MSTORE PUSH1 0x21 PUSH1 0x4 MSTORE PUSH1 0x24 PUSH1 0x0 REVERT JUMPDEST PUSH1 0x4 DUP2 LT PUSH2 0xE07 JUMPI PUSH4 0x4E487B71 PUSH1 0xE0 SHL PUSH1 0x0 MSTORE PUSH1 0x21 PUSH1 0x4 MSTORE PUSH1 0x24 PUSH1 0x0 REVERT JUMPDEST PUSH2 0xE84 DUP2 PUSH2 0xE5D JUMP JUMPDEST SWAP1 MSTORE JUMP JUMPDEST DUP10 DUP2 MSTORE PUSH1 0x1 PUSH1 0x1 PUSH1 0xA0 SHL SUB DUP10 DUP2 AND PUSH1 0x20 DUP4 ADD MSTORE PUSH1 0x40 DUP3 ADD DUP10 SWAP1 MSTORE PUSH2 0x120 DUP3 ADD SWAP1 PUSH2 0xEB1 DUP10 PUSH2 0xE5D JUMP JUMPDEST DUP9 PUSH1 0x60 DUP5 ADD MSTORE DUP8 PUSH1 0x80 DUP5 ADD MSTORE PUSH2 0xEC6 DUP8 PUSH2 0xE5D JUMP JUMPDEST DUP7 PUSH1 0xA0 DUP5 ADD MSTORE DUP6 PUSH1 0xC0 DUP5 ADD MSTORE DUP1 DUP6 AND PUSH1 0xE0 DUP5 ADD MSTORE POP DUP3 PUSH2 0x100 DUP4 ADD MSTORE SWAP11 SWAP10 POP POP POP POP POP POP POP POP POP POP JUMP JUMPDEST DUP2 MLOAD DUP2 MSTORE PUSH1 0x20 DUP1 DUP4 ADD MLOAD PUSH1 0x1 PUSH1 0x1 PUSH1 0xA0 SHL SUB AND SWAP1 DUP3 ADD MSTORE PUSH1 0x40 DUP1 DUP4 ADD MLOAD SWAP1 DUP3 ADD MSTORE PUSH1 0x60 DUP3 ADD MLOAD PUSH2 0x120 DUP3 ADD SWAP1 PUSH2 0xF25 DUP2 PUSH2 0xE5D JUMP JUMPDEST DUP1 PUSH1 0x60 DUP5 ADD MSTORE POP PUSH1 0x80 DUP4 ADD MLOAD PUSH1 0x80 DUP4 ADD MSTORE PUSH1 0xA0 DUP4 ADD MLOAD PUSH2 0xF48 PUSH1 0xA0 DUP5 ADD DUP3 PUSH2 0xE7B JUMP JUMPDEST POP PUSH1 0xC0 DUP4 ADD MLOAD PUSH1 0xC0 DUP4 ADD MSTORE PUSH1 0xE0 DUP4 ADD MLOAD PUSH2 0xF6D PUSH1 0xE0 DUP5 ADD DUP3 PUSH1 0x1 PUSH1 0x1 PUSH1 0xA0 SHL SUB AND SWAP1 MSTORE JUMP JUMPDEST POP PUSH2 0x100 SWAP3 DUP4 ADD MLOAD SWAP2 SWAP1 SWAP3 ADD MSTORE SWAP1 JUMP JUMPDEST PUSH1 0x0 DUP1 PUSH1 0x40 DUP4 DUP6 SUB SLT ISZERO PUSH2 0xF90 JUMPI PUSH1 0x0 DUP1 REVERT JUMPDEST DUP3 CALLDATALOAD SWAP2 POP PUSH1 0x20 DUP4 ADD CALLDATALOAD PUSH2 0xFA2 DUP2 PUSH2 0xDF2 JUMP JUMPDEST DUP1 SWAP2 POP POP SWAP3 POP SWAP3 SWAP1 POP JUMP JUMPDEST PUSH1 0x0 DUP1 PUSH1 0x0 DUP1 PUSH1 0x0 PUSH1 0xA0 DUP7 DUP9 SUB SLT ISZERO PUSH2 0xFC5 JUMPI PUSH1 0x0 DUP1 REVERT JUMPDEST DUP6 CALLDATALOAD SWAP5 POP PUSH1 0x20 DUP7 ADD CALLDATALOAD PUSH2 0xFD7 DUP2 PUSH2 0xDF2 JUMP JUMPDEST SWAP4 POP PUSH1 0x40 DUP7 ADD CALLDATALOAD SWAP3 POP PUSH1 0x60 DUP7 ADD CALLDATALOAD PUSH1 0x4 DUP2 LT PUSH2 0xFF2 JUMPI PUSH1 0x0 DUP1 REVERT JUMPDEST SWAP5 SWAP8 SWAP4 SWAP7 POP SWAP2 SWAP5 PUSH1 0x80 ADD CALLDATALOAD SWAP3 SWAP2 POP POP JUMP JUMPDEST PUSH1 0x20 DUP1 DUP3 MSTORE PUSH1 0xE SWAP1 DUP3 ADD MSTORE PUSH14 0x139BDD08185D5D1A1BDC9A5E9959 PUSH1 0x92 SHL PUSH1 0x40 DUP3 ADD MSTORE PUSH1 0x60 ADD SWAP1 JUMP JUMPDEST PUSH1 0x1 PUSH1 0x1 PUSH1 0xA0 SHL SUB DUP5 AND DUP2 MSTORE PUSH1 0x20 DUP2 ADD DUP4 SWAP1 MSTORE PUSH1 0x60 DUP2 ADD PUSH2 0x104B DUP4 PUSH2 0xE5D JUMP JUMPDEST DUP3 PUSH1 0x40 DUP4 ADD MSTORE SWAP5 SWAP4 POP POP POP POP JUMP INVALID LOG2 PUSH5 0x6970667358 0x22 SLT KECCAK256 ORIGIN PUSH20 0xE4642FC3B1115BDF05323A330BFF6D83E8CED66F PUSH21 0x5338F03004CFB6EDA764736F6C6343000814003300 "},"methodIdentifiers":{"addAuthorizedCaller(address)":"13a155ea","authorizedCallers(address)":"536fff6c","cancelProposal(bytes32)":"37376ca8","executeProposal(bytes32)":"980ff6c6","getProposal(bytes32)":"430694cf","lockFundsForProposal(bytes32)":"635e3347","owner()":"8da5cb5b","proposals(bytes32)":"32ed5b12","registerProposal(bytes32,address,uint256,uint8,uint256)":"de52c07d","releaseFunds(bytes32,address)":"7d25e89d","removeAuthorizedCaller(address)":"b7aa0231"}}}}}