{"solidity/MultiSigTreasury.sol":{"MultiSigTreasury":{"abi":[{"inputs":[{"internalType":"address[]","name":"_signers","type":"address[]"},{"internalType":"uint256","name":"_requiredApprovals","type":"uint256"},{"internalType":"address","name":"_propertyOwner","type":"address"}],"stateMutability":"nonpayable","type":"constructor"},{"anonymous":false,"inputs":[{"indexed":true,"internalType":"address","name":"sender","type":"address"},{"indexed":false,"internalType":"uint256","name":"amount","type":"uint256"}],"name":"FundsDeposited","type":"event"},{"anonymous":false,"inputs":[{"indexed":true,"internalType":"address","name":"signer","type":"address"}],"name":"SignerAdded","type":"event"},{"anonymous":false,"inputs":[{"indexed":true,"internalType":"address","name":"signer","type":"address"}],"name":"SignerRemoved","type":"event"},{"anonymous":false,"inputs":[{"indexed":false,"internalType":"uint256","name":"newThreshold","type":"uint256"}],"name":"ThresholdUpdated","type":"event"},{"anonymous":false,"inputs":[{"indexed":true,"internalType":"uint256","name":"requestId","type":"uint256"},{"indexed":true,"internalType":"address","name":"approver","type":"address"}],"name":"WithdrawalApproved","type":"event"},{"anonymous":false,"inputs":[{"indexed":true,"internalType":"uint256","name":"requestId","type":"uint256"}],"name":"WithdrawalCancelled","type":"event"},{"anonymous":false,"inputs":[{"indexed":true,"internalType":"uint256","name":"requestId","type":"uint256"},{"indexed":false,"internalType":"uint256","name":"amount","type":"uint256"}],"name":"WithdrawalExecuted","type":"event"},{"anonymous":false,"inputs":[{"indexed":true,"internalType":"uint256","name":"requestId","type":"uint256"},{"indexed":true,"internalType":"address","name":"recipient","type":"address"},{"indexed":false,"internalType":"uint256","name":"amount","type":"uint256"},{"indexed":false,"internalType":"string","name":"reason","type":"string"}],"name":"WithdrawalSubmitted","type":"event"},{"inputs":[{"internalType":"address","name":"signer","type":"address"}],"name":"addSigner","outputs":[],"stateMutability":"nonpayable","type":"function"},{"inputs":[{"internalType":"uint256","name":"requestId","type":"uint256"}],"name":"approveWithdrawal","outputs":[],"stateMutability":"nonpayable","type":"function"},{"inputs":[{"internalType":"uint256","name":"requestId","type":"uint256"}],"name":"cancelWithdrawal","outputs":[],"stateMutability":"nonpayable","type":"function"},{"inputs":[],"name":"deposit","outputs":[],"stateMutability":"payable","type":"function"},{"inputs":[{"internalType":"uint256","name":"requestId","type":"uint256"}],"name":"executeWithdrawal","outputs":[],"stateMutability":"nonpayable","type":"function"},{"inputs":[],"name":"getBalance","outputs":[{"internalType":"uint256","name":"","type":"uint256"}],"stateMutability":"view","type":"function"},{"inputs":[],"name":"getSigners","outputs":[{"internalType":"address[]","name":"","type":"address[]"}],"stateMutability":"view","type":"function"},{"inputs":[{"internalType":"uint256","name":"requestId","type":"uint256"}],"name":"getWithdrawalRequest","outputs":[{"internalType":"uint256","name":"amount","type":"uint256"},{"internalType":"address","name":"recipient","type":"address"},{"internalType":"string","name":"reason","type":"string"},{"internalType":"address","name":"requester","type":"address"},{"internalType":"uint256","name":"approvalCount","type":"uint256"},{"internalType":"uint256","name":"createdAt","type":"uint256"},{"internalType":"bool","name":"executed","type":"bool"},{"internalType":"bool","name":"cancelled","type":"bool"}],"stateMutability":"view","type":"function"},{"inputs":[{"internalType":"uint256","name":"requestId","type":"uint256"},{"internalType":"address","name":"signer","type":"address"}],"name":"hasApproved","outputs":[{"internalType":"bool","name":"","type":"bool"}],"stateMutability":"view","type":"function"},{"inputs":[],"name":"nextRequestId","outputs":[{"internalType":"uint256","name":"","type":"uint256"}],"stateMutability":"view","type":"function"},{"inputs":[],"name":"propertyOwner","outputs":[{"internalType":"address","name":"","type":"address"}],"stateMutability":"view","type":"function"},{"inputs":[{"internalType":"address","name":"signer","type":"address"}],"name":"removeSigner","outputs":[],"stateMutability":"nonpayable","type":"function"},{"inputs":[],"name":"requiredApprovals","outputs":[{"internalType":"uint256","name":"","type":"uint256"}],"stateMutability":"view","type":"function"},{"inputs":[{"internalType":"uint256","name":"","type":"uint256"}],"name":"signerList","outputs":[{"internalType":"address","name":"","type":"address"}],"stateMutability":"view","type":"function"},{"inputs":[{"internalType":"address","name":"","type":"address"}],"name":"signers","outputs":[{"internalType":"bool","name":"","type":"bool"}],"stateMutability":"view","type":"function"},{"inputs":[{"internalType":"uint256","name":"amount","type":"uint256"},{"internalType":"address payable","name":"recipient","type":"address"},{"internalType":"string","name":"reason","type":"string"}],"name":"submitWithdrawal","outputs":[{"internalType":"uint256","name":"requestId","type":"uint256"}],"stateMutability":"nonpayable","type":"function"},{"inputs":[{"internalType":"uint256","name":"newThreshold","type":"uint256"}],"name":"updateThreshold","outputs":[],"stateMutability":"nonpayable","type":"function"},{"inputs":[{"internalType":"uint256","name":"","type":"uint256"}],"name":"withdrawalRequests","outputs":[{"internalType":"uint256","name":"requestId","type":"uint256"},{"internalType":"uint256","name":"amount","type":"uint256"},{"internalType":"address payable","name":"recipient","type":"address"},{"internalType":"string","name":"reason","type":"string"},{"internalType":"address","name":"requester","type":"address"},{"internalType":"uint256","name":"approvalCount","type":"uint256"},{"internalType":"uint256","name":"createdAt","type":"uint256"},{"internalType":"bool","name":"executed","type":"bool"},{"internalType":"bool","name":"cancelled","type":"bool"}],"stateMutability":"view","type":"function"},{"stateMutability":"payable","type":"receive"}],"evm":{"bytecode":{"linkReferences":{},"object":"60806040523480156200001157600080fd5b5060405162001c2738038062001c278339810160408190526200003491620002b4565b81835110156200007f5760405162461bcd60e51b8152602060048201526011602482015270125b9d985b1a59081d1a1c995cda1bdb19607a1b60448201526064015b60405180910390fd5b60008211620000d15760405162461bcd60e51b815260206004820152601560248201527f5468726573686f6c64206d757374206265203e20300000000000000000000000604482015260640162000076565b600580546001600160a01b0319166001600160a01b038316179055600382905560005b835181101562000271576000848281518110620001155762000115620003a4565b6020026020010151905060006001600160a01b0316816001600160a01b031603620001745760405162461bcd60e51b815260206004820152600e60248201526d24b73b30b634b21039b4b3b732b960911b604482015260640162000076565b6001600160a01b03811660009081526001602052604090205460ff1615620001d25760405162461bcd60e51b815260206004820152601060248201526f223ab83634b1b0ba329039b4b3b732b960811b604482015260640162000076565b6001600160a01b0381166000818152600160208190526040808320805460ff19168317905560028054928301815583527f405787fa12a823e0f2b7631cc41b3ba8828b3321ca811111fa75cd3aa3bb5ace90910180546001600160a01b03191684179055517f47d1c22a25bb3a5d4e481b9b1e6944c2eade3181a0a20b495ed61d35b5323f249190a250806200026881620003ba565b915050620000f4565b5050600160045550620003e29050565b634e487b7160e01b600052604160045260246000fd5b80516001600160a01b0381168114620002af57600080fd5b919050565b600080600060608486031215620002ca57600080fd5b83516001600160401b0380821115620002e257600080fd5b818601915086601f830112620002f757600080fd5b81516020828211156200030e576200030e62000281565b8160051b604051601f19603f8301168101818110868211171562000336576200033662000281565b60405292835281830193508481018201928a8411156200035557600080fd5b948201945b838610156200037e576200036e8662000297565b855294820194938201936200035a565b8098505050808801519550505050506200039b6040850162000297565b90509250925092565b634e487b7160e01b600052603260045260246000fd5b600060018201620003db57634e487b7160e01b600052601160045260246000fd5b5060010190565b61183580620003f26000396000f3fe60806040526004361061010d5760003560e01c8063937b258111610095578063ae48565111610064578063ae4856511461032d578063d0e30db014610361578063d7d7442f14610369578063eb12d61e14610389578063f446c38f146103a957600080fd5b8063937b2581146102a057806394cf795e146102d557806399c1aadc146102f75780639eceddea1461030d57600080fd5b80633efcfda4116100dc5780633efcfda4146101e2578063577ed7e1146102025780636a6ea91b1461023a5780636a84a9851461025a578063736c0d5b1461027057600080fd5b80630e316ab71461014e57806312065fe0146101705780632358d5a81461019257806324f13a76146101c257600080fd5b366101495760405134815233907f543ba50a5eec5e6178218e364b1d0f396157b3c8fa278522c2cb7fd99407d4749060200160405180910390a2005b600080fd5b34801561015a57600080fd5b5061016e610169366004611312565b6103c9565b005b34801561017c57600080fd5b50475b6040519081526020015b60405180910390f35b34801561019e57600080fd5b506101b26101ad366004611336565b6105f1565b6040519015158152602001610189565b3480156101ce57600080fd5b5061016e6101dd366004611366565b61061f565b3480156101ee57600080fd5b5061016e6101fd366004611366565b6106b8565b34801561020e57600080fd5b5061022261021d366004611366565b61084f565b6040516001600160a01b039091168152602001610189565b34801561024657600080fd5b5061017f610255366004611395565b610879565b34801561026657600080fd5b5061017f60045481565b34801561027c57600080fd5b506101b261028b366004611312565b60016020526000908152604090205460ff1681565b3480156102ac57600080fd5b506102c06102bb366004611366565b610a56565b604051610189999897969594939291906114a8565b3480156102e157600080fd5b506102ea610b42565b604051610189919061150c565b34801561030357600080fd5b5061017f60035481565b34801561031957600080fd5b5061016e610328366004611366565b610ba4565b34801561033957600080fd5b5061034d610348366004611366565b610d62565b604051610189989796959493929190611559565b61016e610e70565b34801561037557600080fd5b5061016e610384366004611366565b610ee7565b34801561039557600080fd5b5061016e6103a4366004611312565b610fe6565b3480156103b557600080fd5b50600554610222906001600160a01b031681565b6005546001600160a01b031633146103fc5760405162461bcd60e51b81526004016103f3906115b4565b60405180910390fd5b6001600160a01b03811660009081526001602052604090205460ff166104345760405162461bcd60e51b81526004016103f3906115d7565b600354600254116104935760405162461bcd60e51b8152602060048201526024808201527f43616e6e6f742072656d6f76652c20776f756c6420627265616b2074687265736044820152631a1bdb1960e21b60648201526084016103f3565b6001600160a01b0381166000908152600160205260408120805460ff191690555b6002548110156105b957816001600160a01b0316600282815481106104db576104db6115fd565b6000918252602090912001546001600160a01b0316036105a7576002805461050590600190611629565b81548110610515576105156115fd565b600091825260209091200154600280546001600160a01b039092169183908110610541576105416115fd565b9060005260206000200160006101000a8154816001600160a01b0302191690836001600160a01b0316021790555060028054806105805761058061163c565b600082815260209020810160001990810180546001600160a01b03191690550190556105b9565b806105b181611652565b9150506104b4565b506040516001600160a01b038216907f3525e22824a8a7df2c9a6029941c824cf95b6447f1e13d5128fd3826d35afe8b90600090a250565b6000828152602081815260408083206001600160a01b038516845260080190915290205460ff165b92915050565b3360009081526001602052604090205460ff1661064e5760405162461bcd60e51b81526004016103f3906115d7565b6000818152602081905260409020600354600582015410156106ab5760405162461bcd60e51b8152602060048201526016602482015275496e73756666696369656e7420617070726f76616c7360501b60448201526064016103f3565b6106b48261113f565b5050565b3360009081526001602052604090205460ff166106e75760405162461bcd60e51b81526004016103f3906115d7565b6000818152602081905260408120805490910361073a5760405162461bcd60e51b815260206004820152601160248201527014995c5d595cdd081b9bdd08199bdd5b99607a1b60448201526064016103f3565b600781015460ff161561075f5760405162461bcd60e51b81526004016103f39061166b565b6007810154610100900460ff16156107ad5760405162461bcd60e51b8152602060048201526011602482015270105b1c9958591e4818d85b98d95b1b1959607a1b60448201526064016103f3565b60048101546001600160a01b03163314806107d257506005546001600160a01b031633145b61080f5760405162461bcd60e51b815260206004820152600e60248201526d139bdd08185d5d1a1bdc9a5e995960921b60448201526064016103f3565b60078101805461ff00191661010017905560405182907fe8de1e631ea541ac8e6cb398aafb71b991eb58d489298f7bc93ba7e17fa2042b90600090a25050565b6002818154811061085f57600080fd5b6000918252602090912001546001600160a01b0316905081565b3360009081526001602052604081205460ff166108a85760405162461bcd60e51b81526004016103f3906115d7565b600084116108ed5760405162461bcd60e51b81526020600482015260126024820152710416d6f756e74206d757374206265203e20360741b60448201526064016103f3565b6001600160a01b0383166109375760405162461bcd60e51b8152602060048201526011602482015270125b9d985b1a59081c9958da5c1a595b9d607a1b60448201526064016103f3565b8347101561097e5760405162461bcd60e51b8152602060048201526014602482015273496e73756666696369656e742062616c616e636560601b60448201526064016103f3565b6004805490600061098e83611652565b909155506000818152602081905260409020818155600181018690556002810180546001600160a01b0319166001600160a01b038716179055909150600381016109d8848261171e565b506004810180546001600160a01b031916331790556000600582015542600682015560078101805461ffff191690556040516001600160a01b0385169083907f74277e6840cdadb4ecca502efb6aab5fa703592fb13f9b2f94188aa905cc637e90610a4690899088906117de565b60405180910390a3509392505050565b6000602081905290815260409020805460018201546002830154600384018054939492936001600160a01b039092169291610a9090611695565b80601f0160208091040260200160405190810160405280929190818152602001828054610abc90611695565b8015610b095780601f10610ade57610100808354040283529160200191610b09565b820191906000526020600020905b815481529060010190602001808311610aec57829003601f168201915b5050505060048301546005840154600685015460079095015493946001600160a01b039092169390925060ff8082169161010090041689565b60606002805480602002602001604051908101604052809291908181526020018280548015610b9a57602002820191906000526020600020905b81546001600160a01b03168152600190910190602001808311610b7c575b5050505050905090565b3360009081526001602052604090205460ff16610bd35760405162461bcd60e51b81526004016103f3906115d7565b60008181526020819052604081208054909103610c265760405162461bcd60e51b815260206004820152601160248201527014995c5d595cdd081b9bdd08199bdd5b99607a1b60448201526064016103f3565b600781015460ff1615610c4b5760405162461bcd60e51b81526004016103f39061166b565b6007810154610100900460ff1615610c995760405162461bcd60e51b815260206004820152601160248201527014995c5d595cdd0818d85b98d95b1b1959607a1b60448201526064016103f3565b33600090815260088201602052604090205460ff1615610cee5760405162461bcd60e51b815260206004820152601060248201526f105b1c9958591e48185c1c1c9bdd995960821b60448201526064016103f3565b3360009081526008820160205260408120805460ff1916600117905560058201805491610d1a83611652565b9091555050604051339083907f7ab1df95613019ba98da0113a7adf5073c9fa62d93b5f202502115266aadc06a90600090a36003548160050154106106b4576106b48261113f565b600081815260208190526040812060018101546002820154600483015460058401546006850154600786015460038701805489986060988a988998899889988998959794966001600160a01b039485169693909416939192909160ff80831692610100900416908690610dd490611695565b80601f0160208091040260200160405190810160405280929190818152602001828054610e0090611695565b8015610e4d5780601f10610e2257610100808354040283529160200191610e4d565b820191906000526020600020905b815481529060010190602001808311610e3057829003601f168201915b505050505095509850985098509850985098509850985050919395975091939597565b60003411610eb05760405162461bcd60e51b815260206004820152600d60248201526c139bc81d985b1d59481cd95b9d609a1b60448201526064016103f3565b60405134815233907f543ba50a5eec5e6178218e364b1d0f396157b3c8fa278522c2cb7fd99407d4749060200160405180910390a2565b6005546001600160a01b03163314610f115760405162461bcd60e51b81526004016103f3906115b4565b60008111610f595760405162461bcd60e51b815260206004820152601560248201527405468726573686f6c64206d757374206265203e203605c1b60448201526064016103f3565b600254811115610fab5760405162461bcd60e51b815260206004820152601860248201527f5468726573686f6c64203e207369676e657220636f756e74000000000000000060448201526064016103f3565b60038190556040518181527fadfa8ecb21b6962ebcd0adbd9ab985b7b4c5b5eb3b0dead683171565c7bfe1719060200160405180910390a150565b6005546001600160a01b031633146110105760405162461bcd60e51b81526004016103f3906115b4565b6001600160a01b0381166110575760405162461bcd60e51b815260206004820152600e60248201526d24b73b30b634b21039b4b3b732b960911b60448201526064016103f3565b6001600160a01b03811660009081526001602052604090205460ff16156110b35760405162461bcd60e51b815260206004820152601060248201526f20b63932b0b23c90309039b4b3b732b960811b60448201526064016103f3565b6001600160a01b0381166000818152600160208190526040808320805460ff19168317905560028054928301815583527f405787fa12a823e0f2b7631cc41b3ba8828b3321ca811111fa75cd3aa3bb5ace90910180546001600160a01b03191684179055517f47d1c22a25bb3a5d4e481b9b1e6944c2eade3181a0a20b495ed61d35b5323f249190a250565b6000818152602081905260409020600781015460ff16156111725760405162461bcd60e51b81526004016103f39061166b565b6007810154610100900460ff16156111c05760405162461bcd60e51b815260206004820152601160248201527014995c5d595cdd0818d85b98d95b1b1959607a1b60448201526064016103f3565b806001015447101561120b5760405162461bcd60e51b8152602060048201526014602482015273496e73756666696369656e742062616c616e636560601b60448201526064016103f3565b60078101805460ff191660019081179091556002820154908201546040516000926001600160a01b031691908381818185875af1925050503d806000811461126f576040519150601f19603f3d011682016040523d82523d6000602084013e611274565b606091505b50509050806112b75760405162461bcd60e51b815260206004820152600f60248201526e151c985b9cd9995c8819985a5b1959608a1b60448201526064016103f3565b827f31d3fb496634645407643eb204dae990bd803a7289718931990377e69fe48ce983600101546040516112ed91815260200190565b60405180910390a2505050565b6001600160a01b038116811461130f57600080fd5b50565b60006020828403121561132457600080fd5b813561132f816112fa565b9392505050565b6000806040838503121561134957600080fd5b82359150602083013561135b816112fa565b809150509250929050565b60006020828403121561137857600080fd5b5035919050565b634e487b7160e01b600052604160045260246000fd5b6000806000606084860312156113aa57600080fd5b8335925060208401356113bc816112fa565b9150604084013567ffffffffffffffff808211156113d957600080fd5b818601915086601f8301126113ed57600080fd5b8135818111156113ff576113ff61137f565b604051601f8201601f19908116603f011681019083821181831017156114275761142761137f565b8160405282815289602084870101111561144057600080fd5b8260208601602083013760006020848301015280955050505050509250925092565b6000815180845260005b818110156114885760208185018101518683018201520161146c565b506000602082860101526020601f19601f83011685010191505092915050565b898152602081018990526001600160a01b038881166040830152610120606083018190526000916114db8483018b611462565b98166080840152505060a081019490945260c0840192909252151560e0830152151561010090910152949350505050565b6020808252825182820181905260009190848201906040850190845b8181101561154d5783516001600160a01b031683529284019291840191600101611528565b50909695505050505050565b8881526001600160a01b038881166020830152610100604083018190526000916115858483018b611462565b981660608401525050608081019490945260a0840192909252151560c0830152151560e0909101529392505050565b6020808252600990820152682737ba1037bbb732b960b91b604082015260600190565b6020808252600c908201526b2737ba10309039b4b3b732b960a11b604082015260600190565b634e487b7160e01b600052603260045260246000fd5b634e487b7160e01b600052601160045260246000fd5b8181038181111561061957610619611613565b634e487b7160e01b600052603160045260246000fd5b60006001820161166457611664611613565b5060010190565b60208082526010908201526f105b1c9958591e48195e1958dd5d195960821b604082015260600190565b600181811c908216806116a957607f821691505b6020821081036116c957634e487b7160e01b600052602260045260246000fd5b50919050565b601f82111561171957600081815260208120601f850160051c810160208610156116f65750805b601f850160051c820191505b8181101561171557828155600101611702565b5050505b505050565b815167ffffffffffffffff8111156117385761173861137f565b61174c816117468454611695565b846116cf565b602080601f83116001811461178157600084156117695750858301515b600019600386901b1c1916600185901b178555611715565b600085815260208120601f198616915b828110156117b057888601518255948401946001909101908401611791565b50858210156117ce5787850151600019600388901b60f8161c191681555b5050505050600190811b01905550565b8281526040602082015260006117f76040830184611462565b94935050505056fea2646970667358221220028bf47b12a4af3b7b212ac5d82350763588206c66781c519e2d147f14c98f3364736f6c63430008140033","opcodes":"PUSH1 0x80 PUSH1 0x40 MSTORE CALLVALUE DUP1 ISZERO PUSH3 0x11 JUMPI PUSH1 0x0 DUP1 REVERT JUMPDEST POP PUSH1 0x40 MLOAD PUSH3 0x1C27 CODESIZE SUB DUP1 PUSH3 0x1C27 DUP4 CODECOPY DUP2 ADD PUSH1 0x40 DUP2 SWAP1 MSTORE PUSH3 0x34 SWAP2 PUSH3 0x2B4 JUMP JUMPDEST DUP2 DUP4 MLOAD LT ISZERO PUSH3 0x7F JUMPI PUSH1 0x40 MLOAD PUSH3 0x461BCD PUSH1 0xE5 SHL DUP2 MSTORE PUSH1 0x20 PUSH1 0x4 DUP3 ADD MSTORE PUSH1 0x11 PUSH1 0x24 DUP3 ADD MSTORE PUSH17 0x125B9D985B1A59081D1A1C995CDA1BDB19 PUSH1 0x7A SHL PUSH1 0x44 DUP3 ADD MSTORE PUSH1 0x64 ADD JUMPDEST PUSH1 0x40 MLOAD DUP1 SWAP2 SUB SWAP1 REVERT JUMPDEST PUSH1 0x0 DUP3 GT PUSH3 0xD1 JUMPI PUSH1 0x40 MLOAD PUSH3 0x461BCD PUSH1 0xE5 SHL DUP2 MSTORE PUSH1 0x20 PUSH1 0x4 DUP3 ADD MSTORE PUSH1 0x15 PUSH1 0x24 DUP3 ADD MSTORE PUSH32 0x5468726573686F6C64206D757374206265203E20300000000000000000000000 PUSH1 0x44 DUP3 ADD MSTORE PUSH1 0x64 ADD PUSH3 0x76 JUMP JUMPDEST PUSH1 0x5 DUP1 SLOAD PUSH1 0x1 PUSH1 0x1 PUSH1 0xA0 SHL SUB NOT AND PUSH1 0x1 PUSH1 0x1 PUSH1 0xA0 SHL SUB DUP4 AND OR SWAP1 SSTORE PUSH1 0x3 DUP3 SWAP1 SSTORE PUSH1 0x0 JUMPDEST DUP4 MLOAD DUP2 LT ISZERO PUSH3 0x271 JUMPI PUSH1 0x0 DUP5 DUP3 DUP2 MLOAD DUP2 LT PUSH3 0x115 JUMPI PUSH3 0x115 PUSH3 0x3A4 JUMP JUMPDEST PUSH1 0x20 MUL PUSH1 0x20 ADD ADD MLOAD SWAP1 POP PUSH1 0x0 PUSH1 0x1 PUSH1 0x1 PUSH1 0xA0 SHL SUB AND DUP2 PUSH1 0x1 PUSH1 0x1 PUSH1 0xA0 SHL SUB AND SUB PUSH3 0x174 JUMPI PUSH1 0x40 MLOAD PUSH3 0x461BCD PUSH1 0xE5 SHL DUP2 MSTORE PUSH1 0x20 PUSH1 0x4 DUP3 ADD MSTORE PUSH1 0xE PUSH1 0x24 DUP3 ADD MSTORE PUSH14 0x24B73B30B634B21039B4B3B732B9 PUSH1 0x91 SHL PUSH1 0x44 DUP3 ADD MSTORE PUSH1 0x64 ADD PUSH3 0x76 JUMP JUMPDEST PUSH1 0x1 PUSH1 0x1 PUSH1 0xA0 SHL SUB DUP2 AND PUSH1 0x0 SWAP1 DUP2 MSTORE PUSH1 0x1 PUSH1 0x20 MSTORE PUSH1 0x40 SWAP1 KECCAK256 SLOAD PUSH1 0xFF AND ISZERO PUSH3 0x1D2 JUMPI PUSH1 0x40 MLOAD PUSH3 0x461BCD PUSH1 0xE5 SHL DUP2 MSTORE PUSH1 0x20 PUSH1 0x4 DUP3 ADD MSTORE PUSH1 0x10 PUSH1 0x24 DUP3 ADD MSTORE PUSH16 0x223AB83634B1B0BA329039B4B3B732B9 PUSH1 0x81 SHL PUSH1 0x44 DUP3 ADD MSTORE PUSH1 0x64 ADD PUSH3 0x76 JUMP JUMPDEST PUSH1 0x1 PUSH1 0x1 PUSH1 0xA0 SHL SUB DUP2 AND PUSH1 0x0 DUP2 DUP2 MSTORE PUSH1 0x1 PUSH1 0x20 DUP2 SWAP1 MSTORE PUSH1 0x40 DUP1 DUP4 KECCAK256 DUP1 SLOAD PUSH1 0xFF NOT AND DUP4 OR SWAP1 SSTORE PUSH1 0x2 DUP1 SLOAD SWAP3 DUP4 ADD DUP2 SSTORE DUP4 MSTORE PUSH32 0x405787FA12A823E0F2B7631CC41B3BA8828B3321CA811111FA75CD3AA3BB5ACE SWAP1 SWAP2 ADD DUP1 SLOAD PUSH1 0x1 PUSH1 0x1 PUSH1 0xA0 SHL SUB NOT AND DUP5 OR SWAP1 SSTORE MLOAD PUSH32 0x47D1C22A25BB3A5D4E481B9B1E6944C2EADE3181A0A20B495ED61D35B5323F24 SWAP2 SWAP1 LOG2 POP DUP1 PUSH3 0x268 DUP2 PUSH3 0x3BA JUMP JUMPDEST SWAP2 POP POP PUSH3 0xF4 JUMP JUMPDEST POP POP PUSH1 0x1 PUSH1 0x4 SSTORE POP PUSH3 0x3E2 SWAP1 POP JUMP JUMPDEST PUSH4 0x4E487B71 PUSH1 0xE0 SHL PUSH1 0x0 MSTORE PUSH1 0x41 PUSH1 0x4 MSTORE PUSH1 0x24 PUSH1 0x0 REVERT JUMPDEST DUP1 MLOAD PUSH1 0x1 PUSH1 0x1 PUSH1 0xA0 SHL SUB DUP2 AND DUP2 EQ PUSH3 0x2AF JUMPI PUSH1 0x0 DUP1 REVERT JUMPDEST SWAP2 SWAP1 POP JUMP JUMPDEST PUSH1 0x0 DUP1 PUSH1 0x0 PUSH1 0x60 DUP5 DUP7 SUB SLT ISZERO PUSH3 0x2CA JUMPI PUSH1 0x0 DUP1 REVERT JUMPDEST DUP4 MLOAD PUSH1 0x1 PUSH1 0x1 PUSH1 0x40 SHL SUB DUP1 DUP3 GT ISZERO PUSH3 0x2E2 JUMPI PUSH1 0x0 DUP1 REVERT JUMPDEST DUP2 DUP7 ADD SWAP2 POP DUP7 PUSH1 0x1F DUP4 ADD SLT PUSH3 0x2F7 JUMPI PUSH1 0x0 DUP1 REVERT JUMPDEST DUP2 MLOAD PUSH1 0x20 DUP3 DUP3 GT ISZERO PUSH3 0x30E JUMPI PUSH3 0x30E PUSH3 0x281 JUMP JUMPDEST DUP2 PUSH1 0x5 SHL PUSH1 0x40 MLOAD PUSH1 0x1F NOT PUSH1 0x3F DUP4 ADD AND DUP2 ADD DUP2 DUP2 LT DUP7 DUP3 GT OR ISZERO PUSH3 0x336 JUMPI PUSH3 0x336 PUSH3 0x281 JUMP JUMPDEST PUSH1 0x40 MSTORE SWAP3 DUP4 MSTORE DUP2 DUP4 ADD SWAP4 POP DUP5 DUP2 ADD DUP3 ADD SWAP3 DUP11 DUP5 GT ISZERO PUSH3 0x355 JUMPI PUSH1 0x0 DUP1 REVERT JUMPDEST SWAP5 DUP3 ADD SWAP5 JUMPDEST DUP4 DUP7 LT ISZERO PUSH3 0x37E JUMPI PUSH3 0x36E DUP7 PUSH3 0x297 JUMP JUMPDEST DUP6 MSTORE SWAP5 DUP3 ADD SWAP5 SWAP4 DUP3 ADD SWAP4 PUSH3 0x35A JUMP JUMPDEST DUP1 SWAP9 POP POP POP DUP1 DUP9 ADD MLOAD SWAP6 POP POP POP POP POP PUSH3 0x39B PUSH1 0x40 DUP6 ADD PUSH3 0x297 JUMP JUMPDEST SWAP1 POP SWAP3 POP SWAP3 POP SWAP3 JUMP JUMPDEST PUSH4 0x4E487B71 PUSH1 0xE0 SHL PUSH1 0x0 MSTORE PUSH1 0x32 PUSH1 0x4 MSTORE PUSH1 0x24 PUSH1 0x0 REVERT JUMPDEST PUSH1 0x0 PUSH1 0x1 DUP3 ADD PUSH3 0x3DB JUMPI PUSH4 0x4E487B71 PUSH1 0xE0 SHL PUSH1 0x0 MSTORE PUSH1 0x11 PUSH1 0x4 MSTORE PUSH1 0x24 PUSH1 0x0 REVERT JUMPDEST POP PUSH1 0x1 ADD SWAP1 JUMP JUMPDEST PUSH2 0x1835 DUP1 PUSH3 0x3F2 PUSH1 0x0 CODECOPY PUSH1 0x0 RETURN INVALID PUSH1 0x80 PUSH1 0x40 MSTORE PUSH1 0x4 CALLDATASIZE LT PUSH2 0x10D JUMPI PUSH1 0x0 CALLDATALOAD PUSH1 0xE0 SHR DUP1 PUSH4 0x937B2581 GT PUSH2 0x95 JUMPI DUP1 PUSH4 0xAE485651 GT PUSH2 0x64 JUMPI DUP1 PUSH4 0xAE485651 EQ PUSH2 0x32D JUMPI DUP1 PUSH4 0xD0E30DB0 EQ PUSH2 0x361 JUMPI DUP1 PUSH4 0xD7D7442F EQ PUSH2 0x369 JUMPI DUP1 PUSH4 0xEB12D61E EQ PUSH2 0x389 JUMPI DUP1 PUSH4 0xF446C38F EQ PUSH2 0x3A9 JUMPI PUSH1 0x0 DUP1 REVERT JUMPDEST DUP1 PUSH4 0x937B2581 EQ PUSH2 0x2A0 JUMPI DUP1 PUSH4 0x94CF795E EQ PUSH2 0x2D5 JUMPI DUP1 PUSH4 0x99C1AADC EQ PUSH2 0x2F7 JUMPI DUP1 PUSH4 0x9ECEDDEA EQ PUSH2 0x30D JUMPI PUSH1 0x0 DUP1 REVERT JUMPDEST DUP1 PUSH4 0x3EFCFDA4 GT PUSH2 0xDC JUMPI DUP1 PUSH4 0x3EFCFDA4 EQ PUSH2 0x1E2 JUMPI DUP1 PUSH4 0x577ED7E1 EQ PUSH2 0x202 JUMPI DUP1 PUSH4 0x6A6EA91B EQ PUSH2 0x23A JUMPI DUP1 PUSH4 0x6A84A985 EQ PUSH2 0x25A JUMPI DUP1 PUSH4 0x736C0D5B EQ PUSH2 0x270 JUMPI PUSH1 0x0 DUP1 REVERT JUMPDEST DUP1 PUSH4 0xE316AB7 EQ PUSH2 0x14E JUMPI DUP1 PUSH4 0x12065FE0 EQ PUSH2 0x170 JUMPI DUP1 PUSH4 0x2358D5A8 EQ PUSH2 0x192 JUMPI DUP1 PUSH4 0x24F13A76 EQ PUSH2 0x1C2 JUMPI PUSH1 0x0 DUP1 REVERT JUMPDEST CALLDATASIZE PUSH2 0x149 JUMPI PUSH1 0x40 MLOAD CALLVALUE DUP2 MSTORE CALLER SWAP1 PUSH32 0x543BA50A5EEC5E6178218E364B1D0F396157B3C8FA278522C2CB7FD99407D474 SWAP1 PUSH1 0x20 ADD PUSH1 0x40 MLOAD DUP1 SWAP2 SUB SWAP1 LOG2 STOP JUMPDEST PUSH1 0x0 DUP1 REVERT JUMPDEST CALLVALUE DUP1 ISZERO PUSH2 0x15A JUMPI PUSH1 0x0 DUP1 REVERT JUMPDEST POP PUSH2 0x16E PUSH2 0x169 CALLDATASIZE PUSH1 0x4 PUSH2 0x1312 JUMP JUMPDEST PUSH2 0x3C9 JUMP JUMPDEST STOP JUMPDEST CALLVALUE DUP1 ISZERO PUSH2 0x17C JUMPI PUSH1 0x0 DUP1 REVERT JUMPDEST POP SELFBALANCE JUMPDEST PUSH1 0x40 MLOAD SWAP1 DUP2 MSTORE PUSH1 0x20 ADD JUMPDEST PUSH1 0x40 MLOAD DUP1 SWAP2 SUB SWAP1 RETURN JUMPDEST CALLVALUE DUP1 ISZERO PUSH2 0x19E JUMPI PUSH1 0x0 DUP1 REVERT JUMPDEST POP PUSH2 0x1B2 PUSH2 0x1AD CALLDATASIZE PUSH1 0x4 PUSH2 0x1336 JUMP JUMPDEST PUSH2 0x5F1 JUMP JUMPDEST PUSH1 0x40 MLOAD SWAP1 ISZERO ISZERO DUP2 MSTORE PUSH1 0x20 ADD PUSH2 0x189 JUMP JUMPDEST CALLVALUE DUP1 ISZERO PUSH2 0x1CE JUMPI PUSH1 0x0 DUP1 REVERT JUMPDEST POP PUSH2 0x16E PUSH2 0x1DD CALLDATASIZE PUSH1 0x4 PUSH2 0x1366 JUMP JUMPDEST PUSH2 0x61F JUMP JUMPDEST CALLVALUE DUP1 ISZERO PUSH2 0x1EE JUMPI PUSH1 0x0 DUP1 REVERT JUMPDEST POP PUSH2 0x16E PUSH2 0x1FD CALLDATASIZE PUSH1 0x4 PUSH2 0x1366 JUMP JUMPDEST PUSH2 0x6B8 JUMP JUMPDEST CALLVALUE DUP1 ISZERO PUSH2 0x20E JUMPI PUSH1 0x0 DUP1 REVERT JUMPDEST POP PUSH2 0x222 PUSH2 0x21D CALLDATASIZE PUSH1 0x4 PUSH2 0x1366 JUMP JUMPDEST PUSH2 0x84F JUMP JUMPDEST PUSH1 0x40 MLOAD PUSH1 0x1 PUSH1 0x1 PUSH1 0xA0 SHL SUB SWAP1 SWAP2 AND DUP2 MSTORE PUSH1 0x20 ADD PUSH2 0x189 JUMP JUMPDEST CALLVALUE DUP1 ISZERO PUSH2 0x246 JUMPI PUSH1 0x0 DUP1 REVERT JUMPDEST POP PUSH2 0x17F PUSH2 0x255 CALLDATASIZE PUSH1 0x4 PUSH2 0x1395 JUMP JUMPDEST PUSH2 0x879 JUMP JUMPDEST CALLVALUE DUP1 ISZERO PUSH2 0x266 JUMPI PUSH1 0x0 DUP1 REVERT JUMPDEST POP PUSH2 0x17F PUSH1 0x4 SLOAD DUP2 JUMP JUMPDEST CALLVALUE DUP1 ISZERO PUSH2 0x27C JUMPI PUSH1 0x0 DUP1 REVERT JUMPDEST POP PUSH2 0x1B2 PUSH2 0x28B CALLDATASIZE PUSH1 0x4 PUSH2 0x1312 JUMP JUMPDEST PUSH1 0x1 PUSH1 0x20 MSTORE PUSH1 0x0 SWAP1 DUP2 MSTORE PUSH1 0x40 SWAP1 KECCAK256 SLOAD PUSH1 0xFF AND DUP2 JUMP JUMPDEST CALLVALUE DUP1 ISZERO PUSH2 0x2AC JUMPI PUSH1 0x0 DUP1 REVERT JUMPDEST POP PUSH2 0x2C0 PUSH2 0x2BB CALLDATASIZE PUSH1 0x4 PUSH2 0x1366 JUMP JUMPDEST PUSH2 0xA56 JUMP JUMPDEST PUSH1 0x40 MLOAD PUSH2 0x189 SWAP10 SWAP9 SWAP8 SWAP7 SWAP6 SWAP5 SWAP4 SWAP3 SWAP2 SWAP1 PUSH2 0x14A8 JUMP JUMPDEST CALLVALUE DUP1 ISZERO PUSH2 0x2E1 JUMPI PUSH1 0x0 DUP1 REVERT JUMPDEST POP PUSH2 0x2EA PUSH2 0xB42 JUMP JUMPDEST PUSH1 0x40 MLOAD PUSH2 0x189 SWAP2 SWAP1 PUSH2 0x150C JUMP JUMPDEST CALLVALUE DUP1 ISZERO PUSH2 0x303 JUMPI PUSH1 0x0 DUP1 REVERT JUMPDEST POP PUSH2 0x17F PUSH1 0x3 SLOAD DUP2 JUMP JUMPDEST CALLVALUE DUP1 ISZERO PUSH2 0x319 JUMPI PUSH1 0x0 DUP1 REVERT JUMPDEST POP PUSH2 0x16E PUSH2 0x328 CALLDATASIZE PUSH1 0x4 PUSH2 0x1366 JUMP JUMPDEST PUSH2 0xBA4 JUMP JUMPDEST CALLVALUE DUP1 ISZERO PUSH2 0x339 JUMPI PUSH1 0x0 DUP1 REVERT JUMPDEST POP PUSH2 0x34D PUSH2 0x348 CALLDATASIZE PUSH1 0x4 PUSH2 0x1366 JUMP JUMPDEST PUSH2 0xD62 JUMP JUMPDEST PUSH1 0x40 MLOAD PUSH2 0x189 SWAP9 SWAP8 SWAP7 SWAP6 SWAP5 SWAP4 SWAP3 SWAP2 SWAP1 PUSH2 0x1559 JUMP JUMPDEST PUSH2 0x16E PUSH2 0xE70 JUMP JUMPDEST CALLVALUE DUP1 ISZERO PUSH2 0x375 JUMPI PUSH1 0x0 DUP1 REVERT JUMPDEST POP PUSH2 0x16E PUSH2 0x384 CALLDATASIZE PUSH1 0x4 PUSH2 0x1366 JUMP JUMPDEST PUSH2 0xEE7 JUMP JUMPDEST CALLVALUE DUP1 ISZERO PUSH2 0x395 JUMPI PUSH1 0x0 DUP1 REVERT JUMPDEST POP PUSH2 0x16E PUSH2 0x3A4 CALLDATASIZE PUSH1 0x4 PUSH2 0x1312 JUMP JUMPDEST PUSH2 0xFE6 JUMP JUMPDEST CALLVALUE DUP1 ISZERO PUSH2 0x3B5 JUMPI PUSH1 0x0 DUP1 REVERT JUMPDEST POP PUSH1 0x5 SLOAD PUSH2 0x222 SWAP1 PUSH1 0x1 PUSH1 0x1 PUSH1 0xA0 SHL SUB AND DUP2 JUMP JUMPDEST PUSH1 0x5 SLOAD PUSH1 0x1 PUSH1 0x1 PUSH1 0xA0 SHL SUB AND CALLER EQ PUSH2 0x3FC JUMPI PUSH1 0x40 MLOAD PUSH3 0x461BCD PUSH1 0xE5 SHL DUP2 MSTORE PUSH1 0x4 ADD PUSH2 0x3F3 SWAP1 PUSH2 0x15B4 JUMP JUMPDEST PUSH1 0x40 MLOAD DUP1 SWAP2 SUB SWAP1 REVERT JUMPDEST PUSH1 0x1 PUSH1 0x1 PUSH1 0xA0 SHL SUB DUP2 AND PUSH1 0x0 SWAP1 DUP2 MSTORE PUSH1 0x1 PUSH1 0x20 MSTORE PUSH1 0x40 SWAP1 KECCAK256 SLOAD PUSH1 0xFF AND PUSH2 0x434 JUMPI PUSH1 0x40 MLOAD PUSH3 0x461BCD PUSH1 0xE5 SHL DUP2 MSTORE PUSH1 0x4 ADD PUSH2 0x3F3 SWAP1 PUSH2 0x15D7 JUMP JUMPDEST PUSH1 0x3 SLOAD PUSH1 0x2 SLOAD GT PUSH2 0x493 JUMPI PUSH1 0x40 MLOAD PUSH3 0x461BCD PUSH1 0xE5 SHL DUP2 MSTORE PUSH1 0x20 PUSH1 0x4 DUP3 ADD MSTORE PUSH1 0x24 DUP1 DUP3 ADD MSTORE PUSH32 0x43616E6E6F742072656D6F76652C20776F756C6420627265616B207468726573 PUSH1 0x44 DUP3 ADD MSTORE PUSH4 0x1A1BDB19 PUSH1 0xE2 SHL PUSH1 0x64 DUP3 ADD MSTORE PUSH1 0x84 ADD PUSH2 0x3F3 JUMP JUMPDEST PUSH1 0x1 PUSH1 0x1 PUSH1 0xA0 SHL SUB DUP2 AND PUSH1 0x0 SWAP1 DUP2 MSTORE PUSH1 0x1 PUSH1 0x20 MSTORE PUSH1 0x40 DUP2 KECCAK256 DUP1 SLOAD PUSH1 0xFF NOT AND SWAP1 SSTORE JUMPDEST PUSH1 0x2 SLOAD DUP2 LT ISZERO PUSH2 0x5B9 JUMPI DUP2 PUSH1 0x1 PUSH1 0x1 PUSH1 0xA0 SHL SUB AND PUSH1 0x2 DUP3 DUP2 SLOAD DUP2 LT PUSH2 0x4DB JUMPI PUSH2 0x4DB PUSH2 0x15FD JUMP JUMPDEST PUSH1 0x0 SWAP2 DUP3 MSTORE PUSH1 0x20 SWAP1 SWAP2 KECCAK256 ADD SLOAD PUSH1 0x1 PUSH1 0x1 PUSH1 0xA0 SHL SUB AND SUB PUSH2 0x5A7 JUMPI PUSH1 0x2 DUP1 SLOAD PUSH2 0x505 SWAP1 PUSH1 0x1 SWAP1 PUSH2 0x1629 JUMP JUMPDEST DUP2 SLOAD DUP2 LT PUSH2 0x515 JUMPI PUSH2 0x515 PUSH2 0x15FD JUMP JUMPDEST PUSH1 0x0 SWAP2 DUP3 MSTORE PUSH1 0x20 SWAP1 SWAP2 KECCAK256 ADD SLOAD PUSH1 0x2 DUP1 SLOAD PUSH1 0x1 PUSH1 0x1 PUSH1 0xA0 SHL SUB SWAP1 SWAP3 AND SWAP2 DUP4 SWAP1 DUP2 LT PUSH2 0x541 JUMPI PUSH2 0x541 PUSH2 0x15FD JUMP JUMPDEST SWAP1 PUSH1 0x0 MSTORE PUSH1 0x20 PUSH1 0x0 KECCAK256 ADD PUSH1 0x0 PUSH2 0x100 EXP DUP2 SLOAD DUP2 PUSH1 0x1 PUSH1 0x1 PUSH1 0xA0 SHL SUB MUL NOT AND SWAP1 DUP4 PUSH1 0x1 PUSH1 0x1 PUSH1 0xA0 SHL SUB AND MUL OR SWAP1 SSTORE POP PUSH1 0x2 DUP1 SLOAD DUP1 PUSH2 0x580 JUMPI PUSH2 0x580 PUSH2 0x163C JUMP JUMPDEST PUSH1 0x0 DUP3 DUP2 MSTORE PUSH1 0x20 SWAP1 KECCAK256 DUP2 ADD PUSH1 0x0 NOT SWAP1 DUP2 ADD DUP1 SLOAD PUSH1 0x1 PUSH1 0x1 PUSH1 0xA0 SHL SUB NOT AND SWAP1 SSTORE ADD SWAP1 SSTORE PUSH2 0x5B9 JUMP JUMPDEST DUP1 PUSH2 0x5B1 DUP2 PUSH2 0x1652 JUMP JUMPDEST SWAP2 POP POP PUSH2 0x4B4 JUMP JUMPDEST POP PUSH1 0x40 MLOAD PUSH1 0x1 PUSH1 0x1 PUSH1 0xA0 SHL SUB DUP3 AND SWAP1 PUSH32 0x3525E22824A8A7DF2C9A6029941C824CF95B6447F1E13D5128FD3826D35AFE8B SWAP1 PUSH1 0x0 SWAP1 LOG2 POP JUMP JUMPDEST PUSH1 0x0 DUP3 DUP2 MSTORE PUSH1 0x20 DUP2 DUP2 MSTORE PUSH1 0x40 DUP1 DUP4 KECCAK256 PUSH1 0x1 PUSH1 0x1 PUSH1 0xA0 SHL SUB DUP6 AND DUP5 MSTORE PUSH1 0x8 ADD SWAP1 SWAP2 MSTORE SWAP1 KECCAK256 SLOAD PUSH1 0xFF AND JUMPDEST SWAP3 SWAP2 POP POP JUMP JUMPDEST CALLER PUSH1 0x0 SWAP1 DUP2 MSTORE PUSH1 0x1 PUSH1 0x20 MSTORE PUSH1 0x40 SWAP1 KECCAK256 SLOAD PUSH1 0xFF AND PUSH2 0x64E JUMPI PUSH1 0x40 MLOAD PUSH3 0x461BCD PUSH1 0xE5 SHL DUP2 MSTORE PUSH1 0x4 ADD PUSH2 0x3F3 SWAP1 PUSH2 0x15D7 JUMP JUMPDEST PUSH1 0x0 DUP2 DUP2 MSTORE PUSH1 0x20 DUP2 SWAP1 MSTORE PUSH1 0x40 SWAP1 KECCAK256 PUSH1 0x3 SLOAD PUSH1 0x5 DUP3 ADD SLOAD LT ISZERO PUSH2 0x6AB JUMPI PUSH1 0x40 MLOAD PUSH3 0x461BCD PUSH1 0xE5 SHL DUP2 MSTORE PUSH1 0x20 PUSH1 0x4 DUP3 ADD MSTORE PUSH1 0x16 PUSH1 0x24 DUP3 ADD MSTORE PUSH22 0x496E73756666696369656E7420617070726F76616C73 PUSH1 0x50 SHL PUSH1 0x44 DUP3 ADD MSTORE PUSH1 0x64 ADD PUSH2 0x3F3 JUMP JUMPDEST PUSH2 0x6B4 DUP3 PUSH2 0x113F JUMP JUMPDEST POP POP JUMP JUMPDEST CALLER PUSH1 0x0 SWAP1 DUP2 MSTORE PUSH1 0x1 PUSH1 0x20 MSTORE PUSH1 0x40 SWAP1 KECCAK256 SLOAD PUSH1 0xFF AND PUSH2 0x6E7 JUMPI PUSH1 0x40 MLOAD PUSH3 0x461BCD PUSH1 0xE5 SHL DUP2 MSTORE PUSH1 0x4 ADD PUSH2 0x3F3 SWAP1 PUSH2 0x15D7 JUMP JUMPDEST PUSH1 0x0 DUP2 DUP2 MSTORE PUSH1 0x20 DUP2 SWAP1 MSTORE PUSH1 0x40 DUP2 KECCAK256 DUP1 SLOAD SWAP1 SWAP2 SUB PUSH2 0x73A JUMPI PUSH1 0x40 MLOAD PUSH3 0x461BCD PUSH1 0xE5 SHL DUP2 MSTORE PUSH1 0x20 PUSH1 0x4 DUP3 ADD MSTORE PUSH1 0x11 PUSH1 0x24 DUP3 ADD MSTORE PUSH17 0x14995C5D595CDD081B9BDD08199BDD5B99 PUSH1 0x7A SHL PUSH1 0x44 DUP3 ADD MSTORE PUSH1 0x64 ADD PUSH2 0x3F3 JUMP JUMPDEST PUSH1 0x7 DUP2 ADD SLOAD PUSH1 0xFF AND ISZERO PUSH2 0x75F JUMPI PUSH1 0x40 MLOAD PUSH3 0x461BCD PUSH1 0xE5 SHL DUP2 MSTORE PUSH1 0x4 ADD PUSH2 0x3F3 SWAP1 PUSH2 0x166B JUMP JUMPDEST PUSH1 0x7 DUP2 ADD SLOAD PUSH2 0x100 SWAP1 DIV PUSH1 0xFF AND ISZERO PUSH2 0x7AD JUMPI PUSH1 0x40 MLOAD PUSH3 0x461BCD PUSH1 0xE5 SHL DUP2 MSTORE PUSH1 0x20 PUSH1 0x4 DUP3 ADD MSTORE PUSH1 0x11 PUSH1 0x24 DUP3 ADD MSTORE PUSH17 0x105B1C9958591E4818D85B98D95B1B1959 PUSH1 0x7A SHL PUSH1 0x44 DUP3 ADD MSTORE PUSH1 0x64 ADD PUSH2 0x3F3 JUMP JUMPDEST PUSH1 0x4 DUP2 ADD SLOAD PUSH1 0x1 PUSH1 0x1 PUSH1 0xA0 SHL SUB AND CALLER EQ DUP1 PUSH2 0x7D2 JUMPI POP PUSH1 0x5 SLOAD PUSH1 0x1 PUSH1 0x1 PUSH1 0xA0 SHL SUB AND CALLER EQ JUMPDEST PUSH2 0x80F JUMPI PUSH1 0x40 MLOAD PUSH3 0x461BCD PUSH1 0xE5 SHL DUP2 MSTORE PUSH1 0x20 PUSH1 0x4 DUP3 ADD MSTORE PUSH1 0xE PUSH1 0x24 DUP3 ADD MSTORE PUSH14 0x139BDD08185D5D1A1BDC9A5E9959 PUSH1 0x92 SHL PUSH1 0x44 DUP3 ADD MSTORE PUSH1 0x64 ADD PUSH2 0x3F3 JUMP JUMPDEST PUSH1 0x7 DUP2 ADD DUP1 SLOAD PUSH2 0xFF00 NOT AND PUSH2 0x100 OR SWAP1 SSTORE PUSH1 0x40 MLOAD DUP3 SWAP1 PUSH32 0xE8DE1E631EA541AC8E6CB398AAFB71B991EB58D489298F7BC93BA7E17FA2042B SWAP1 PUSH1 0x0 SWAP1 LOG2 POP POP JUMP JUMPDEST PUSH1 0x2 DUP2 DUP2 SLOAD DUP2 LT PUSH2 0x85F JUMPI PUSH1 0x0 DUP1 REVERT JUMPDEST PUSH1 0x0 SWAP2 DUP3 MSTORE PUSH1 0x20 SWAP1 SWAP2 KECCAK256 ADD SLOAD PUSH1 0x1 PUSH1 0x1 PUSH1 0xA0 SHL SUB AND SWAP1 POP DUP2 JUMP JUMPDEST CALLER PUSH1 0x0 SWAP1 DUP2 MSTORE PUSH1 0x1 PUSH1 0x20 MSTORE PUSH1 0x40 DUP2 KECCAK256 SLOAD PUSH1 0xFF AND PUSH2 0x8A8 JUMPI PUSH1 0x40 MLOAD PUSH3 0x461BCD PUSH1 0xE5 SHL DUP2 MSTORE PUSH1 0x4 ADD PUSH2 0x3F3 SWAP1 PUSH2 0x15D7 JUMP JUMPDEST PUSH1 0x0 DUP5 GT PUSH2 0x8ED JUMPI PUSH1 0x40 MLOAD PUSH3 0x461BCD PUSH1 0xE5 SHL DUP2 MSTORE PUSH1 0x20 PUSH1 0x4 DUP3 ADD MSTORE PUSH1 0x12 PUSH1 0x24 DUP3 ADD MSTORE PUSH18 0x416D6F756E74206D757374206265203E203 PUSH1 0x74 SHL PUSH1 0x44 DUP3 ADD MSTORE PUSH1 0x64 ADD PUSH2 0x3F3 JUMP JUMPDEST PUSH1 0x1 PUSH1 0x1 PUSH1 0xA0 SHL SUB DUP4 AND PUSH2 0x937 JUMPI PUSH1 0x40 MLOAD PUSH3 0x461BCD PUSH1 0xE5 SHL DUP2 MSTORE PUSH1 0x20 PUSH1 0x4 DUP3 ADD MSTORE PUSH1 0x11 PUSH1 0x24 DUP3 ADD MSTORE PUSH17 0x125B9D985B1A59081C9958DA5C1A595B9D PUSH1 0x7A SHL PUSH1 0x44 DUP3 ADD MSTORE PUSH1 0x64 ADD PUSH2 0x3F3 JUMP JUMPDEST DUP4 SELFBALANCE LT ISZERO PUSH2 0x97E JUMPI PUSH1 0x40 MLOAD PUSH3 0x461BCD PUSH1 0xE5 SHL DUP2 MSTORE PUSH1 0x20 PUSH1 0x4 DUP3 ADD MSTORE PUSH1 0x14 PUSH1 0x24 DUP3 ADD MSTORE PUSH20 0x496E73756666696369656E742062616C616E6365 PUSH1 0x60 SHL PUSH1 0x44 DUP3 ADD MSTORE PUSH1 0x64 ADD PUSH2 0x3F3 JUMP JUMPDEST PUSH1 0x4 DUP1 SLOAD SWAP1 PUSH1 0x0 PUSH2 0x98E DUP4 PUSH2 0x1652 JUMP JUMPDEST SWAP1 SWAP2 SSTORE POP PUSH1 0x0 DUP2 DUP2 MSTORE PUSH1 0x20 DUP2 SWAP1 MSTORE PUSH1 0x40 SWAP1 KECCAK256 DUP2 DUP2 SSTORE PUSH1 0x1 DUP2 ADD DUP7 SWAP1 SSTORE PUSH1 0x2 DUP2 ADD DUP1 SLOAD PUSH1 0x1 PUSH1 0x1 PUSH1 0xA0 SHL SUB NOT AND PUSH1 0x1 PUSH1 0x1 PUSH1 0xA0 SHL SUB DUP8 AND OR SWAP1 SSTORE SWAP1 SWAP2 POP PUSH1 0x3 DUP2 ADD PUSH2 0x9D8 DUP5 DUP3 PUSH2 0x171E JUMP JUMPDEST POP PUSH1 0x4 DUP2 ADD DUP1 SLOAD PUSH1 0x1 PUSH1 0x1 PUSH1 0xA0 SHL SUB NOT AND CALLER OR SWAP1 SSTORE PUSH1 0x0 PUSH1 0x5 DUP3 ADD SSTORE TIMESTAMP PUSH1 0x6 DUP3 ADD SSTORE PUSH1 0x7 DUP2 ADD DUP1 SLOAD PUSH2 0xFFFF NOT AND SWAP1 SSTORE PUSH1 0x40 MLOAD PUSH1 0x1 PUSH1 0x1 PUSH1 0xA0 SHL SUB DUP6 AND SWAP1 DUP4 SWAP1 PUSH32 0x74277E6840CDADB4ECCA502EFB6AAB5FA703592FB13F9B2F94188AA905CC637E SWAP1 PUSH2 0xA46 SWAP1 DUP10 SWAP1 DUP9 SWAP1 PUSH2 0x17DE JUMP JUMPDEST PUSH1 0x40 MLOAD DUP1 SWAP2 SUB SWAP1 LOG3 POP SWAP4 SWAP3 POP POP POP JUMP JUMPDEST PUSH1 0x0 PUSH1 0x20 DUP2 SWAP1 MSTORE SWAP1 DUP2 MSTORE PUSH1 0x40 SWAP1 KECCAK256 DUP1 SLOAD PUSH1 0x1 DUP3 ADD SLOAD PUSH1 0x2 DUP4 ADD SLOAD PUSH1 0x3 DUP5 ADD DUP1 SLOAD SWAP4 SWAP5 SWAP3 SWAP4 PUSH1 0x1 PUSH1 0x1 PUSH1 0xA0 SHL SUB SWAP1 SWAP3 AND SWAP3 SWAP2 PUSH2 0xA90 SWAP1 PUSH2 0x1695 JUMP JUMPDEST DUP1 PUSH1 0x1F ADD PUSH1 0x20 DUP1 SWAP2 DIV MUL PUSH1 0x20 ADD PUSH1 0x40 MLOAD SWAP1 DUP2 ADD PUSH1 0x40 MSTORE DUP1 SWAP3 SWAP2 SWAP1 DUP2 DUP2 MSTORE PUSH1 0x20 ADD DUP3 DUP1 SLOAD PUSH2 0xABC SWAP1 PUSH2 0x1695 JUMP JUMPDEST DUP1 ISZERO PUSH2 0xB09 JUMPI DUP1 PUSH1 0x1F LT PUSH2 0xADE JUMPI PUSH2 0x100 DUP1 DUP4 SLOAD DIV MUL DUP4 MSTORE SWAP2 PUSH1 0x20 ADD SWAP2 PUSH2 0xB09 JUMP JUMPDEST DUP3 ADD SWAP2 SWAP1 PUSH1 0x0 MSTORE PUSH1 0x20 PUSH1 0x0 KECCAK256 SWAP1 JUMPDEST DUP2 SLOAD DUP2 MSTORE SWAP1 PUSH1 0x1 ADD SWAP1 PUSH1 0x20 ADD DUP1 DUP4 GT PUSH2 0xAEC JUMPI DUP3 SWAP1 SUB PUSH1 0x1F AND DUP3 ADD SWAP2 JUMPDEST POP POP POP POP PUSH1 0x4 DUP4 ADD SLOAD PUSH1 0x5 DUP5 ADD SLOAD PUSH1 0x6 DUP6 ADD SLOAD PUSH1 0x7 SWAP1 SWAP6 ADD SLOAD SWAP4 SWAP5 PUSH1 0x1 PUSH1 0x1 PUSH1 0xA0 SHL SUB SWAP1 SWAP3 AND SWAP4 SWAP1 SWAP3 POP PUSH1 0xFF DUP1 DUP3 AND SWAP2 PUSH2 0x100 SWAP1 DIV AND DUP10 JUMP JUMPDEST PUSH1 0x60 PUSH1 0x2 DUP1 SLOAD DUP1 PUSH1 0x20 MUL PUSH1 0x20 ADD PUSH1 0x40 MLOAD SWAP1 DUP2 ADD PUSH1 0x40 MSTORE DUP1 SWAP3 SWAP2 SWAP1 DUP2 DUP2 MSTORE PUSH1 0x20 ADD DUP3 DUP1 SLOAD DUP1 ISZERO PUSH2 0xB9A JUMPI PUSH1 0x20 MUL DUP3 ADD SWAP2 SWAP1 PUSH1 0x0 MSTORE PUSH1 0x20 PUSH1 0x0 KECCAK256 SWAP1 JUMPDEST DUP2 SLOAD PUSH1 0x1 PUSH1 0x1 PUSH1 0xA0 SHL SUB AND DUP2 MSTORE PUSH1 0x1 SWAP1 SWAP2 ADD SWAP1 PUSH1 0x20 ADD DUP1 DUP4 GT PUSH2 0xB7C JUMPI JUMPDEST POP POP POP POP POP SWAP1 POP SWAP1 JUMP JUMPDEST CALLER PUSH1 0x0 SWAP1 DUP2 MSTORE PUSH1 0x1 PUSH1 0x20 MSTORE PUSH1 0x40 SWAP1 KECCAK256 SLOAD PUSH1 0xFF AND PUSH2 0xBD3 JUMPI PUSH1 0x40 MLOAD PUSH3 0x461BCD PUSH1 0xE5 SHL DUP2 MSTORE PUSH1 0x4 ADD PUSH2 0x3F3 SWAP1 PUSH2 0x15D7 JUMP JUMPDEST PUSH1 0x0 DUP2 DUP2 MSTORE PUSH1 0x20 DUP2 SWAP1 MSTORE PUSH1 0x40 DUP2 KECCAK256 DUP1 SLOAD SWAP1 SWAP2 SUB PUSH2 0xC26 JUMPI PUSH1 0x40 MLOAD PUSH3 0x461BCD PUSH1 0xE5 SHL DUP2 MSTORE PUSH1 0x20 PUSH1 0x4 DUP3 ADD MSTORE PUSH1 0x11 PUSH1 0x24 DUP3 ADD MSTORE PUSH17 0x14995C5D595CDD081B9BDD08199BDD5B99 PUSH1 0x7A SHL PUSH1 0x44 DUP3 ADD MSTORE PUSH1 0x64 ADD PUSH2 0x3F3 JUMP JUMPDEST PUSH1 0x7 DUP2 ADD SLOAD PUSH1 0xFF AND ISZERO PUSH2 0xC4B JUMPI PUSH1 0x40 MLOAD PUSH3 0x461BCD PUSH1 0xE5 SHL DUP2 MSTORE PUSH1 0x4 ADD PUSH2 0x3F3 SWAP1 PUSH2 0x166B JUMP JUMPDEST PUSH1 0x7 DUP2 ADD SLOAD PUSH2 0x100 SWAP1 DIV PUSH1 0xFF AND ISZERO PUSH2 0xC99 JUMPI PUSH1 0x40 MLOAD PUSH3 0x461BCD PUSH1 0xE5 SHL DUP2 MSTORE PUSH1 0x20 PUSH1 0x4 DUP3 ADD MSTORE PUSH1 0x11 PUSH1 0x24 DUP3 ADD MSTORE PUSH17 0x14995C5D595CDD0818D85B98D95B1B1959 PUSH1 0x7A SHL PUSH1 0x44 DUP3 ADD MSTORE PUSH1 0x64 ADD PUSH2 0x3F3 JUMP JUMPDEST CALLER PUSH1 0x0 SWAP1 DUP2 MSTORE PUSH1 0x8 DUP3 ADD PUSH1 0x20 MSTORE PUSH1 0x40 SWAP1 KECCAK256 SLOAD PUSH1 0xFF AND ISZERO PUSH2 0xCEE JUMPI PUSH1 0x40 MLOAD PUSH3 0x461BCD PUSH1 0xE5 SHL DUP2 MSTORE PUSH1 0x20 PUSH1 0x4 DUP3 ADD MSTORE PUSH1 0x10 PUSH1 0x24 DUP3 ADD MSTORE PUSH16 0x105B1C9958591E48185C1C1C9BDD9959 PUSH1 0x82 SHL PUSH1 0x44 DUP3 ADD MSTORE PUSH1 0x64 ADD PUSH2 0x3F3 JUMP JUMPDEST CALLER PUSH1 0x0 SWAP1 DUP2 MSTORE PUSH1 0x8 DUP3 ADD PUSH1 0x20 MSTORE PUSH1 0x40 DUP2 KECCAK256 DUP1 SLOAD PUSH1 0xFF NOT AND PUSH1 0x1 OR SWAP1 SSTORE PUSH1 0x5 DUP3 ADD DUP1 SLOAD SWAP2 PUSH2 0xD1A DUP4 PUSH2 0x1652 JUMP JUMPDEST SWAP1 SWAP2 SSTORE POP POP PUSH1 0x40 MLOAD CALLER SWAP1 DUP4 SWAP1 PUSH32 0x7AB1DF95613019BA98DA0113A7ADF5073C9FA62D93B5F202502115266AADC06A SWAP1 PUSH1 0x0 SWAP1 LOG3 PUSH1 0x3 SLOAD DUP2 PUSH1 0x5 ADD SLOAD LT PUSH2 0x6B4 JUMPI PUSH2 0x6B4 DUP3 PUSH2 0x113F JUMP JUMPDEST PUSH1 0x0 DUP2 DUP2 MSTORE PUSH1 0x20 DUP2 SWAP1 MSTORE PUSH1 0x40 DUP2 KECCAK256 PUSH1 0x1 DUP2 ADD SLOAD PUSH1 0x2 DUP3 ADD SLOAD PUSH1 0x4 DUP4 ADD SLOAD PUSH1 0x5 DUP5 ADD SLOAD PUSH1 0x6 DUP6 ADD SLOAD PUSH1 0x7 DUP7 ADD SLOAD PUSH1 0x3 DUP8 ADD DUP1 SLOAD DUP10 SWAP9 PUSH1 0x60 SWAP9 DUP11 SWAP9 DUP10 SWAP9 DUP10 SWAP9 DUP10 SWAP9 DUP10 SWAP9 SWAP6 SWAP8 SWAP5 SWAP7 PUSH1 0x1 PUSH1 0x1 PUSH1 0xA0 SHL SUB SWAP5 DUP6 AND SWAP7 SWAP4 SWAP1 SWAP5 AND SWAP4 SWAP2 SWAP3 SWAP1 SWAP2 PUSH1 0xFF DUP1 DUP4 AND SWAP3 PUSH2 0x100 SWAP1 DIV AND SWAP1 DUP7 SWAP1 PUSH2 0xDD4 SWAP1 PUSH2 0x1695 JUMP JUMPDEST DUP1 PUSH1 0x1F ADD PUSH1 0x20 DUP1 SWAP2 DIV MUL PUSH1 0x20 ADD PUSH1 0x40 MLOAD SWAP1 DUP2 ADD PUSH1 0x40 MSTORE DUP1 SWAP3 SWAP2 SWAP1 DUP2 DUP2 MSTORE PUSH1 0x20 ADD DUP3 DUP1 SLOAD PUSH2 0xE00 SWAP1 PUSH2 0x1695 JUMP JUMPDEST DUP1 ISZERO PUSH2 0xE4D JUMPI DUP1 PUSH1 0x1F LT PUSH2 0xE22 JUMPI PUSH2 0x100 DUP1 DUP4 SLOAD DIV MUL DUP4 MSTORE SWAP2 PUSH1 0x20 ADD SWAP2 PUSH2 0xE4D JUMP JUMPDEST DUP3 ADD SWAP2 SWAP1 PUSH1 0x0 MSTORE PUSH1 0x20 PUSH1 0x0 KECCAK256 SWAP1 JUMPDEST DUP2 SLOAD DUP2 MSTORE SWAP1 PUSH1 0x1 ADD SWAP1 PUSH1 0x20 ADD DUP1 DUP4 GT PUSH2 0xE30 JUMPI DUP3 SWAP1 SUB PUSH1 0x1F AND DUP3 ADD SWAP2 JUMPDEST POP POP POP POP POP SWAP6 POP SWAP9 POP SWAP9 POP SWAP9 POP SWAP9 POP SWAP9 POP SWAP9 POP SWAP9 POP SWAP9 POP POP SWAP2 SWAP4 SWAP6 SWAP8 POP SWAP2 SWAP4 SWAP6 SWAP8 JUMP JUMPDEST PUSH1 0x0 CALLVALUE GT PUSH2 0xEB0 JUMPI PUSH1 0x40 MLOAD PUSH3 0x461BCD PUSH1 0xE5 SHL DUP2 MSTORE PUSH1 0x20 PUSH1 0x4 DUP3 ADD MSTORE PUSH1 0xD PUSH1 0x24 DUP3 ADD MSTORE PUSH13 0x139BC81D985B1D59481CD95B9D PUSH1 0x9A SHL PUSH1 0x44 DUP3 ADD MSTORE PUSH1 0x64 ADD PUSH2 0x3F3 JUMP JUMPDEST PUSH1 0x40 MLOAD CALLVALUE DUP2 MSTORE CALLER SWAP1 PUSH32 0x543BA50A5EEC5E6178218E364B1D0F396157B3C8FA278522C2CB7FD99407D474 SWAP1 PUSH1 0x20 ADD PUSH1 0x40 MLOAD DUP1 SWAP2 SUB SWAP1 LOG2 JUMP JUMPDEST PUSH1 0x5 SLOAD PUSH1 0x1 PUSH1 0x1 PUSH1 0xA0 SHL SUB AND CALLER EQ PUSH2 0xF11 JUMPI PUSH1 0x40 MLOAD PUSH3 0x461BCD PUSH1 0xE5 SHL DUP2 MSTORE PUSH1 0x4 ADD PUSH2 0x3F3 SWAP1 PUSH2 0x15B4 JUMP JUMPDEST PUSH1 0x0 DUP2 GT PUSH2 0xF59 JUMPI PUSH1 0x40 MLOAD PUSH3 0x461BCD PUSH1 0xE5 SHL DUP2 MSTORE PUSH1 0x20 PUSH1 0x4 DUP3 ADD MSTORE PUSH1 0x15 PUSH1 0x24 DUP3 ADD MSTORE PUSH21 0x5468726573686F6C64206D757374206265203E203 PUSH1 0x5C SHL PUSH1 0x44 DUP3 ADD MSTORE PUSH1 0x64 ADD PUSH2 0x3F3 JUMP JUMPDEST PUSH1 0x2 SLOAD DUP2 GT ISZERO PUSH2 0xFAB JUMPI PUSH1 0x40 MLOAD PUSH3 0x461BCD PUSH1 0xE5 SHL DUP2 MSTORE PUSH1 0x20 PUSH1 0x4 DUP3 ADD MSTORE PUSH1 0x18 PUSH1 0x24 DUP3 ADD MSTORE PUSH32 0x5468726573686F6C64203E207369676E657220636F756E740000000000000000 PUSH1 0x44 DUP3 ADD MSTORE PUSH1 0x64 ADD PUSH2 0x3F3 JUMP JUMPDEST PUSH1 0x3 DUP2 SWAP1 SSTORE PUSH1 0x40 MLOAD DUP2 DUP2 MSTORE PUSH32 0xADFA8ECB21B6962EBCD0ADBD9AB985B7B4C5B5EB3B0DEAD683171565C7BFE171 SWAP1 PUSH1 0x20 ADD PUSH1 0x40 MLOAD DUP1 SWAP2 SUB SWAP1 LOG1 POP JUMP JUMPDEST PUSH1 0x5 SLOAD PUSH1 0x1 PUSH1 0x1 PUSH1 0xA0 SHL SUB AND CALLER EQ PUSH2 0x1010 JUMPI PUSH1 0x40 MLOAD PUSH3 0x461BCD PUSH1 0xE5 SHL DUP2 MSTORE PUSH1 0x4 ADD PUSH2 0x3F3 SWAP1 PUSH2 0x15B4 JUMP JUMPDEST PUSH1 0x1 PUSH1 0x1 PUSH1 0xA0 SHL SUB DUP2 AND PUSH2 0x1057 JUMPI PUSH1 0x40 MLOAD PUSH3 0x461BCD PUSH1 0xE5 SHL DUP2 MSTORE PUSH1 0x20 PUSH1 0x4 DUP3 ADD MSTORE PUSH1 0xE PUSH1 0x24 DUP3 ADD MSTORE PUSH14 0x24B73B30B634B21039B4B3B732B9 PUSH1 0x91 SHL PUSH1 0x44 DUP3 ADD MSTORE PUSH1 0x64 ADD PUSH2 0x3F3 JUMP JUMPDEST PUSH1 0x1 PUSH1 0x1 PUSH1 0xA0 SHL SUB DUP2 AND PUSH1 0x0 SWAP1 DUP2 MSTORE PUSH1 0x1 PUSH1 0x20 MSTORE PUSH1 0x40 SWAP1 KECCAK256 SLOAD PUSH1 0xFF AND ISZERO PUSH2 0x10B3 JUMPI PUSH1 0x40 MLOAD PUSH3 0x461BCD PUSH1 0xE5 SHL DUP2 MSTORE PUSH1 0x20 PUSH1 0x4 DUP3 ADD MSTORE PUSH1 0x10 PUSH1 0x24 DUP3 ADD MSTORE PUSH16 0x20B63932B0B23C90309039B4B3B732B9 PUSH1 0x81 SHL PUSH1 0x44 DUP3 ADD MSTORE PUSH1 0x64 ADD PUSH2 0x3F3 JUMP JUMPDEST PUSH1 0x1 PUSH1 0x1 PUSH1 0xA0 SHL SUB DUP2 AND PUSH1 0x0 DUP2 DUP2 MSTORE PUSH1 0x1 PUSH1 0x20 DUP2 SWAP1 MSTORE PUSH1 0x40 DUP1 DUP4 KECCAK256 DUP1 SLOAD PUSH1 0xFF NOT AND DUP4 OR SWAP1 SSTORE PUSH1 0x2 DUP1 SLOAD SWAP3 DUP4 ADD DUP2 SSTORE DUP4 MSTORE PUSH32 0x405787FA12A823E0F2B7631CC41B3BA8828B3321CA811111FA75CD3AA3BB5ACE SWAP1 SWAP2 ADD DUP1 SLOAD PUSH1 0x1 PUSH1 0x1 PUSH1 0xA0 SHL SUB NOT AND DUP5 OR SWAP1 SSTORE MLOAD PUSH32 0x47D1C22A25BB3A5D4E481B9B1E6944C2EADE3181A0A20B495ED61D35B5323F24 SWAP2 SWAP1 LOG2 POP JUMP JUMPDEST PUSH1 0x0 DUP2 DUP2 MSTORE PUSH1 0x20 DUP2 SWAP1 MSTORE PUSH1 0x40 SWAP1 KECCAK256 PUSH1 0x7 DUP2 ADD SLOAD PUSH1 0xFF AND ISZERO PUSH2 0x1172 JUMPI PUSH1 0x40 MLOAD PUSH3 0x461BCD PUSH1 0xE5 SHL DUP2 MSTORE PUSH1 0x4 ADD PUSH2 0x3F3 SWAP1 PUSH2 0x166B JUMP JUMPDEST PUSH1 0x7 DUP2 ADD SLOAD PUSH2 0x100 SWAP1 DIV PUSH1 0xFF AND ISZERO PUSH2 0x11C0 JUMPI PUSH1 0x40 MLOAD PUSH3 0x461BCD PUSH1 0xE5 SHL DUP2 MSTORE PUSH1 0x20 PUSH1 0x4 DUP3 ADD MSTORE PUSH1 0x11 PUSH1 0x24 DUP3 ADD MSTORE PUSH17 0x14995C5D595CDD0818D85B98D95B1B1959 PUSH1 0x7A SHL PUSH1 0x44 DUP3 ADD MSTORE PUSH1 0x64 ADD PUSH2 0x3F3 JUMP JUMPDEST DUP1 PUSH1 0x1 ADD SLOAD SELFBALANCE LT ISZERO PUSH2 0x120B JUMPI PUSH1 0x40 MLOAD PUSH3 0x461BCD PUSH1 0xE5 SHL DUP2 MSTORE PUSH1 0x20 PUSH1 0x4 DUP3 ADD MSTORE PUSH1 0x14 PUSH1 0x24 DUP3 ADD MSTORE PUSH20 0x496E73756666696369656E742062616C616E6365 PUSH1 0x60 SHL PUSH1 0x44 DUP3 ADD MSTORE PUSH1 0x64 ADD PUSH2 0x3F3 JUMP JUMPDEST PUSH1 0x7 DUP2 ADD DUP1 SLOAD PUSH1 0xFF NOT AND PUSH1 0x1 SWAP1 DUP2 OR SWAP1 SWAP2 SSTORE PUSH1 0x2 DUP3 ADD SLOAD SWAP1 DUP3 ADD SLOAD PUSH1 0x40 MLOAD PUSH1 0x0 SWAP3 PUSH1 0x1 PUSH1 0x1 PUSH1 0xA0 SHL SUB AND SWAP2 SWAP1 DUP4 DUP2 DUP2 DUP2 DUP6 DUP8 GAS CALL SWAP3 POP POP POP RETURNDATASIZE DUP1 PUSH1 0x0 DUP2 EQ PUSH2 0x126F JUMPI PUSH1 0x40 MLOAD SWAP2 POP PUSH1 0x1F NOT PUSH1 0x3F RETURNDATASIZE ADD AND DUP3 ADD PUSH1 0x40 MSTORE RETURNDATASIZE DUP3 MSTORE RETURNDATASIZE PUSH1 0x0 PUSH1 0x20 DUP5 ADD RETURNDATACOPY PUSH2 0x1274 JUMP JUMPDEST PUSH1 0x60 SWAP2 POP JUMPDEST POP POP SWAP1 POP DUP1 PUSH2 0x12B7 JUMPI PUSH1 0x40 MLOAD PUSH3 0x461BCD PUSH1 0xE5 SHL DUP2 MSTORE PUSH1 0x20 PUSH1 0x4 DUP3 ADD MSTORE PUSH1 0xF PUSH1 0x24 DUP3 ADD MSTORE PUSH15 0x151C985B9CD9995C8819985A5B1959 PUSH1 0x8A SHL PUSH1 0x44 DUP3 ADD MSTORE PUSH1 0x64 ADD PUSH2 0x3F3 JUMP JUMPDEST DUP3 PUSH32 0x31D3FB496634645407643EB204DAE990BD803A7289718931990377E69FE48CE9 DUP4 PUSH1 0x1 ADD SLOAD PUSH1 0x40 MLOAD PUSH2 0x12ED SWAP2 DUP2 MSTORE PUSH1 0x20 ADD SWAP1 JUMP JUMPDEST PUSH1 0x40 MLOAD DUP1 SWAP2 SUB SWAP1 LOG2 POP POP POP JUMP JUMPDEST PUSH1 0x1 PUSH1 0x1 PUSH1 0xA0 SHL SUB DUP2 AND DUP2 EQ PUSH2 0x130F JUMPI PUSH1 0x0 DUP1 REVERT JUMPDEST POP JUMP JUMPDEST PUSH1 0x0 PUSH1 0x20 DUP3 DUP5 SUB SLT ISZERO PUSH2 0x1324 JUMPI PUSH1 0x0 DUP1 REVERT JUMPDEST DUP2 CALLDATALOAD PUSH2 0x132F DUP2 PUSH2 0x12FA JUMP JUMPDEST SWAP4 SWAP3 POP POP POP JUMP JUMPDEST PUSH1 0x0 DUP1 PUSH1 0x40 DUP4 DUP6 SUB SLT ISZERO PUSH2 0x1349 JUMPI PUSH1 0x0 DUP1 REVERT JUMPDEST DUP3 CALLDATALOAD SWAP2 POP PUSH1 0x20 DUP4 ADD CALLDATALOAD PUSH2 0x135B DUP2 PUSH2 0x12FA JUMP JUMPDEST DUP1 SWAP2 POP POP SWAP3 POP SWAP3 SWAP1 POP JUMP JUMPDEST PUSH1 0x0 PUSH1 0x20 DUP3 DUP5 SUB SLT ISZERO PUSH2 0x1378 JUMPI PUSH1 0x0 DUP1 REVERT JUMPDEST POP CALLDATALOAD SWAP2 SWAP1 POP JUMP JUMPDEST PUSH4 0x4E487B71 PUSH1 0xE0 SHL PUSH1 0x0 MSTORE PUSH1 0x41 PUSH1 0x4 MSTORE PUSH1 0x24 PUSH1 0x0 REVERT JUMPDEST PUSH1 0x0 DUP1 PUSH1 0x0 PUSH1 0x60 DUP5 DUP7 SUB SLT ISZERO PUSH2 0x13AA JUMPI PUSH1 0x0 DUP1 REVERT JUMPDEST DUP4 CALLDATALOAD SWAP3 POP PUSH1 0x20 DUP5 ADD CALLDATALOAD PUSH2 0x13BC DUP2 PUSH2 0x12FA JUMP JUMPDEST SWAP2 POP PUSH1 0x40 DUP5 ADD CALLDATALOAD PUSH8 0xFFFFFFFFFFFFFFFF DUP1 DUP3 GT ISZERO PUSH2 0x13D9 JUMPI PUSH1 0x0 DUP1 REVERT JUMPDEST DUP2 DUP7 ADD SWAP2 POP DUP7 PUSH1 0x1F DUP4 ADD SLT PUSH2 0x13ED JUMPI PUSH1 0x0 DUP1 REVERT JUMPDEST DUP2 CALLDATALOAD DUP2 DUP2 GT ISZERO PUSH2 0x13FF JUMPI PUSH2 0x13FF PUSH2 0x137F JUMP JUMPDEST PUSH1 0x40 MLOAD PUSH1 0x1F DUP3 ADD PUSH1 0x1F NOT SWAP1 DUP2 AND PUSH1 0x3F ADD AND DUP2 ADD SWAP1 DUP4 DUP3 GT DUP2 DUP4 LT OR ISZERO PUSH2 0x1427 JUMPI PUSH2 0x1427 PUSH2 0x137F JUMP JUMPDEST DUP2 PUSH1 0x40 MSTORE DUP3 DUP2 MSTORE DUP10 PUSH1 0x20 DUP5 DUP8 ADD ADD GT ISZERO PUSH2 0x1440 JUMPI PUSH1 0x0 DUP1 REVERT JUMPDEST DUP3 PUSH1 0x20 DUP7 ADD PUSH1 0x20 DUP4 ADD CALLDATACOPY PUSH1 0x0 PUSH1 0x20 DUP5 DUP4 ADD ADD MSTORE DUP1 SWAP6 POP POP POP POP POP POP SWAP3 POP SWAP3 POP SWAP3 JUMP JUMPDEST PUSH1 0x0 DUP2 MLOAD DUP1 DUP5 MSTORE PUSH1 0x0 JUMPDEST DUP2 DUP2 LT ISZERO PUSH2 0x1488 JUMPI PUSH1 0x20 DUP2 DUP6 ADD DUP2 ADD MLOAD DUP7 DUP4 ADD DUP3 ADD MSTORE ADD PUSH2 0x146C JUMP JUMPDEST POP PUSH1 0x0 PUSH1 0x20 DUP3 DUP7 ADD ADD MSTORE PUSH1 0x20 PUSH1 0x1F NOT PUSH1 0x1F DUP4 ADD AND DUP6 ADD ADD SWAP2 POP POP SWAP3 SWAP2 POP POP JUMP JUMPDEST DUP10 DUP2 MSTORE PUSH1 0x20 DUP2 ADD DUP10 SWAP1 MSTORE PUSH1 0x1 PUSH1 0x1 PUSH1 0xA0 SHL SUB DUP9 DUP2 AND PUSH1 0x40 DUP4 ADD MSTORE PUSH2 0x120 PUSH1 0x60 DUP4 ADD DUP2 SWAP1 MSTORE PUSH1 0x0 SWAP2 PUSH2 0x14DB DUP5 DUP4 ADD DUP12 PUSH2 0x1462 JUMP JUMPDEST SWAP9 AND PUSH1 0x80 DUP5 ADD MSTORE POP POP PUSH1 0xA0 DUP2 ADD SWAP5 SWAP1 SWAP5 MSTORE PUSH1 0xC0 DUP5 ADD SWAP3 SWAP1 SWAP3 MSTORE ISZERO ISZERO PUSH1 0xE0 DUP4 ADD MSTORE ISZERO ISZERO PUSH2 0x100 SWAP1 SWAP2 ADD MSTORE SWAP5 SWAP4 POP POP POP POP JUMP JUMPDEST PUSH1 0x20 DUP1 DUP3 MSTORE DUP3 MLOAD DUP3 DUP3 ADD DUP2 SWAP1 MSTORE PUSH1 0x0 SWAP2 SWAP1 DUP5 DUP3 ADD SWAP1 PUSH1 0x40 DUP6 ADD SWAP1 DUP5 JUMPDEST DUP2 DUP2 LT ISZERO PUSH2 0x154D JUMPI DUP4 MLOAD PUSH1 0x1 PUSH1 0x1 PUSH1 0xA0 SHL SUB AND DUP4 MSTORE SWAP3 DUP5 ADD SWAP3 SWAP2 DUP5 ADD SWAP2 PUSH1 0x1 ADD PUSH2 0x1528 JUMP JUMPDEST POP SWAP1 SWAP7 SWAP6 POP POP POP POP POP POP JUMP JUMPDEST DUP9 DUP2 MSTORE PUSH1 0x1 PUSH1 0x1 PUSH1 0xA0 SHL SUB DUP9 DUP2 AND PUSH1 0x20 DUP4 ADD MSTORE PUSH2 0x100 PUSH1 0x40 DUP4 ADD DUP2 SWAP1 MSTORE PUSH1 0x0 SWAP2 PUSH2 0x1585 DUP5 DUP4 ADD DUP12 PUSH2 0x1462 JUMP JUMPDEST SWAP9 AND PUSH1 0x60 DUP5 ADD MSTORE POP POP PUSH1 0x80 DUP2 ADD SWAP5 SWAP1 SWAP5 MSTORE PUSH1 0xA0 DUP5 ADD SWAP3 SWAP1 SWAP3 MSTORE ISZERO ISZERO PUSH1 0xC0 DUP4 ADD MSTORE ISZERO ISZERO PUSH1 0xE0 SWAP1 SWAP2 ADD MSTORE SWAP4 SWAP3 POP POP POP JUMP JUMPDEST PUSH1 0x20 DUP1 DUP3 MSTORE PUSH1 0x9 SWAP1 DUP3 ADD MSTORE PUSH9 0x2737BA1037BBB732B9 PUSH1 0xB9 SHL PUSH1 0x40 DUP3 ADD MSTORE PUSH1 0x60 ADD SWAP1 JUMP JUMPDEST PUSH1 0x20 DUP1 DUP3 MSTORE PUSH1 0xC SWAP1 DUP3 ADD MSTORE PUSH12 0x2737BA10309039B4B3B732B9 PUSH1 0xA1 SHL PUSH1 0x40 DUP3 ADD MSTORE PUSH1 0x60 ADD SWAP1 JUMP JUMPDEST PUSH4 0x4E487B71 PUSH1 0xE0 SHL PUSH1 0x0 MSTORE PUSH1 0x32 PUSH1 0x4 MSTORE PUSH1 0x24 PUSH1 0x0 REVERT JUMPDEST PUSH4 0x4E487B71 PUSH1 0xE0 SHL PUSH1 0x0 MSTORE PUSH1 0x11 PUSH1 0x4 MSTORE PUSH1 0x24 PUSH1 0x0 REVERT JUMPDEST DUP2 DUP2 SUB DUP2 DUP2 GT ISZERO PUSH2 0x619 JUMPI PUSH2 0x619 PUSH2 0x1613 JUMP JUMPDEST PUSH4 0x4E487B71 PUSH1 0xE0 SHL PUSH1 0x0 MSTORE PUSH1 0x31 PUSH1 0x4 MSTORE PUSH1 0x24 PUSH1 0x0 REVERT JUMPDEST PUSH1 0x0 PUSH1 0x1 DUP3 ADD PUSH2 0x1664 JUMPI PUSH2 0x1664 PUSH2 0x1613 JUMP JUMPDEST POP PUSH1 0x1 ADD SWAP1 JUMP JUMPDEST PUSH1 0x20 DUP1 DUP3 MSTORE PUSH1 0x10 SWAP1 DUP3 ADD MSTORE PUSH16 0x105B1C9958591E48195E1958DD5D1959 PUSH1 0x82 SHL PUSH1 0x40 DUP3 ADD MSTORE PUSH1 0x60 ADD SWAP1 JUMP JUMPDEST PUSH1 0x1 DUP2 DUP2 SHR SWAP1 DUP3 AND DUP1 PUSH2 0x16A9 JUMPI PUSH1 0x7F DUP3 AND SWAP2 POP JUMPDEST PUSH1 0x20 DUP3 LT DUP2 SUB PUSH2 0x16C9 JUMPI PUSH4 0x4E487B71 PUSH1 0xE0 SHL PUSH1 0x0 MSTORE PUSH1 0x22 PUSH1 0x4 MSTORE PUSH1 0x24 PUSH1 0x0 REVERT JUMPDEST POP SWAP2 SWAP1 POP JUMP JUMPDEST PUSH1 0x1F DUP3 GT ISZERO PUSH2 0x1719 JUMPI PUSH1 0x0 DUP2 DUP2 MSTORE PUSH1 0x20 DUP2 KECCAK256 PUSH1 0x1F DUP6 ADD PUSH1 0x5 SHR DUP2 ADD PUSH1 0x20 DUP7 LT ISZERO PUSH2 0x16F6 JUMPI POP DUP1 JUMPDEST PUSH1 0x1F DUP6 ADD PUSH1 0x5 SHR DUP3 ADD SWAP2 POP JUMPDEST DUP2 DUP2 LT ISZERO PUSH2 0x1715 JUMPI DUP3 DUP2 SSTORE PUSH1 0x1 ADD PUSH2 0x1702 JUMP JUMPDEST POP POP POP JUMPDEST POP POP POP JUMP JUMPDEST DUP2 MLOAD PUSH8 0xFFFFFFFFFFFFFFFF DUP2 GT ISZERO PUSH2 0x1738 JUMPI PUSH2 0x1738 PUSH2 0x137F JUMP JUMPDEST PUSH2 0x174C DUP2 PUSH2 0x1746 DUP5 SLOAD PUSH2 0x1695 JUMP JUMPDEST DUP5 PUSH2 0x16CF JUMP JUMPDEST PUSH1 0x20 DUP1 PUSH1 0x1F DUP4 GT PUSH1 0x1 DUP2 EQ PUSH2 0x1781 JUMPI PUSH1 0x0 DUP5 ISZERO PUSH2 0x1769 JUMPI POP DUP6 DUP4 ADD MLOAD JUMPDEST PUSH1 0x0 NOT PUSH1 0x3 DUP7 SWAP1 SHL SHR NOT AND PUSH1 0x1 DUP6 SWAP1 SHL OR DUP6 SSTORE PUSH2 0x1715 JUMP JUMPDEST PUSH1 0x0 DUP6 DUP2 MSTORE PUSH1 0x20 DUP2 KECCAK256 PUSH1 0x1F NOT DUP7 AND SWAP2 JUMPDEST DUP3 DUP2 LT ISZERO PUSH2 0x17B0 JUMPI DUP9 DUP7 ADD MLOAD DUP3 SSTORE SWAP5 DUP5 ADD SWAP5 PUSH1 0x1 SWAP1 SWAP2 ADD SWAP1 DUP5 ADD PUSH2 0x1791 JUMP JUMPDEST POP DUP6 DUP3 LT ISZERO PUSH2 0x17CE JUMPI DUP8 DUP6 ADD MLOAD PUSH1 0x0 NOT PUSH1 0x3 DUP9 SWAP1 SHL PUSH1 0xF8 AND SHR NOT AND DUP2 SSTORE JUMPDEST POP POP POP POP POP PUSH1 0x1 SWAP1 DUP2 SHL ADD SWAP1 SSTORE POP JUMP JUMPDEST DUP3 DUP2 MSTORE PUSH1 0x40 PUSH1 0x20 DUP3 ADD MSTORE PUSH1 0x0 PUSH2 0x17F7 PUSH1 0x40 DUP4 ADD DUP5 PUSH2 0x1462 JUMP JUMPDEST SWAP5 SWAP4 POP POP POP POP JUMP INVALID LOG2 PUSH5 0x6970667358 0x22 SLT KECCAK256 MUL DUP12 DELEGATECALL PUSH28 0x12A4AF3B7B212AC5D82350763588206C66781C519E2D147F14C98F33 PUSH5 0x736F6C6343 STOP ADDMOD EQ STOP CALLER "},"methodIdentifiers":{"addSigner(address)":"eb12d61e","approveWithdrawal(uint256)":"9eceddea","cancelWithdrawal(uint256)":"3efcfda4","deposit()":"d0e30db0","executeWithdrawal(uint256)":"24f13a76","getBalance()":"12065fe0","getSigners()":"94cf795e","getWithdrawalRequest(uint256)":"ae485651","hasApproved(uint256,address)":"2358d5a8","nextRequestId()":"6a84a985","propertyOwner()":"f446c38f","removeSigner(address)":"0e316ab7","requiredApprovals()":"99c1aadc","signerList(uint256)":"577ed7e1","signers(address)":"736c0d5b","submitWithdrawal(uint256,address,string)":"6a6ea91b","updateThreshold(uint256)":"d7d7442f","withdrawalRequests(uint256)":"937b2581"}}}}}