{
  "_format": "hh-sol-artifact-1",
  "contractName": "MultiSigTreasury",
  "sourceName": "solidity/MultiSigTreasury.sol",
  "abi": [
    {
      "inputs": [
        {
          "internalType": "address[]",
          "name": "_signers",
          "type": "address[]"
        },
        {
          "internalType": "uint256",
          "name": "_requiredApprovals",
          "type": "uint256"
        },
        {
          "internalType": "address",
          "name": "_propertyOwner",
          "type": "address"
        }
      ],
      "stateMutability": "nonpayable",
      "type": "constructor"
    },
    {
      "anonymous": false,
      "inputs": [
        {
          "indexed": true,
          "internalType": "address",
          "name": "sender",
          "type": "address"
        },
        {
          "indexed": false,
          "internalType": "uint256",
          "name": "amount",
          "type": "uint256"
        }
      ],
      "name": "FundsDeposited",
      "type": "event"
    },
    {
      "anonymous": false,
      "inputs": [
        {
          "indexed": true,
          "internalType": "address",
          "name": "signer",
          "type": "address"
        }
      ],
      "name": "SignerAdded",
      "type": "event"
    },
    {
      "anonymous": false,
      "inputs": [
        {
          "indexed": true,
          "internalType": "address",
          "name": "signer",
          "type": "address"
        }
      ],
      "name": "SignerRemoved",
      "type": "event"
    },
    {
      "anonymous": false,
      "inputs": [
        {
          "indexed": false,
          "internalType": "uint256",
          "name": "newThreshold",
          "type": "uint256"
        }
      ],
      "name": "ThresholdUpdated",
      "type": "event"
    },
    {
      "anonymous": false,
      "inputs": [
        {
          "indexed": true,
          "internalType": "uint256",
          "name": "requestId",
          "type": "uint256"
        },
        {
          "indexed": true,
          "internalType": "address",
          "name": "approver",
          "type": "address"
        }
      ],
      "name": "WithdrawalApproved",
      "type": "event"
    },
    {
      "anonymous": false,
      "inputs": [
        {
          "indexed": true,
          "internalType": "uint256",
          "name": "requestId",
          "type": "uint256"
        }
      ],
      "name": "WithdrawalCancelled",
      "type": "event"
    },
    {
      "anonymous": false,
      "inputs": [
        {
          "indexed": true,
          "internalType": "uint256",
          "name": "requestId",
          "type": "uint256"
        },
        {
          "indexed": false,
          "internalType": "uint256",
          "name": "amount",
          "type": "uint256"
        }
      ],
      "name": "WithdrawalExecuted",
      "type": "event"
    },
    {
      "anonymous": false,
      "inputs": [
        {
          "indexed": true,
          "internalType": "uint256",
          "name": "requestId",
          "type": "uint256"
        },
        {
          "indexed": true,
          "internalType": "address",
          "name": "recipient",
          "type": "address"
        },
        {
          "indexed": false,
          "internalType": "uint256",
          "name": "amount",
          "type": "uint256"
        },
        {
          "indexed": false,
          "internalType": "string",
          "name": "reason",
          "type": "string"
        }
      ],
      "name": "WithdrawalSubmitted",
      "type": "event"
    },
    {
      "inputs": [
        {
          "internalType": "address",
          "name": "signer",
          "type": "address"
        }
      ],
      "name": "addSigner",
      "outputs": [],
      "stateMutability": "nonpayable",
      "type": "function"
    },
    {
      "inputs": [
        {
          "internalType": "uint256",
          "name": "requestId",
          "type": "uint256"
        }
      ],
      "name": "approveWithdrawal",
      "outputs": [],
      "stateMutability": "nonpayable",
      "type": "function"
    },
    {
      "inputs": [
        {
          "internalType": "uint256",
          "name": "requestId",
          "type": "uint256"
        }
      ],
      "name": "cancelWithdrawal",
      "outputs": [],
      "stateMutability": "nonpayable",
      "type": "function"
    },
    {
      "inputs": [],
      "name": "deposit",
      "outputs": [],
      "stateMutability": "payable",
      "type": "function"
    },
    {
      "inputs": [
        {
          "internalType": "uint256",
          "name": "requestId",
          "type": "uint256"
        }
      ],
      "name": "executeWithdrawal",
      "outputs": [],
      "stateMutability": "nonpayable",
      "type": "function"
    },
    {
      "inputs": [],
      "name": "getBalance",
      "outputs": [
        {
          "internalType": "uint256",
          "name": "",
          "type": "uint256"
        }
      ],
      "stateMutability": "view",
      "type": "function"
    },
    {
      "inputs": [],
      "name": "getSigners",
      "outputs": [
        {
          "internalType": "address[]",
          "name": "",
          "type": "address[]"
        }
      ],
      "stateMutability": "view",
      "type": "function"
    },
    {
      "inputs": [
        {
          "internalType": "uint256",
          "name": "requestId",
          "type": "uint256"
        }
      ],
      "name": "getWithdrawalRequest",
      "outputs": [
        {
          "internalType": "uint256",
          "name": "amount",
          "type": "uint256"
        },
        {
          "internalType": "address",
          "name": "recipient",
          "type": "address"
        },
        {
          "internalType": "string",
          "name": "reason",
          "type": "string"
        },
        {
          "internalType": "address",
          "name": "requester",
          "type": "address"
        },
        {
          "internalType": "uint256",
          "name": "approvalCount",
          "type": "uint256"
        },
        {
          "internalType": "uint256",
          "name": "createdAt",
          "type": "uint256"
        },
        {
          "internalType": "bool",
          "name": "executed",
          "type": "bool"
        },
        {
          "internalType": "bool",
          "name": "cancelled",
          "type": "bool"
        }
      ],
      "stateMutability": "view",
      "type": "function"
    },
    {
      "inputs": [
        {
          "internalType": "uint256",
          "name": "requestId",
          "type": "uint256"
        },
        {
          "internalType": "address",
          "name": "signer",
          "type": "address"
        }
      ],
      "name": "hasApproved",
      "outputs": [
        {
          "internalType": "bool",
          "name": "",
          "type": "bool"
        }
      ],
      "stateMutability": "view",
      "type": "function"
    },
    {
      "inputs": [],
      "name": "nextRequestId",
      "outputs": [
        {
          "internalType": "uint256",
          "name": "",
          "type": "uint256"
        }
      ],
      "stateMutability": "view",
      "type": "function"
    },
    {
      "inputs": [],
      "name": "propertyOwner",
      "outputs": [
        {
          "internalType": "address",
          "name": "",
          "type": "address"
        }
      ],
      "stateMutability": "view",
      "type": "function"
    },
    {
      "inputs": [
        {
          "internalType": "address",
          "name": "signer",
          "type": "address"
        }
      ],
      "name": "removeSigner",
      "outputs": [],
      "stateMutability": "nonpayable",
      "type": "function"
    },
    {
      "inputs": [],
      "name": "requiredApprovals",
      "outputs": [
        {
          "internalType": "uint256",
          "name": "",
          "type": "uint256"
        }
      ],
      "stateMutability": "view",
      "type": "function"
    },
    {
      "inputs": [
        {
          "internalType": "uint256",
          "name": "",
          "type": "uint256"
        }
      ],
      "name": "signerList",
      "outputs": [
        {
          "internalType": "address",
          "name": "",
          "type": "address"
        }
      ],
      "stateMutability": "view",
      "type": "function"
    },
    {
      "inputs": [
        {
          "internalType": "address",
          "name": "",
          "type": "address"
        }
      ],
      "name": "signers",
      "outputs": [
        {
          "internalType": "bool",
          "name": "",
          "type": "bool"
        }
      ],
      "stateMutability": "view",
      "type": "function"
    },
    {
      "inputs": [
        {
          "internalType": "uint256",
          "name": "amount",
          "type": "uint256"
        },
        {
          "internalType": "address payable",
          "name": "recipient",
          "type": "address"
        },
        {
          "internalType": "string",
          "name": "reason",
          "type": "string"
        }
      ],
      "name": "submitWithdrawal",
      "outputs": [
        {
          "internalType": "uint256",
          "name": "requestId",
          "type": "uint256"
        }
      ],
      "stateMutability": "nonpayable",
      "type": "function"
    },
    {
      "inputs": [
        {
          "internalType": "uint256",
          "name": "newThreshold",
          "type": "uint256"
        }
      ],
      "name": "updateThreshold",
      "outputs": [],
      "stateMutability": "nonpayable",
      "type": "function"
    },
    {
      "inputs": [
        {
          "internalType": "uint256",
          "name": "",
          "type": "uint256"
        }
      ],
      "name": "withdrawalRequests",
      "outputs": [
        {
          "internalType": "uint256",
          "name": "requestId",
          "type": "uint256"
        },
        {
          "internalType": "uint256",
          "name": "amount",
          "type": "uint256"
        },
        {
          "internalType": "address payable",
          "name": "recipient",
          "type": "address"
        },
        {
          "internalType": "string",
          "name": "reason",
          "type": "string"
        },
        {
          "internalType": "address",
          "name": "requester",
          "type": "address"
        },
        {
          "internalType": "uint256",
          "name": "approvalCount",
          "type": "uint256"
        },
        {
          "internalType": "uint256",
          "name": "createdAt",
          "type": "uint256"
        },
        {
          "internalType": "bool",
          "name": "executed",
          "type": "bool"
        },
        {
          "internalType": "bool",
          "name": "cancelled",
          "type": "bool"
        }
      ],
      "stateMutability": "view",
      "type": "function"
    },
    {
      "stateMutability": "payable",
      "type": "receive"
    }
  ],
  "bytecode": "0x60806040523480156200001157600080fd5b5060405162001c2738038062001c278339810160408190526200003491620002b4565b81835110156200007f5760405162461bcd60e51b8152602060048201526011602482015270125b9d985b1a59081d1a1c995cda1bdb19607a1b60448201526064015b60405180910390fd5b60008211620000d15760405162461bcd60e51b815260206004820152601560248201527f5468726573686f6c64206d757374206265203e20300000000000000000000000604482015260640162000076565b600580546001600160a01b0319166001600160a01b038316179055600382905560005b835181101562000271576000848281518110620001155762000115620003a4565b6020026020010151905060006001600160a01b0316816001600160a01b031603620001745760405162461bcd60e51b815260206004820152600e60248201526d24b73b30b634b21039b4b3b732b960911b604482015260640162000076565b6001600160a01b03811660009081526001602052604090205460ff1615620001d25760405162461bcd60e51b815260206004820152601060248201526f223ab83634b1b0ba329039b4b3b732b960811b604482015260640162000076565b6001600160a01b0381166000818152600160208190526040808320805460ff19168317905560028054928301815583527f405787fa12a823e0f2b7631cc41b3ba8828b3321ca811111fa75cd3aa3bb5ace90910180546001600160a01b03191684179055517f47d1c22a25bb3a5d4e481b9b1e6944c2eade3181a0a20b495ed61d35b5323f249190a250806200026881620003ba565b915050620000f4565b5050600160045550620003e29050565b634e487b7160e01b600052604160045260246000fd5b80516001600160a01b0381168114620002af57600080fd5b919050565b600080600060608486031215620002ca57600080fd5b83516001600160401b0380821115620002e257600080fd5b818601915086601f830112620002f757600080fd5b81516020828211156200030e576200030e62000281565b8160051b604051601f19603f8301168101818110868211171562000336576200033662000281565b60405292835281830193508481018201928a8411156200035557600080fd5b948201945b838610156200037e576200036e8662000297565b855294820194938201936200035a565b8098505050808801519550505050506200039b6040850162000297565b90509250925092565b634e487b7160e01b600052603260045260246000fd5b600060018201620003db57634e487b7160e01b600052601160045260246000fd5b5060010190565b61183580620003f26000396000f3fe60806040526004361061010d5760003560e01c8063937b258111610095578063ae48565111610064578063ae4856511461032d578063d0e30db014610361578063d7d7442f14610369578063eb12d61e14610389578063f446c38f146103a957600080fd5b8063937b2581146102a057806394cf795e146102d557806399c1aadc146102f75780639eceddea1461030d57600080fd5b80633efcfda4116100dc5780633efcfda4146101e2578063577ed7e1146102025780636a6ea91b1461023a5780636a84a9851461025a578063736c0d5b1461027057600080fd5b80630e316ab71461014e57806312065fe0146101705780632358d5a81461019257806324f13a76146101c257600080fd5b366101495760405134815233907f543ba50a5eec5e6178218e364b1d0f396157b3c8fa278522c2cb7fd99407d4749060200160405180910390a2005b600080fd5b34801561015a57600080fd5b5061016e610169366004611312565b6103c9565b005b34801561017c57600080fd5b50475b6040519081526020015b60405180910390f35b34801561019e57600080fd5b506101b26101ad366004611336565b6105f1565b6040519015158152602001610189565b3480156101ce57600080fd5b5061016e6101dd366004611366565b61061f565b3480156101ee57600080fd5b5061016e6101fd366004611366565b6106b8565b34801561020e57600080fd5b5061022261021d366004611366565b61084f565b6040516001600160a01b039091168152602001610189565b34801561024657600080fd5b5061017f610255366004611395565b610879565b34801561026657600080fd5b5061017f60045481565b34801561027c57600080fd5b506101b261028b366004611312565b60016020526000908152604090205460ff1681565b3480156102ac57600080fd5b506102c06102bb366004611366565b610a56565b604051610189999897969594939291906114a8565b3480156102e157600080fd5b506102ea610b42565b604051610189919061150c565b34801561030357600080fd5b5061017f60035481565b34801561031957600080fd5b5061016e610328366004611366565b610ba4565b34801561033957600080fd5b5061034d610348366004611366565b610d62565b604051610189989796959493929190611559565b61016e610e70565b34801561037557600080fd5b5061016e610384366004611366565b610ee7565b34801561039557600080fd5b5061016e6103a4366004611312565b610fe6565b3480156103b557600080fd5b50600554610222906001600160a01b031681565b6005546001600160a01b031633146103fc5760405162461bcd60e51b81526004016103f3906115b4565b60405180910390fd5b6001600160a01b03811660009081526001602052604090205460ff166104345760405162461bcd60e51b81526004016103f3906115d7565b600354600254116104935760405162461bcd60e51b8152602060048201526024808201527f43616e6e6f742072656d6f76652c20776f756c6420627265616b2074687265736044820152631a1bdb1960e21b60648201526084016103f3565b6001600160a01b0381166000908152600160205260408120805460ff191690555b6002548110156105b957816001600160a01b0316600282815481106104db576104db6115fd565b6000918252602090912001546001600160a01b0316036105a7576002805461050590600190611629565b81548110610515576105156115fd565b600091825260209091200154600280546001600160a01b039092169183908110610541576105416115fd565b9060005260206000200160006101000a8154816001600160a01b0302191690836001600160a01b0316021790555060028054806105805761058061163c565b600082815260209020810160001990810180546001600160a01b03191690550190556105b9565b806105b181611652565b9150506104b4565b506040516001600160a01b038216907f3525e22824a8a7df2c9a6029941c824cf95b6447f1e13d5128fd3826d35afe8b90600090a250565b6000828152602081815260408083206001600160a01b038516845260080190915290205460ff165b92915050565b3360009081526001602052604090205460ff1661064e5760405162461bcd60e51b81526004016103f3906115d7565b6000818152602081905260409020600354600582015410156106ab5760405162461bcd60e51b8152602060048201526016602482015275496e73756666696369656e7420617070726f76616c7360501b60448201526064016103f3565b6106b48261113f565b5050565b3360009081526001602052604090205460ff166106e75760405162461bcd60e51b81526004016103f3906115d7565b6000818152602081905260408120805490910361073a5760405162461bcd60e51b815260206004820152601160248201527014995c5d595cdd081b9bdd08199bdd5b99607a1b60448201526064016103f3565b600781015460ff161561075f5760405162461bcd60e51b81526004016103f39061166b565b6007810154610100900460ff16156107ad5760405162461bcd60e51b8152602060048201526011602482015270105b1c9958591e4818d85b98d95b1b1959607a1b60448201526064016103f3565b60048101546001600160a01b03163314806107d257506005546001600160a01b031633145b61080f5760405162461bcd60e51b815260206004820152600e60248201526d139bdd08185d5d1a1bdc9a5e995960921b60448201526064016103f3565b60078101805461ff00191661010017905560405182907fe8de1e631ea541ac8e6cb398aafb71b991eb58d489298f7bc93ba7e17fa2042b90600090a25050565b6002818154811061085f57600080fd5b6000918252602090912001546001600160a01b0316905081565b3360009081526001602052604081205460ff166108a85760405162461bcd60e51b81526004016103f3906115d7565b600084116108ed5760405162461bcd60e51b81526020600482015260126024820152710416d6f756e74206d757374206265203e20360741b60448201526064016103f3565b6001600160a01b0383166109375760405162461bcd60e51b8152602060048201526011602482015270125b9d985b1a59081c9958da5c1a595b9d607a1b60448201526064016103f3565b8347101561097e5760405162461bcd60e51b8152602060048201526014602482015273496e73756666696369656e742062616c616e636560601b60448201526064016103f3565b6004805490600061098e83611652565b909155506000818152602081905260409020818155600181018690556002810180546001600160a01b0319166001600160a01b038716179055909150600381016109d8848261171e565b506004810180546001600160a01b031916331790556000600582015542600682015560078101805461ffff191690556040516001600160a01b0385169083907f74277e6840cdadb4ecca502efb6aab5fa703592fb13f9b2f94188aa905cc637e90610a4690899088906117de565b60405180910390a3509392505050565b6000602081905290815260409020805460018201546002830154600384018054939492936001600160a01b039092169291610a9090611695565b80601f0160208091040260200160405190810160405280929190818152602001828054610abc90611695565b8015610b095780601f10610ade57610100808354040283529160200191610b09565b820191906000526020600020905b815481529060010190602001808311610aec57829003601f168201915b5050505060048301546005840154600685015460079095015493946001600160a01b039092169390925060ff8082169161010090041689565b60606002805480602002602001604051908101604052809291908181526020018280548015610b9a57602002820191906000526020600020905b81546001600160a01b03168152600190910190602001808311610b7c575b5050505050905090565b3360009081526001602052604090205460ff16610bd35760405162461bcd60e51b81526004016103f3906115d7565b60008181526020819052604081208054909103610c265760405162461bcd60e51b815260206004820152601160248201527014995c5d595cdd081b9bdd08199bdd5b99607a1b60448201526064016103f3565b600781015460ff1615610c4b5760405162461bcd60e51b81526004016103f39061166b565b6007810154610100900460ff1615610c995760405162461bcd60e51b815260206004820152601160248201527014995c5d595cdd0818d85b98d95b1b1959607a1b60448201526064016103f3565b33600090815260088201602052604090205460ff1615610cee5760405162461bcd60e51b815260206004820152601060248201526f105b1c9958591e48185c1c1c9bdd995960821b60448201526064016103f3565b3360009081526008820160205260408120805460ff1916600117905560058201805491610d1a83611652565b9091555050604051339083907f7ab1df95613019ba98da0113a7adf5073c9fa62d93b5f202502115266aadc06a90600090a36003548160050154106106b4576106b48261113f565b600081815260208190526040812060018101546002820154600483015460058401546006850154600786015460038701805489986060988a988998899889988998959794966001600160a01b039485169693909416939192909160ff80831692610100900416908690610dd490611695565b80601f0160208091040260200160405190810160405280929190818152602001828054610e0090611695565b8015610e4d5780601f10610e2257610100808354040283529160200191610e4d565b820191906000526020600020905b815481529060010190602001808311610e3057829003601f168201915b505050505095509850985098509850985098509850985050919395975091939597565b60003411610eb05760405162461bcd60e51b815260206004820152600d60248201526c139bc81d985b1d59481cd95b9d609a1b60448201526064016103f3565b60405134815233907f543ba50a5eec5e6178218e364b1d0f396157b3c8fa278522c2cb7fd99407d4749060200160405180910390a2565b6005546001600160a01b03163314610f115760405162461bcd60e51b81526004016103f3906115b4565b60008111610f595760405162461bcd60e51b815260206004820152601560248201527405468726573686f6c64206d757374206265203e203605c1b60448201526064016103f3565b600254811115610fab5760405162461bcd60e51b815260206004820152601860248201527f5468726573686f6c64203e207369676e657220636f756e74000000000000000060448201526064016103f3565b60038190556040518181527fadfa8ecb21b6962ebcd0adbd9ab985b7b4c5b5eb3b0dead683171565c7bfe1719060200160405180910390a150565b6005546001600160a01b031633146110105760405162461bcd60e51b81526004016103f3906115b4565b6001600160a01b0381166110575760405162461bcd60e51b815260206004820152600e60248201526d24b73b30b634b21039b4b3b732b960911b60448201526064016103f3565b6001600160a01b03811660009081526001602052604090205460ff16156110b35760405162461bcd60e51b815260206004820152601060248201526f20b63932b0b23c90309039b4b3b732b960811b60448201526064016103f3565b6001600160a01b0381166000818152600160208190526040808320805460ff19168317905560028054928301815583527f405787fa12a823e0f2b7631cc41b3ba8828b3321ca811111fa75cd3aa3bb5ace90910180546001600160a01b03191684179055517f47d1c22a25bb3a5d4e481b9b1e6944c2eade3181a0a20b495ed61d35b5323f249190a250565b6000818152602081905260409020600781015460ff16156111725760405162461bcd60e51b81526004016103f39061166b565b6007810154610100900460ff16156111c05760405162461bcd60e51b815260206004820152601160248201527014995c5d595cdd0818d85b98d95b1b1959607a1b60448201526064016103f3565b806001015447101561120b5760405162461bcd60e51b8152602060048201526014602482015273496e73756666696369656e742062616c616e636560601b60448201526064016103f3565b60078101805460ff191660019081179091556002820154908201546040516000926001600160a01b031691908381818185875af1925050503d806000811461126f576040519150601f19603f3d011682016040523d82523d6000602084013e611274565b606091505b50509050806112b75760405162461bcd60e51b815260206004820152600f60248201526e151c985b9cd9995c8819985a5b1959608a1b60448201526064016103f3565b827f31d3fb496634645407643eb204dae990bd803a7289718931990377e69fe48ce983600101546040516112ed91815260200190565b60405180910390a2505050565b6001600160a01b038116811461130f57600080fd5b50565b60006020828403121561132457600080fd5b813561132f816112fa565b9392505050565b6000806040838503121561134957600080fd5b82359150602083013561135b816112fa565b809150509250929050565b60006020828403121561137857600080fd5b5035919050565b634e487b7160e01b600052604160045260246000fd5b6000806000606084860312156113aa57600080fd5b8335925060208401356113bc816112fa565b9150604084013567ffffffffffffffff808211156113d957600080fd5b818601915086601f8301126113ed57600080fd5b8135818111156113ff576113ff61137f565b604051601f8201601f19908116603f011681019083821181831017156114275761142761137f565b8160405282815289602084870101111561144057600080fd5b8260208601602083013760006020848301015280955050505050509250925092565b6000815180845260005b818110156114885760208185018101518683018201520161146c565b506000602082860101526020601f19601f83011685010191505092915050565b898152602081018990526001600160a01b038881166040830152610120606083018190526000916114db8483018b611462565b98166080840152505060a081019490945260c0840192909252151560e0830152151561010090910152949350505050565b6020808252825182820181905260009190848201906040850190845b8181101561154d5783516001600160a01b031683529284019291840191600101611528565b50909695505050505050565b8881526001600160a01b038881166020830152610100604083018190526000916115858483018b611462565b981660608401525050608081019490945260a0840192909252151560c0830152151560e0909101529392505050565b6020808252600990820152682737ba1037bbb732b960b91b604082015260600190565b6020808252600c908201526b2737ba10309039b4b3b732b960a11b604082015260600190565b634e487b7160e01b600052603260045260246000fd5b634e487b7160e01b600052601160045260246000fd5b8181038181111561061957610619611613565b634e487b7160e01b600052603160045260246000fd5b60006001820161166457611664611613565b5060010190565b60208082526010908201526f105b1c9958591e48195e1958dd5d195960821b604082015260600190565b600181811c908216806116a957607f821691505b6020821081036116c957634e487b7160e01b600052602260045260246000fd5b50919050565b601f82111561171957600081815260208120601f850160051c810160208610156116f65750805b601f850160051c820191505b8181101561171557828155600101611702565b5050505b505050565b815167ffffffffffffffff8111156117385761173861137f565b61174c816117468454611695565b846116cf565b602080601f83116001811461178157600084156117695750858301515b600019600386901b1c1916600185901b178555611715565b600085815260208120601f198616915b828110156117b057888601518255948401946001909101908401611791565b50858210156117ce5787850151600019600388901b60f8161c191681555b5050505050600190811b01905550565b8281526040602082015260006117f76040830184611462565b94935050505056fea2646970667358221220028bf47b12a4af3b7b212ac5d82350763588206c66781c519e2d147f14c98f3364736f6c63430008140033",
  "linkReferences": {},
  "deployedLinkReferences": {}
}