{
  "_format": "hh-sol-artifact-1",
  "contractName": "PlatformEscrowManager",
  "sourceName": "solidity/PlatformEscrowManager.sol",
  "abi": [
    {
      "inputs": [],
      "stateMutability": "nonpayable",
      "type": "constructor"
    },
    {
      "anonymous": false,
      "inputs": [
        {
          "indexed": true,
          "internalType": "bytes32",
          "name": "tokenizationId",
          "type": "bytes32"
        }
      ],
      "name": "EscrowCancelled",
      "type": "event"
    },
    {
      "anonymous": false,
      "inputs": [
        {
          "indexed": true,
          "internalType": "bytes32",
          "name": "tokenizationId",
          "type": "bytes32"
        },
        {
          "indexed": false,
          "internalType": "uint256",
          "name": "targetRaise",
          "type": "uint256"
        },
        {
          "indexed": false,
          "internalType": "uint256",
          "name": "minimumRaise",
          "type": "uint256"
        },
        {
          "indexed": false,
          "internalType": "uint256",
          "name": "deadline",
          "type": "uint256"
        }
      ],
      "name": "EscrowCreated",
      "type": "event"
    },
    {
      "anonymous": false,
      "inputs": [
        {
          "indexed": true,
          "internalType": "bytes32",
          "name": "tokenizationId",
          "type": "bytes32"
        },
        {
          "indexed": false,
          "internalType": "uint256",
          "name": "totalRaised",
          "type": "uint256"
        }
      ],
      "name": "EscrowFinalized",
      "type": "event"
    },
    {
      "anonymous": false,
      "inputs": [
        {
          "indexed": true,
          "internalType": "bytes32",
          "name": "investmentId",
          "type": "bytes32"
        },
        {
          "indexed": true,
          "internalType": "bytes32",
          "name": "tokenizationId",
          "type": "bytes32"
        },
        {
          "indexed": true,
          "internalType": "address",
          "name": "investor",
          "type": "address"
        },
        {
          "indexed": false,
          "internalType": "uint256",
          "name": "amount",
          "type": "uint256"
        }
      ],
      "name": "InvestmentDeposited",
      "type": "event"
    },
    {
      "anonymous": false,
      "inputs": [
        {
          "indexed": true,
          "internalType": "bytes32",
          "name": "investmentId",
          "type": "bytes32"
        },
        {
          "indexed": true,
          "internalType": "address",
          "name": "investor",
          "type": "address"
        },
        {
          "indexed": false,
          "internalType": "uint256",
          "name": "amount",
          "type": "uint256"
        }
      ],
      "name": "RefundIssued",
      "type": "event"
    },
    {
      "inputs": [
        {
          "internalType": "address",
          "name": "caller",
          "type": "address"
        }
      ],
      "name": "addAuthorizedCaller",
      "outputs": [],
      "stateMutability": "nonpayable",
      "type": "function"
    },
    {
      "inputs": [
        {
          "internalType": "address",
          "name": "",
          "type": "address"
        }
      ],
      "name": "authorizedCallers",
      "outputs": [
        {
          "internalType": "bool",
          "name": "",
          "type": "bool"
        }
      ],
      "stateMutability": "view",
      "type": "function"
    },
    {
      "inputs": [
        {
          "internalType": "bytes32",
          "name": "investmentId",
          "type": "bytes32"
        }
      ],
      "name": "canClaimRefund",
      "outputs": [
        {
          "internalType": "bool",
          "name": "",
          "type": "bool"
        }
      ],
      "stateMutability": "view",
      "type": "function"
    },
    {
      "inputs": [
        {
          "internalType": "bytes32",
          "name": "tokenizationId",
          "type": "bytes32"
        }
      ],
      "name": "cancelEscrow",
      "outputs": [],
      "stateMutability": "nonpayable",
      "type": "function"
    },
    {
      "inputs": [
        {
          "internalType": "bytes32",
          "name": "investmentId",
          "type": "bytes32"
        }
      ],
      "name": "claimRefund",
      "outputs": [],
      "stateMutability": "nonpayable",
      "type": "function"
    },
    {
      "inputs": [
        {
          "internalType": "bytes32",
          "name": "tokenizationId",
          "type": "bytes32"
        },
        {
          "internalType": "uint256",
          "name": "targetRaise",
          "type": "uint256"
        },
        {
          "internalType": "uint256",
          "name": "minimumRaise",
          "type": "uint256"
        },
        {
          "internalType": "uint256",
          "name": "deadline",
          "type": "uint256"
        },
        {
          "internalType": "address",
          "name": "propertyOwner",
          "type": "address"
        }
      ],
      "name": "createEscrow",
      "outputs": [],
      "stateMutability": "nonpayable",
      "type": "function"
    },
    {
      "inputs": [
        {
          "internalType": "bytes32",
          "name": "tokenizationId",
          "type": "bytes32"
        },
        {
          "internalType": "bytes32",
          "name": "investmentId",
          "type": "bytes32"
        },
        {
          "internalType": "address",
          "name": "investor",
          "type": "address"
        }
      ],
      "name": "depositInvestment",
      "outputs": [],
      "stateMutability": "payable",
      "type": "function"
    },
    {
      "inputs": [
        {
          "internalType": "bytes32",
          "name": "",
          "type": "bytes32"
        },
        {
          "internalType": "uint256",
          "name": "",
          "type": "uint256"
        }
      ],
      "name": "escrowInvestments",
      "outputs": [
        {
          "internalType": "bytes32",
          "name": "",
          "type": "bytes32"
        }
      ],
      "stateMutability": "view",
      "type": "function"
    },
    {
      "inputs": [
        {
          "internalType": "bytes32",
          "name": "",
          "type": "bytes32"
        }
      ],
      "name": "escrows",
      "outputs": [
        {
          "internalType": "bytes32",
          "name": "tokenizationId",
          "type": "bytes32"
        },
        {
          "internalType": "uint256",
          "name": "targetRaise",
          "type": "uint256"
        },
        {
          "internalType": "uint256",
          "name": "minimumRaise",
          "type": "uint256"
        },
        {
          "internalType": "uint256",
          "name": "currentRaise",
          "type": "uint256"
        },
        {
          "internalType": "uint256",
          "name": "deadline",
          "type": "uint256"
        },
        {
          "internalType": "enum PlatformEscrowManager.EscrowStatus",
          "name": "status",
          "type": "uint8"
        },
        {
          "internalType": "uint256",
          "name": "investorCount",
          "type": "uint256"
        },
        {
          "internalType": "address",
          "name": "propertyOwner",
          "type": "address"
        }
      ],
      "stateMutability": "view",
      "type": "function"
    },
    {
      "inputs": [
        {
          "internalType": "bytes32",
          "name": "tokenizationId",
          "type": "bytes32"
        }
      ],
      "name": "finalizeEscrow",
      "outputs": [],
      "stateMutability": "nonpayable",
      "type": "function"
    },
    {
      "inputs": [
        {
          "internalType": "bytes32",
          "name": "tokenizationId",
          "type": "bytes32"
        }
      ],
      "name": "getEscrow",
      "outputs": [
        {
          "components": [
            {
              "internalType": "bytes32",
              "name": "tokenizationId",
              "type": "bytes32"
            },
            {
              "internalType": "uint256",
              "name": "targetRaise",
              "type": "uint256"
            },
            {
              "internalType": "uint256",
              "name": "minimumRaise",
              "type": "uint256"
            },
            {
              "internalType": "uint256",
              "name": "currentRaise",
              "type": "uint256"
            },
            {
              "internalType": "uint256",
              "name": "deadline",
              "type": "uint256"
            },
            {
              "internalType": "enum PlatformEscrowManager.EscrowStatus",
              "name": "status",
              "type": "uint8"
            },
            {
              "internalType": "uint256",
              "name": "investorCount",
              "type": "uint256"
            },
            {
              "internalType": "address",
              "name": "propertyOwner",
              "type": "address"
            }
          ],
          "internalType": "struct PlatformEscrowManager.Escrow",
          "name": "",
          "type": "tuple"
        }
      ],
      "stateMutability": "view",
      "type": "function"
    },
    {
      "inputs": [
        {
          "internalType": "bytes32",
          "name": "investmentId",
          "type": "bytes32"
        }
      ],
      "name": "getInvestment",
      "outputs": [
        {
          "components": [
            {
              "internalType": "bytes32",
              "name": "investmentId",
              "type": "bytes32"
            },
            {
              "internalType": "bytes32",
              "name": "tokenizationId",
              "type": "bytes32"
            },
            {
              "internalType": "address",
              "name": "investor",
              "type": "address"
            },
            {
              "internalType": "uint256",
              "name": "amount",
              "type": "uint256"
            },
            {
              "internalType": "bool",
              "name": "refunded",
              "type": "bool"
            },
            {
              "internalType": "uint256",
              "name": "timestamp",
              "type": "uint256"
            }
          ],
          "internalType": "struct PlatformEscrowManager.Investment",
          "name": "",
          "type": "tuple"
        }
      ],
      "stateMutability": "view",
      "type": "function"
    },
    {
      "inputs": [
        {
          "internalType": "bytes32",
          "name": "",
          "type": "bytes32"
        }
      ],
      "name": "investments",
      "outputs": [
        {
          "internalType": "bytes32",
          "name": "investmentId",
          "type": "bytes32"
        },
        {
          "internalType": "bytes32",
          "name": "tokenizationId",
          "type": "bytes32"
        },
        {
          "internalType": "address",
          "name": "investor",
          "type": "address"
        },
        {
          "internalType": "uint256",
          "name": "amount",
          "type": "uint256"
        },
        {
          "internalType": "bool",
          "name": "refunded",
          "type": "bool"
        },
        {
          "internalType": "uint256",
          "name": "timestamp",
          "type": "uint256"
        }
      ],
      "stateMutability": "view",
      "type": "function"
    },
    {
      "inputs": [],
      "name": "owner",
      "outputs": [
        {
          "internalType": "address",
          "name": "",
          "type": "address"
        }
      ],
      "stateMutability": "view",
      "type": "function"
    },
    {
      "inputs": [
        {
          "internalType": "bytes32",
          "name": "tokenizationId",
          "type": "bytes32"
        }
      ],
      "name": "refundInvestors",
      "outputs": [],
      "stateMutability": "nonpayable",
      "type": "function"
    },
    {
      "inputs": [
        {
          "internalType": "address",
          "name": "caller",
          "type": "address"
        }
      ],
      "name": "removeAuthorizedCaller",
      "outputs": [],
      "stateMutability": "nonpayable",
      "type": "function"
    },
    {
      "stateMutability": "payable",
      "type": "receive"
    }
  ],
  "bytecode": "0x608060405234801561001057600080fd5b50600480546001600160a01b031916339081179091556000908152600360205260409020805460ff1916600117905561176a8061004e6000396000f3fe6080604052600436106100f75760003560e01c80638da5cb5b1161008a578063d7eb937911610059578063d7eb93791461040b578063ee5e3b81146104a4578063f023b811146104c4578063feacd71f146104f157600080fd5b80638da5cb5b14610365578063b7aa02311461039d578063c1ae5646146103bd578063c6b82d68146103dd57600080fd5b8063613a7339116100c6578063613a73391461020d57806371de2ffc1461022057806384425f7d146102405780638ccec0681461034557600080fd5b806313a155ea14610103578063194de7e6146101255780632d83549c14610145578063536fff6c146101cd57600080fd5b366100fe57005b600080fd5b34801561010f57600080fd5b5061012361011e3660046114af565b610511565b005b34801561013157600080fd5b506101236101403660046114d1565b610580565b34801561015157600080fd5b506101b06101603660046114d1565b600060208190529081526040902080546001820154600283015460038401546004850154600586015460068701546007909701549596949593949293919260ff909116916001600160a01b031688565b6040516101c4989796959493929190611522565b60405180910390f35b3480156101d957600080fd5b506101fd6101e83660046114af565b60036020526000908152604090205460ff1681565b60405190151581526020016101c4565b61012361021b366004611577565b61076f565b34801561022c57600080fd5b5061012361023b3660046114d1565b610a09565b34801561024c57600080fd5b506102f361025b3660046114d1565b6040805160c081018252600080825260208201819052918101829052606081018290526080810182905260a081019190915250600090815260016020818152604092839020835160c08101855281548152928101549183019190915260028101546001600160a01b03169282019290925260038201546060820152600482015460ff161515608082015260059091015460a082015290565b6040516101c4919081518152602080830151908201526040808301516001600160a01b0316908201526060808301519082015260808083015115159082015260a0918201519181019190915260c00190565b34801561035157600080fd5b506101236103603660046115ac565b610c8b565b34801561037157600080fd5b50600454610385906001600160a01b031681565b6040516001600160a01b0390911681526020016101c4565b3480156103a957600080fd5b506101236103b83660046114af565b610eeb565b3480156103c957600080fd5b506101236103d83660046114d1565b610f52565b3480156103e957600080fd5b506103fd6103f83660046115f5565b611036565b6040519081526020016101c4565b34801561041757600080fd5b506104696104263660046114d1565b600160208190526000918252604090912080549181015460028201546003830154600484015460059094015492936001600160a01b0390921692909160ff169086565b6040805196875260208701959095526001600160a01b03909316938501939093526060840152901515608083015260a082015260c0016101c4565b3480156104b057600080fd5b506101236104bf3660046114d1565b611067565b3480156104d057600080fd5b506104e46104df3660046114d1565b611137565b6040516101c49190611617565b3480156104fd57600080fd5b506101fd61050c3660046114d1565b6111eb565b6004546001600160a01b0316331461055c5760405162461bcd60e51b81526020600482015260096024820152682737ba1037bbb732b960b91b60448201526064015b60405180910390fd5b6001600160a01b03166000908152600360205260409020805460ff19166001179055565b3360009081526003602052604090205460ff16806105a857506004546001600160a01b031633145b6105c45760405162461bcd60e51b815260040161055390611683565b600081815260208190526040812090600582015460ff1660038111156105ec576105ec6114ea565b146106095760405162461bcd60e51b8152600401610553906116ab565b80600201548160030154101580610624575080600401544210155b6106665760405162461bcd60e51b815260206004820152601360248201527210d85b9b9bdd08199a5b985b1a5e99481e595d606a1b6044820152606401610553565b80600201548160030154106107625760058101805460ff19166001179055600781015460038201546040516000926001600160a01b031691908381818185875af1925050503d80600081146106d7576040519150601f19603f3d011682016040523d82523d6000602084013e6106dc565b606091505b505090508061071f5760405162461bcd60e51b815260206004820152600f60248201526e151c985b9cd9995c8819985a5b1959608a1b6044820152606401610553565b827f6f4eb32ae046d19a90b70c2563574b70cf0c6440b92c5ebbb201c2de9bbd9b27836003015460405161075591815260200190565b60405180910390a2505050565b61076b82611267565b5050565b3360009081526003602052604090205460ff168061079757506004546001600160a01b031633145b6107b35760405162461bcd60e51b815260040161055390611683565b600083815260208190526040812090600582015460ff1660038111156107db576107db6114ea565b146107f85760405162461bcd60e51b8152600401610553906116ab565b8060040154421061083d5760405162461bcd60e51b815260206004820152600f60248201526e111958591b1a5b99481c185cdcd959608a1b6044820152606401610553565b6000838152600160205260409020541561088d5760405162461bcd60e51b8152602060048201526011602482015270496e766573746d656e742065786973747360781b6044820152606401610553565b600034116108cd5760405162461bcd60e51b815260206004820152600d60248201526c139bc81d985b1d59481cd95b9d609a1b6044820152606401610553565b6040805160c08101825284815260208082018781526001600160a01b0386811684860190815234606086018181526000608088018181524260a08a019081528d83526001988990529982209851895595519688019690965591516002870180546001600160a01b031916919094161790925551600380860191909155915160048501805460ff19169115159190911790559351600590930192909255908301805490919061097c9084906116ec565b909155505060068101805490600061099383611705565b9091555050600084815260026020908152604080832080546001810182559084529190922001849055516001600160a01b03831690859085907fec5116d54c1b3244258561883dd5a22f256a3ae5a24da5c07cac8bfb8d529f12906109fb9034815260200190565b60405180910390a450505050565b60008181526001602052604090208054610a5c5760405162461bcd60e51b8152602060048201526014602482015273125b9d995cdd1b595b9d081b9bdd08199bdd5b9960621b6044820152606401610553565b60028101546001600160a01b03163314610aae5760405162461bcd60e51b8152602060048201526013602482015272139bdd081e5bdd5c881a5b9d995cdd1b595b9d606a1b6044820152606401610553565b600481015460ff1615610af65760405162461bcd60e51b815260206004820152601060248201526f105b1c9958591e481c99599d5b99195960821b6044820152606401610553565b600181015460009081526020819052604090206002600582015460ff166003811115610b2457610b246114ea565b1480610b46575080600401544210158015610b46575080600201548160030154105b610b925760405162461bcd60e51b815260206004820152601760248201527f4e6f7420656c696769626c6520666f7220726566756e640000000000000000006044820152606401610553565b60048201805460ff19166001179055600282015460038301546040516000926001600160a01b031691908381818185875af1925050503d8060008114610bf4576040519150601f19603f3d011682016040523d82523d6000602084013e610bf9565b606091505b5050905080610c3a5760405162461bcd60e51b815260206004820152600d60248201526c1499599d5b990819985a5b1959609a1b6044820152606401610553565b600283015460038401546040519081526001600160a01b039091169085907ff8590cd6b8c44be7a2bc57131f10e203ec5f7d7f2f761e1508a8cc964ecb9eb79060200160405180910390a350505050565b3360009081526003602052604090205460ff1680610cb357506004546001600160a01b031633145b610ccf5760405162461bcd60e51b815260040161055390611683565b60008581526020819052604090205415610d1b5760405162461bcd60e51b815260206004820152600d60248201526c457363726f772065786973747360981b6044820152606401610553565b82841015610d635760405162461bcd60e51b8152602060048201526015602482015274496e76616c696420726169736520616d6f756e747360581b6044820152606401610553565b428211610da55760405162461bcd60e51b815260206004820152601060248201526f496e76616c696420646561646c696e6560801b6044820152606401610553565b6040518061010001604052808681526020018581526020018481526020016000815260200183815260200160006003811115610de357610de36114ea565b815260200160008152602001826001600160a01b0316815250600080878152602001908152602001600020600082015181600001556020820151816001015560408201518160020155606082015181600301556080820151816004015560a08201518160050160006101000a81548160ff02191690836003811115610e6a57610e6a6114ea565b021790555060c0820151600682015560e090910151600790910180546001600160a01b0319166001600160a01b03909216919091179055604080518581526020810185905290810183905285907fe2b7c018a51b2b81de74f70f9ddfaeb05237614ab5608bfd67efa4360435ad929060600160405180910390a25050505050565b6004546001600160a01b03163314610f315760405162461bcd60e51b81526020600482015260096024820152682737ba1037bbb732b960b91b6044820152606401610553565b6001600160a01b03166000908152600360205260409020805460ff19169055565b3360009081526003602052604090205460ff1680610f7a57506004546001600160a01b031633145b610f965760405162461bcd60e51b815260040161055390611683565b600081815260208190526040812090600582015460ff166003811115610fbe57610fbe6114ea565b14610fdb5760405162461bcd60e51b8152600401610553906116ab565b80600401544210158015610ff6575080600201548160030154105b6107625760405162461bcd60e51b815260206004820152601160248201527010d85b9b9bdd081c99599d5b99081e595d607a1b6044820152606401610553565b6002602052816000526040600020818154811061105257600080fd5b90600052602060002001600091509150505481565b3360009081526003602052604090205460ff168061108f57506004546001600160a01b031633145b6110ab5760405162461bcd60e51b815260040161055390611683565b600081815260208190526040812090600582015460ff1660038111156110d3576110d36114ea565b146110f05760405162461bcd60e51b8152600401610553906116ab565b60058101805460ff1916600317905561110882611267565b60405182907f642e58efcd0db9e3e5171b8f71a4655b98647c098a6aa596308df9e8037ecc0990600090a25050565b61113f61143a565b6000808381526020019081526020016000206040518061010001604052908160008201548152602001600182015481526020016002820154815260200160038201548152602001600482015481526020016005820160009054906101000a900460ff1660038111156111b3576111b36114ea565b60038111156111c4576111c46114ea565b8152600682015460208201526007909101546001600160a01b031660409091015292915050565b6000818152600160205260408120600481015460ff161561120f5750600092915050565b600181015460009081526020819052604090206002600582015460ff16600381111561123d5761123d6114ea565b148061125f57508060040154421015801561125f575080600201548160030154105b949350505050565b60008181526020818152604080832060058101805460ff19166002908117909155835281842080548351818602810186019094528084529194939091908301828280156112d357602002820191906000526020600020905b8154815260200190600101908083116112bf575b5050505050905060005b8151811015611434576000600160008484815181106112fe576112fe61171e565b6020026020010151815260200190815260200160002090508060040160009054906101000a900460ff166114215760048101805460ff19166001179055600281015460038201546040516000926001600160a01b031691908381818185875af1925050503d806000811461138e576040519150601f19603f3d011682016040523d82523d6000602084013e611393565b606091505b50509050806113d45760405162461bcd60e51b815260206004820152600d60248201526c1499599d5b990819985a5b1959609a1b6044820152606401610553565b6002820154825460038401546040519081526001600160a01b03909216917ff8590cd6b8c44be7a2bc57131f10e203ec5f7d7f2f761e1508a8cc964ecb9eb79060200160405180910390a3505b508061142c81611705565b9150506112dd565b50505050565b60405180610100016040528060008019168152602001600081526020016000815260200160008152602001600081526020016000600381111561147f5761147f6114ea565b815260006020820181905260409091015290565b80356001600160a01b03811681146114aa57600080fd5b919050565b6000602082840312156114c157600080fd5b6114ca82611493565b9392505050565b6000602082840312156114e357600080fd5b5035919050565b634e487b7160e01b600052602160045260246000fd5b6004811061151e57634e487b7160e01b600052602160045260246000fd5b9052565b60006101008201905089825288602083015287604083015286606083015285608083015261155360a0830186611500565b60c08201939093526001600160a01b039190911660e0909101529695505050505050565b60008060006060848603121561158c57600080fd5b83359250602084013591506115a360408501611493565b90509250925092565b600080600080600060a086880312156115c457600080fd5b853594506020860135935060408601359250606086013591506115e960808701611493565b90509295509295909350565b6000806040838503121561160857600080fd5b50508035926020909101359150565b600061010082019050825182526020830151602083015260408301516040830152606083015160608301526080830151608083015260a083015161165e60a0840182611500565b5060c0838101519083015260e0928301516001600160a01b0316929091019190915290565b6020808252600e908201526d139bdd08185d5d1a1bdc9a5e995960921b604082015260600190565b602080825260119082015270457363726f77206e6f742061637469766560781b604082015260600190565b634e487b7160e01b600052601160045260246000fd5b808201808211156116ff576116ff6116d6565b92915050565b600060018201611717576117176116d6565b5060010190565b634e487b7160e01b600052603260045260246000fdfea2646970667358221220453820c34728ebebc388415fe989713ca95196fb481cf48e6d513d38335ed4fe64736f6c63430008140033",
  "linkReferences": {},
  "deployedLinkReferences": {}
}