{
  "_format": "hh-sol-artifact-1",
  "contractName": "GovernanceExecutor",
  "sourceName": "solidity/GovernanceExecutor.sol",
  "abi": [
    {
      "inputs": [],
      "stateMutability": "nonpayable",
      "type": "constructor"
    },
    {
      "anonymous": false,
      "inputs": [
        {
          "indexed": true,
          "internalType": "bytes32",
          "name": "proposalId",
          "type": "bytes32"
        },
        {
          "indexed": false,
          "internalType": "uint256",
          "name": "amount",
          "type": "uint256"
        }
      ],
      "name": "FundsLocked",
      "type": "event"
    },
    {
      "anonymous": false,
      "inputs": [
        {
          "indexed": true,
          "internalType": "bytes32",
          "name": "proposalId",
          "type": "bytes32"
        },
        {
          "indexed": false,
          "internalType": "address",
          "name": "recipient",
          "type": "address"
        },
        {
          "indexed": false,
          "internalType": "uint256",
          "name": "amount",
          "type": "uint256"
        }
      ],
      "name": "FundsReleased",
      "type": "event"
    },
    {
      "anonymous": false,
      "inputs": [
        {
          "indexed": true,
          "internalType": "bytes32",
          "name": "proposalId",
          "type": "bytes32"
        },
        {
          "indexed": false,
          "internalType": "uint256",
          "name": "amountRefunded",
          "type": "uint256"
        }
      ],
      "name": "ProposalCancelled",
      "type": "event"
    },
    {
      "anonymous": false,
      "inputs": [
        {
          "indexed": true,
          "internalType": "bytes32",
          "name": "proposalId",
          "type": "bytes32"
        },
        {
          "indexed": false,
          "internalType": "uint256",
          "name": "amountReleased",
          "type": "uint256"
        }
      ],
      "name": "ProposalExecuted",
      "type": "event"
    },
    {
      "anonymous": false,
      "inputs": [
        {
          "indexed": true,
          "internalType": "bytes32",
          "name": "proposalId",
          "type": "bytes32"
        },
        {
          "indexed": false,
          "internalType": "address",
          "name": "propertyTreasury",
          "type": "address"
        },
        {
          "indexed": false,
          "internalType": "uint256",
          "name": "budget",
          "type": "uint256"
        },
        {
          "indexed": false,
          "internalType": "enum GovernanceExecutor.ProposalType",
          "name": "proposalType",
          "type": "uint8"
        }
      ],
      "name": "ProposalRegistered",
      "type": "event"
    },
    {
      "inputs": [
        {
          "internalType": "address",
          "name": "caller",
          "type": "address"
        }
      ],
      "name": "addAuthorizedCaller",
      "outputs": [],
      "stateMutability": "nonpayable",
      "type": "function"
    },
    {
      "inputs": [
        {
          "internalType": "address",
          "name": "",
          "type": "address"
        }
      ],
      "name": "authorizedCallers",
      "outputs": [
        {
          "internalType": "bool",
          "name": "",
          "type": "bool"
        }
      ],
      "stateMutability": "view",
      "type": "function"
    },
    {
      "inputs": [
        {
          "internalType": "bytes32",
          "name": "proposalId",
          "type": "bytes32"
        }
      ],
      "name": "cancelProposal",
      "outputs": [],
      "stateMutability": "nonpayable",
      "type": "function"
    },
    {
      "inputs": [
        {
          "internalType": "bytes32",
          "name": "proposalId",
          "type": "bytes32"
        }
      ],
      "name": "executeProposal",
      "outputs": [],
      "stateMutability": "payable",
      "type": "function"
    },
    {
      "inputs": [
        {
          "internalType": "bytes32",
          "name": "proposalId",
          "type": "bytes32"
        }
      ],
      "name": "getProposal",
      "outputs": [
        {
          "components": [
            {
              "internalType": "bytes32",
              "name": "proposalId",
              "type": "bytes32"
            },
            {
              "internalType": "address",
              "name": "propertyTreasury",
              "type": "address"
            },
            {
              "internalType": "uint256",
              "name": "budget",
              "type": "uint256"
            },
            {
              "internalType": "enum GovernanceExecutor.ProposalType",
              "name": "proposalType",
              "type": "uint8"
            },
            {
              "internalType": "uint256",
              "name": "votingEndTime",
              "type": "uint256"
            },
            {
              "internalType": "enum GovernanceExecutor.ProposalStatus",
              "name": "status",
              "type": "uint8"
            },
            {
              "internalType": "uint256",
              "name": "lockedAmount",
              "type": "uint256"
            },
            {
              "internalType": "address",
              "name": "recipient",
              "type": "address"
            },
            {
              "internalType": "uint256",
              "name": "executedAt",
              "type": "uint256"
            }
          ],
          "internalType": "struct GovernanceExecutor.Proposal",
          "name": "",
          "type": "tuple"
        }
      ],
      "stateMutability": "view",
      "type": "function"
    },
    {
      "inputs": [
        {
          "internalType": "bytes32",
          "name": "proposalId",
          "type": "bytes32"
        }
      ],
      "name": "lockFundsForProposal",
      "outputs": [],
      "stateMutability": "payable",
      "type": "function"
    },
    {
      "inputs": [],
      "name": "owner",
      "outputs": [
        {
          "internalType": "address",
          "name": "",
          "type": "address"
        }
      ],
      "stateMutability": "view",
      "type": "function"
    },
    {
      "inputs": [
        {
          "internalType": "bytes32",
          "name": "",
          "type": "bytes32"
        }
      ],
      "name": "proposals",
      "outputs": [
        {
          "internalType": "bytes32",
          "name": "proposalId",
          "type": "bytes32"
        },
        {
          "internalType": "address",
          "name": "propertyTreasury",
          "type": "address"
        },
        {
          "internalType": "uint256",
          "name": "budget",
          "type": "uint256"
        },
        {
          "internalType": "enum GovernanceExecutor.ProposalType",
          "name": "proposalType",
          "type": "uint8"
        },
        {
          "internalType": "uint256",
          "name": "votingEndTime",
          "type": "uint256"
        },
        {
          "internalType": "enum GovernanceExecutor.ProposalStatus",
          "name": "status",
          "type": "uint8"
        },
        {
          "internalType": "uint256",
          "name": "lockedAmount",
          "type": "uint256"
        },
        {
          "internalType": "address",
          "name": "recipient",
          "type": "address"
        },
        {
          "internalType": "uint256",
          "name": "executedAt",
          "type": "uint256"
        }
      ],
      "stateMutability": "view",
      "type": "function"
    },
    {
      "inputs": [
        {
          "internalType": "bytes32",
          "name": "proposalId",
          "type": "bytes32"
        },
        {
          "internalType": "address",
          "name": "propertyTreasury",
          "type": "address"
        },
        {
          "internalType": "uint256",
          "name": "budget",
          "type": "uint256"
        },
        {
          "internalType": "enum GovernanceExecutor.ProposalType",
          "name": "proposalType",
          "type": "uint8"
        },
        {
          "internalType": "uint256",
          "name": "votingEndTime",
          "type": "uint256"
        }
      ],
      "name": "registerProposal",
      "outputs": [],
      "stateMutability": "nonpayable",
      "type": "function"
    },
    {
      "inputs": [
        {
          "internalType": "bytes32",
          "name": "proposalId",
          "type": "bytes32"
        },
        {
          "internalType": "address payable",
          "name": "recipient",
          "type": "address"
        }
      ],
      "name": "releaseFunds",
      "outputs": [],
      "stateMutability": "nonpayable",
      "type": "function"
    },
    {
      "inputs": [
        {
          "internalType": "address",
          "name": "caller",
          "type": "address"
        }
      ],
      "name": "removeAuthorizedCaller",
      "outputs": [],
      "stateMutability": "nonpayable",
      "type": "function"
    },
    {
      "stateMutability": "payable",
      "type": "receive"
    }
  ],
  "bytecode": "0x608060405234801561001057600080fd5b50600280546001600160a01b031916339081179091556000908152600160208190526040909120805460ff1916909117905561108f806100516000396000f3fe6080604052600436106100a05760003560e01c8063635e334711610064578063635e3347146101f05780637d25e89d146102035780638da5cb5b14610223578063980ff6c61461025b578063b7aa02311461026e578063de52c07d1461028e57600080fd5b806313a155ea146100ac57806332ed5b12146100ce57806337376ca814610163578063430694cf14610183578063536fff6c146101b057600080fd5b366100a757005b600080fd5b3480156100b857600080fd5b506100cc6100c7366004610e0a565b6102ae565b005b3480156100da57600080fd5b506101456100e9366004610e2e565b60006020819052908152604090208054600182015460028301546003840154600485015460058601546006870154600788015460089098015496976001600160a01b0396871697959660ff958616969495909316939192169089565b60405161015a99989796959493929190610e88565b60405180910390f35b34801561016f57600080fd5b506100cc61017e366004610e2e565b610320565b34801561018f57600080fd5b506101a361019e366004610e2e565b6104c3565b60405161015a9190610ef0565b3480156101bc57600080fd5b506101e06101cb366004610e0a565b60016020526000908152604090205460ff1681565b604051901515815260200161015a565b6100cc6101fe366004610e2e565b6105e3565b34801561020f57600080fd5b506100cc61021e366004610f7d565b6107b1565b34801561022f57600080fd5b50600254610243906001600160a01b031681565b6040516001600160a01b03909116815260200161015a565b6100cc610269366004610e2e565b6109f7565b34801561027a57600080fd5b506100cc610289366004610e0a565b610b2c565b34801561029a57600080fd5b506100cc6102a9366004610fad565b610b93565b6002546001600160a01b031633146102f95760405162461bcd60e51b81526020600482015260096024820152682737ba1037bbb732b960b91b60448201526064015b60405180910390fd5b6001600160a01b03166000908152600160208190526040909120805460ff19169091179055565b3360009081526001602052604090205460ff168061034857506002546001600160a01b031633145b6103645760405162461bcd60e51b81526004016102f090611003565b60008181526020819052604090206002600582015460ff16600381111561038d5761038d610e47565b036103cd5760405162461bcd60e51b815260206004820152601060248201526f105b1c9958591e48195e1958dd5d195960821b60448201526064016102f0565b600681018054600090915560058201805460ff1916600317905580156104845760018201546040516000916001600160a01b03169083908381818185875af1925050503d806000811461043c576040519150601f19603f3d011682016040523d82523d6000602084013e610441565b606091505b50509050806104825760405162461bcd60e51b815260206004820152600d60248201526c1499599d5b990819985a5b1959609a1b60448201526064016102f0565b505b827ff233010736b479389e8407578c649b70dcb06774c4d29149e88ed7016c8adb0f826040516104b691815260200190565b60405180910390a2505050565b6040805161012080820183526000808352602080840182905283850182905260608085018390526080850183905260a0850183905260c0850183905260e08501839052610100850183905286835282825291859020855193840186528054845260018101546001600160a01b031691840191909152600281015494830194909452600380850154939492939184019160ff169081111561056557610565610e47565b600381111561057657610576610e47565b815260048201546020820152600582015460409091019060ff1660038111156105a1576105a1610e47565b60038111156105b2576105b2610e47565b81526006820154602082015260078201546001600160a01b0316604082015260089091015460609091015292915050565b3360009081526001602052604090205460ff168061060b57506002546001600160a01b031633145b6106275760405162461bcd60e51b81526004016102f090611003565b600081815260208190526040902080546106785760405162461bcd60e51b8152602060048201526012602482015271141c9bdc1bdcd85b081b9bdd08199bdd5b9960721b60448201526064016102f0565b6000600582015460ff16600381111561069357610693610e47565b146106d15760405162461bcd60e51b815260206004820152600e60248201526d496e76616c69642073746174757360901b60448201526064016102f0565b80600401544210156107185760405162461bcd60e51b815260206004820152601060248201526f159bdd1a5b99c81b9bdd08195b99195960821b60448201526064016102f0565b80600201543410156107615760405162461bcd60e51b8152602060048201526012602482015271496e73756666696369656e742066756e647360701b60448201526064016102f0565b346006820181905560058201805460ff1916600117905560405190815282907fe4ca6b67c60d054a7534ea716370d00f3e074e33fb008a92d45ebdb89caefcf09060200160405180910390a25050565b3360009081526001602052604090205460ff16806107d957506002546001600160a01b031633145b6107f55760405162461bcd60e51b81526004016102f090611003565b60008281526020819052604090206001600582015460ff16600381111561081e5761081e610e47565b1461085e5760405162461bcd60e51b815260206004820152601060248201526f119d5b991cc81b9bdd081b1bd8dad95960821b60448201526064016102f0565b60008160060154116108a85760405162461bcd60e51b81526020600482015260136024820152724e6f2066756e647320746f2072656c6561736560681b60448201526064016102f0565b6006810180546000918290556007830180546001600160a01b0386166001600160a01b0319909116811790915560058401805460ff1916600217905542600885015560405191929183908381818185875af1925050503d806000811461092a576040519150601f19603f3d011682016040523d82523d6000602084013e61092f565b606091505b50509050806109725760405162461bcd60e51b815260206004820152600f60248201526e151c985b9cd9995c8819985a5b1959608a1b60448201526064016102f0565b604080516001600160a01b03861681526020810184905286917f75d86e5bfa1175e2dc677f3abe3aebba3069f2db6ae492f1734d4b4bc65f61c1910160405180910390a2847f120985525cfb78f6c03f96986f9687f49caf81e29350d21fa052e8c0df211ebb836040516109e891815260200190565b60405180910390a25050505050565b3360009081526001602052604090205460ff1680610a1f57506002546001600160a01b031633145b610a3b5760405162461bcd60e51b81526004016102f090611003565b60008181526020819052604090208054610a8c5760405162461bcd60e51b8152602060048201526012602482015271141c9bdc1bdcd85b081b9bdd08199bdd5b9960721b60448201526064016102f0565b6000600582015460ff166003811115610aa757610aa7610e47565b14610ae55760405162461bcd60e51b815260206004820152600e60248201526d496e76616c69642073746174757360901b60448201526064016102f0565b80600401544210156107615760405162461bcd60e51b815260206004820152601060248201526f159bdd1a5b99c81b9bdd08195b99195960821b60448201526064016102f0565b6002546001600160a01b03163314610b725760405162461bcd60e51b81526020600482015260096024820152682737ba1037bbb732b960b91b60448201526064016102f0565b6001600160a01b03166000908152600160205260409020805460ff19169055565b3360009081526001602052604090205460ff1680610bbb57506002546001600160a01b031633145b610bd75760405162461bcd60e51b81526004016102f090611003565b60008581526020819052604090205415610c335760405162461bcd60e51b815260206004820152601760248201527f50726f706f73616c20616c72656164792065786973747300000000000000000060448201526064016102f0565b428111610c825760405162461bcd60e51b815260206004820152601760248201527f496e76616c696420766f74696e6720656e642074696d6500000000000000000060448201526064016102f0565b604051806101200160405280868152602001856001600160a01b03168152602001848152602001836003811115610cbb57610cbb610e47565b815260208101839052604001600081526000602080830182905260408084018390526060938401839052898352828252918290208451815590840151600180830180546001600160a01b0319166001600160a01b039093169290921790915591840151600282015591830151600380840180549293909260ff1916918490811115610d4857610d48610e47565b02179055506080820151600482015560a082015160058201805460ff19166001836003811115610d7a57610d7a610e47565b021790555060c0820151600682015560e08201516007820180546001600160a01b0319166001600160a01b039092169190911790556101009091015160089091015560405185907ff718d0f627d42e73babc06de985462cb63fb0b368db0e486f1bc26f7241ffafa906109e89087908790879061102b565b6001600160a01b0381168114610e0757600080fd5b50565b600060208284031215610e1c57600080fd5b8135610e2781610df2565b9392505050565b600060208284031215610e4057600080fd5b5035919050565b634e487b7160e01b600052602160045260246000fd5b60048110610e0757634e487b7160e01b600052602160045260246000fd5b610e8481610e5d565b9052565b8981526001600160a01b03898116602083015260408201899052610120820190610eb189610e5d565b886060840152876080840152610ec687610e5d565b8660a08401528560c084015280851660e084015250826101008301529a9950505050505050505050565b815181526020808301516001600160a01b031690820152604080830151908201526060820151610120820190610f2581610e5d565b806060840152506080830151608083015260a0830151610f4860a0840182610e7b565b5060c083015160c083015260e0830151610f6d60e08401826001600160a01b03169052565b5061010092830151919092015290565b60008060408385031215610f9057600080fd5b823591506020830135610fa281610df2565b809150509250929050565b600080600080600060a08688031215610fc557600080fd5b853594506020860135610fd781610df2565b935060408601359250606086013560048110610ff257600080fd5b949793965091946080013592915050565b6020808252600e908201526d139bdd08185d5d1a1bdc9a5e995960921b604082015260600190565b6001600160a01b0384168152602081018390526060810161104b83610e5d565b82604083015294935050505056fea26469706673582212203273e4642fc3b1115bdf05323a330bff6d83e8ced66f745338f03004cfb6eda764736f6c63430008140033",
  "linkReferences": {},
  "deployedLinkReferences": {}
}